:020000040800F2
:1000000018B70020450100082B5B000815450008C3
:10001000295B000867020008196100080000000061
:100020000000000000000000000000006F600008F9
:100030008D020008000000004D5B000871600008A0
:100040005F0100085F0100085F0100085F01000810
:100050005F0100085F0100085F0100085F01000800
:100060005F0100085F0100085F0100085F010008F0
:100070005F0100085F0100085F0100085F010008E0
:100080005F0100085F0100085F0100085F010008D0
:100090005F0100085F0100085F0100085F010008C0
:1000A0005F0100085F0100085F0100085F010008B0
:1000B0005F0100085F0100085F0100085F010008A0
:1000C0005F0100085F0100085F0100085F01000890
:1000D0005F0100085F0100085F0100085F01000880
:1000E0005F0100085F0100085F0100085F01000870
:1000F0005F0100085F0100085F0100085F01000860
:100100005F0100085F0100085F0100085F0100084F
:100110005F0100085F0100085F0100085F0100083F
:100120005F0100085F0100085F0100085F0100082F
:10013000DFF80CD000F05AF80048004721D300083F
:1001400018B700200648804706480047FEE7FEE74C
:10015000FEE7FEE7FEE7FEE7FEE7FEE7FEE7FEE777
:10016000D16000083101000810B5431A934209D24A
:100170008318881803E010F8011D03F8011D521EB2
:10018000F9D210BD40EA01039B0703D009E008C97A
:10019000121F08C0042AFAD203E011F8013B00F84C
:1001A000013B521EF9D210BDD2B201E000F8012B82
:1001B000491EFBD270470022F6E710B513460A46E7
:1001C00004461946FFF7F0FF204610BD421C10F808
:1001D000011B0029FBD1801A7047034611F8012B3F
:1001E00000F8012B002AF9D118467047064C074D3C
:1001F00006E0E06840F0010394E8070098471034F7
:10020000AC42F6D3FFF798FF340601085406010804
:1002100070B58C1810F8015B15F0070301D110F8C8
:10022000013B2A1106D110F8012B03E010F8016BF5
:1002300001F8016B5B1EF9D12B0705D40023521E78
:100240000DD401F8013BFAE710F8013BCB1A921CE0
:1002500003E013F8015B01F8015B521EF9D5A142DE
:10026000D8D3002070BDFEE71CB506F00FFB034697
:10027000002000900190034A0221034801F066FB30
:100280001CBD0000D5CC000830D600087047704770
:100290002DE9F047044640688EB00027804601F003
:1002A000C3F90090B0F87CA0D0F86890D0F88060D6
:1002B000D0F88850C06D00B10768684601F00CFAAC
:1002C00005E0696820468847002843D12D68002D45
:1002D000F7D12068172853D00CDC0F283DD004DC60
:1002E0000B2877D00D2825D18BE0112810D01428A9
:1002F00020D13BE0262846D004DC1E2851D02028FF
:1003000018D18AE02A2816D0B0F5107F12D128E043
:100310004046E56801F088F90290697A39B9297A8E
:10032000012904D130F87C1F41F48071018002A8BA
:1003300001F0D2F975E0404601F076F90090E168ED
:1003400011B1C0F8841002E0D0F88400E060684683
:1003500001F0C2F90EB0BDE8F087D7B34046B84708
:100360005FE0214640460BF07FF8F3E705A94046E1
:1003700000F06BFBE0680699016007994160E9E7CE
:10038000C4F80C90E6E7E0680228E3D1CDF83080AD
:10039000E0680D9027200A900AA9A06807F0E6FB04
:1003A000D8E7E068012804D00021404600F0ACFA0C
:1003B000D0E7304606F0C5FC68B1304606F048FE8E
:1003C000304606F097FB98B10121304605F049FF11
:1003D0000EE026E02FE0484606F088FE064640463E
:1003E00001F022F90090C0F88060684601F074F9CD
:1003F0000121404600F088FA002EABD10020E060D9
:10040000A8E75FEA0A700CD4E068C06848B1007AD7
:1004100038B1404606F01CFE03E0214640460AF093
:10042000CAFE2146404605F08CFE002892D02046A8
:1004300006F018F98EE7404601F0F6F800907030AB
:1004400001F064F8684673E7F0B587B0B0F908408A
:100450000DF10C0C0C9E876945688CE8F000448A0D
:100460000025CDE900150294B0F90C10B0F9105038
:10047000B0F90E40B0F90A00194410442B46224648
:1004800000F002F807B0F0BD2DE9F0478AB00DF199
:100490004C0CDDE917849CE86006129F45F48055FA
:1004A000DFF8BCC06034CDE902C4CDE9007506F0C8
:1004B0002BF804004FD001F0B7F8302249460490E1
:1004C00005F076FF0498282226493430FFF74CFEC9
:1004D0000498244FC0F86480A0F87C600026C0F81F
:1004E0008060C666083FC0F888607968C16504A866
:1004F00001F0F2F805A9204600F0A7FA1A4841F2E7
:10050000827103960094CDE90110BDF91E00BDF97A
:100510001A10BDF91C20431ABDF918005B1C121AF1
:10052000521C05F0F1FF064678684168204688476E
:10053000204601F079F80490866604A801F0CCF812
:1005400042F20400054202D1204606F033F951463A
:10055000204600F00EFA0AB02046BDE8F087000001
:1005600091020008C4000020510D00082DE9F0415F
:10057000044694B0006800F0B7F908B1D94D01E025
:10058000D84D2C35606815281ED00CDC0B281FD0E8
:1005900004DC00287ED005287DD12FE10E287BD0F9
:1005A0001228F9D141E1162806D0172808D01828BA
:1005B00008D01C28F0D109E0E86914B0BDE8F0814A
:1005C000286AFAE7686AF8E7A86AF6E76869F4E76C
:1005D00020680B901C200C90206801F025F80390F7
:1005E000016D0BA88847064603A801F075F8022E96
:1005F0000FDB95E807008DE80700D4E904023346D5
:10060000A16902F0E1FF20698719A069A0EB060843
:100610002CE0286802F0C8F92169E8690A18521E1E
:10062000606901F087FBA269E869111A491C6069D9
:1006300001F080FBD4E904077F1C394601F0A0FBE0
:100640003946A06901F09CFB686802F0ADF92069A9
:100650003946401C01F094FBA0693946401E01F068
:100660008FFBA0692769A0F10208BF1C286802F06F
:100670009BF942463946606901F05CFB686802F00C
:1006800093F9606942463946401C01F053FB686AA1
:10069000022802E015E1B0E000E10BDDA86802F0FD
:1006A00083F961696A6A881C8B180146424638469C
:1006B0005B1E27E0296AB14226DD6069022E0746EB
:1006C00000F1020801DB374401E007F1020720696D
:1006D00001DB304401E000F1020022693B460A449C
:1006E0004146A2F1010201F0EBFB022E02DBA06900
:1006F000821B01E0A269921EA069E9693B46401A8B
:100700004146401C01F0DCFB022E02DB606906441E
:1007100001E06669B61CE76928687F1E02F044F9AB
:100720003A463146206901F089FB3A463146A069D4
:1007300001F084FBE7696868BF1E02F035F92069A3
:100740003A463146401C01F079FBA0693A463146F1
:10075000401E01F073FBE869022802DC286A0228C7
:1007600023DDA86A022802DDE1690F1A01E0E769CA
:10077000BF1EA86802F018F9E969022909DD20699D
:100780003B46421800F1020C31466046521E01F011
:1007900097FB286A022808DDA269E8693B46101A1F
:1007A0003146401C921E01F08BFB286802F0FCF8D9
:1007B000D4E90620216901F0BDFA686802F0F4F876
:1007C000D4E906202169401E491C521E01F0B2FAEC
:1007D000A86A022811DDA1692669E469A1F102086D
:1007E000271AA41EB61C7F1CA86802F0DDF8234659
:1007F00042463946304601F063FB71E0208A00B280
:10080000ADF81400A18A09B2ADF81610228B12B20D
:10081000ADF81820A38B1BB2ADF81A302C69ED6827
:10082000CDE9005401F052FA5AE0208A298B08449D
:10083000ADF81400A08AADF81600208B298B401A61
:10084000ADF81800A08BADF81A00206800F0ECFE9F
:100850000390006FF0B1022002F0F0F8039890F8D6
:100860007C10C1F3C00100EB8100006C02F09CF829
:100870000398406B02F0A2F80398006F00F0D4FEDA
:1008800003990990B1F95A2005A901F072F909A854
:1008900000F022FF03A800F01FFF21E0208AADF83E
:1008A0001400A08AADF81600208BADF81800A08BBC
:1008B000ADF81A00A86802F077F805A801F024FB4B
:1008C0000EE0206800F0B0FE039030F85A1F41F0AF
:1008D0000C01018003A800F0FFFE206806F02EFC4A
:1008E00000206AE6F001002038B5002450B100F085
:1008F0009BFE009090F87C00000700D5012468461C
:1009000000F0EAFE204638BD002801D00BF0EEB919
:1009100070472DE9FC410D46070028D000F084FE09
:100920000190C16D8C6800F0F7F88046019845632E
:1009300001A800F0D1FE2268012138469047064602
:100940002268032138469047054622680021384630
:1009500090470446384600F0C4F92B4632464146DB
:100960003846009400F04DF9384606F08CF9BDE8A1
:10097000FC817CB50D46040019D000F055FE0090B6
:10098000006F0190684600F0A7FE294601A803F019
:10099000DBF800280BD0204600F046FE00900199BD
:1009A0000167684600F098FE204606F06CF97CBDB1
:1009B00038B50C4605000ED000F036FE0090B0F9B8
:1009C0005A10A14204D0A0F85A40284606F05BF91C
:1009D000684600F081FE38BD2DE9FC470D465FEA10
:1009E00000094FF000042DD000F01EFE0190B0F978
:1009F0005440A54223D000F08FF880460198012191
:100A0000A0F85450C06D856848462A68904707464C
:100A10002A6803214846904706462A68002148462E
:100A200090470546484600F05CF933463A46414651
:100A30004846009500F0E5F8484606F024F901A87C
:100A400000F04AFE2046BDE8FC872DE9F34F85B053
:100A500000270C46B846059800F0E6FD0090C06DF2
:100A60000121856805982A68904782462A680321F3
:100A70000598904704902A680221059890470390B2
:100A80002A680021059890470646009806F060FD08
:100A90008346009806F063FD8146009890F8321076
:100AA000890601D5B0F9588000F036F8054600985F
:100AB000C06E10B105F0FCFF074625806780A4F8E2
:100AC00004A0049AABEB020006EB0802401E2A4485
:100AD00020813A44E280039BA9EB0302521E62810B
:100AE000A4F80CA020827019E681401E608268463E
:100AF00000F0F2FDB4F90C000190B4F9100002907E
:100B000002AA01A9059800F039F80198A08102987D
:100B1000208207B0BDE8F08F10B50146002091F8A3
:100B20003220920607D5B1F95400002803D1486B52
:100B300001F03AFA801C10BD70B58AB00C4605462B
:100B400000F072FD0990C06D866809A800F0C4FD30
:100B5000009534B1012C06D0022C0BD0032C04D10B
:100B60000AE0182000E01620019071686846884766
:100B70000AB070BD1520F7E71720F5E72DE9FC4115
:100B800017468846044600F04FFD0090C16D056889
:100B900068468E6800F0A0FD32680021204690472C
:100BA0000646204605F086FE27E000BF00F03CFD2B
:100BB0000190B0F900102AB2B0F90430891A9A1ADB
:100BC000B0F90230A3EB2543B34210D190F82800CE
:100BD000000605D53868884209DB491E396006E001
:100BE000D8F80000904202DC521CC8F8002001A88E
:100BF00000F072FD204605F0F5FE0400D6D1BDE8F8
:100C0000FC812DE9FF4F83B00E460746DDF840908A
:100C100000F00AFD0190C16D8D68FFF77DFF04466D
:100C200001A800F059FD2A68012138469047834603
:100C30002A6803213846904782462A6800213846B0
:100C400090470546B44207D105998B4504D10699D2
:100C50008A4501D14D4541D0A41B0026B0463846F7
:100C600005F028FE38E000F0DFFC0090806A010605
:100C700001D5800502E0810528D50006002825DB86
:100C800024B122461146384606F0ACF8009890F898
:100C9000280000060AD50698A5EB0902A0EB0A0079
:100CA00004FB16013846761C06F076F80098008D95
:100CB00080050BD50599A5EB0902ABEB010004FB00
:100CC000080108F10108384606F066F8684600F0A9
:100CD00003FD384605F086FE0700C4D107B0BDE825
:100CE000F08F70B586B0064600F09EFC0590D0E906
:100CF0001A4505A800F0F0FC54EA050026D0694624
:100D00003046FFF7A2FEACB1BDF90620BDF90410D4
:100D1000204606F018F8BDF90A00BDF90610421A7F
:100D2000BDF90800BDF90410521C411A2046491CA7
:100D300006F03DFA002D09D0BDF90600BDF90210FC
:100D4000421ABDF90410284605F0FDFF06B070BD3B
:100D50002DE9F0430446406889B0054605F049FE98
:100D6000814600F061FC0290D0F84880D0F8807095
:100D7000466E02A800F0B0FC2068172853D008DCAB
:100D80000E283AD00F2811D014284CD015283DD168
:100D900049E01E281ED01F282AD0222840D0312802
:100DA00034D10020E06009B0BDE8F0836FF07041FD
:100DB0004046884503D003F07FFF00F07FFD002E02
:100DC000F1D0D4E902122068CDE90405CDE906127C
:100DD00004A81FE0E0680028E5D02FB1AF4203D09F
:100DE000384606F035F9DEE7284606F07FF9DAE7FF
:100DF0002146484605F0A5F9D5E7E0684168002995
:100E000004DD00680928EFD00A2805D05EB120462D
:100E1000C4F80490B047C6E7284606F06FF9C2E769
:100E2000C4F80C80BFE7204605F01CFCBBE70000BF
:100E300010B5002001F0B6FD6FF07F4001F0B4FD69
:100E4000012001F0E9FD002001F0EEFD002001F09D
:100E5000F5FD002001F0B0FD0448006801F0AEFD92
:100E6000BDE81040002001F0B3BD000048000020A4
:100E700070B50C46054600F0FFF8A8682168C1620D
:100E800061680163A1684163490707D5D0E9002182
:100E9000C0E90012D0E90221C0E90212A1898184CF
:100EA0002169002903D001DC4FF00001016270BD0F
:100EB0002DE9F0411E4617468846054600F0DCF84D
:100EC000AC686822414604F58670FFF74DF9284664
:100ED000B8472846B047286980688047A062BDE8C7
:100EE000F081000010B5044600F0C6F8A068114972
:100EF000144AC0F8AC101049C0F8A8100F49C0F847
:100F0000B0100F49C0F8B8100021C0F8BC10136829
:100F1000C0F8B4300C4BC0E932315168C0F8C4108D
:100F200030F8261F21F0030120F82A1B07494164ED
:100F300010BD000051BF000899C0000819BF00088B
:100F4000A3BA0008B400002073BB0008C1BE0008AB
:100F500010B5044600F090F8A46810480821C4F8C1
:100F6000E4000F48C4F8E8000E48C4F8EC000E484E
:100F7000C4F8F0000D48C4F8A0000D48C4F8A4005F
:100F8000D4F8C800C4F8FC00D4F894202046904758
:100F90001020A0630748606410BD00007591000830
:100FA000D59F0008B90F0008E91000085DBA0008D5
:100FB00017C400080CFC0008F8B5846815460F46F5
:100FC00094F8260080074CD5D4F800312046984785
:100FD0000646D4F804312A46394620469847D4F8C4
:100FE000983005461BB10022012120469847206910
:100FF000B04201DD012000E00020A169B14201DA28
:10100000012100E0002108436169A94201DD0121BD
:1010100000E000210843E169A94201DA012100E072
:10102000002108430AD060680022401E0090236817
:10103000D4F8A870114620465B1EB847D4F8AC30EF
:101040002A46314620469847D4F8A01020468847C3
:10105000D4F8983005466BB101220021204698470C
:1010600008E0D4F8AC3020469847D4F8A0102046C9
:10107000884705462846F8BD70B5044680680028B4
:1010800012D14FF4BA75284600F048FA2A460021DA
:10109000A06002F08FFDA0680221C18401210464D8
:1010A00001620249C0F8081170BD0000B1100008CB
:1010B00010B590B0044620220A496846FFF754F85C
:1010C00008492022203108A8FFF74EF8606B5DF830
:1010D0002010C4F8001108A951F82000C4F8040138
:1010E00010B010BDD4D600082DE9F84384689846A6
:1010F000154694F826000F46800740D5D4F80031F5
:10110000204698470646D4F804312A4639462046F8
:10111000984705462069B04201DD012000E000202B
:10112000A169B14201DA012100E0002108436169AF
:10113000A94201DD012100E000210843E169A94243
:1011400001DA012100E0002108430AD06068002292
:10115000401E00902368D4F8A870114620465B1EFC
:10116000B847D4F8AC302A46314620469847D4F8E0
:10117000A42001B041462046BDE8F0431047D4F812
:10118000AC30F2E72DE9F04FDFF828B191B04FF025
:10119000FF35DBF80030B3F922100691DE69B3F9B0
:1011A00024A0F469A189814206D8E289824203D34E
:1011B000471AD4F8008012E0D4E90181002970D0E8
:1011C0000A8882426DD84D8885426AD3801A82B2DD
:1011D000486800EB8200B0F90070B0F90250781C4A
:1011E0005FD0307EA27C014600FB02F9207CCDE975
:1011F0000710B3F92A60304603F0AEFDC0B20E907E
:10120000DBF8001007FB0980A37C8A6B0127CDE97E
:101210000402CDE90273C869089AC17E807ECDE9D7
:101220000001DDE90603514603F08CF9681C18D073
:1012300046F0020003F090FDDBF80000A37C05FB04
:101240000981826BCDE90273CDE90412C069089A65
:10125000C17E807ECDE90001DDE90603514603F041
:1012600071F9DBF800005D46C069417E007E814275
:1012700014D9022E12D086F0040003F06DFD286808
:10128000C069027EC37E857E02FB03A1437E089A6D
:101290000698534402FB050203F0E0FA0E9803F0AF
:1012A0005BFDDBF80000627C418C1144418411B08D
:1012B000BDE8F08F4C00002004480068C069C06998
:1012C00009B1027C0A60407C704700004C0000209D
:1012D000022008807047C06982898A4202D8C28988
:1012E0008A4210D2806880B102888A420DD8438831
:1012F0008B420AD3406800EB8100A0EB8200B0F97A
:101300000000002801DB012070470020704700002A
:101310002DE9F0432F4C034687B020681946B0F9F9
:101320002A80C069C06900F082F800284ED0416868
:101330000088181A01EBC0054046AE7803F00CFD9A
:10134000814620686A680123816BCDE90236CDE9C8
:101350000421C169CB7E8A7ECDE900230B7EB0F9E2
:1013600024102A78B0F9220003F0ECF82068C06954
:10137000477E067EB7421DD9C07E47434643B8F13B
:10138000020F17D000F0F1FD804600F0D1FD01F012
:101390000BFB21682A78CB69B1F92200B1F924103E
:1013A000DB7E02FB0302CB19314403F057FA4046BF
:1013B00001F0FAFA484603F0CFFC20686A78C36966
:1013C000B0F922109B7E02FB0311418407B0BDE8F7
:1013D000F08300004C00002030B50E4C05460B4653
:1013E00020682946C069C06900F021F8002810D0A3
:1013F0004168008824682A1A0120E46900EBC200D1
:10140000085CA47E6043002B03D011F832106143C6
:10141000196030BD4C00002001200880704700B5E5
:10142000C06900F004F8002800D0012000BD06E0EB
:1014300002888A4202D842888A4202D28068002802
:10144000F6D17047F8B505460C000DD0084600F0FF
:1014500015F8060010D000F0E7F8224600902DB1F4
:101460002946FEF781FE04E00020F8BD002102F0CD
:10147000A1FB684600F030F93046F8BD002801D0E5
:1014800006F0E0BC704738B50546FFF7F7FF0400EB
:1014900009D000F0C9F82A460021009002F08AFB2A
:1014A000684600F019F9204638BD0000024A106075
:1014B00021F0030050607047E0AD002010B5002817
:1014C00014D004460A48406B10F8341000290DD09F
:1014D00002290BD2042101EBC4014158486806F0EF
:1014E000F3FB2046BDE810400AF0A4BA10BD00008E
:1014F00020AD0020002805D0034AD16B016001B166
:101500004860D0637047000020AD002010B504464D
:101510000068FFF7D3FF0020206010BD2DE9F041E7
:10152000044609F035FC2848E41C24F00305016C4E
:101530002D1DA94200D90D46C46B13E054F8042CAC
:10154000AA420ED184B1216809B162684A6061681B
:1015500009B122680A60C26BA24231D12168C1631D
:101560002EE02468002CE9D18046816BC0680F18FA
:1015700057F8040C3E1A306838B100200AF066FBB8
:1015800057F8040C3E1A3068D0B97068A84217DBCF
:101590003044441B3046241D0AF010FBD8F80C10D0
:1015A000491BC8F80C10D8F814102944C8F81410B6
:1015B0007068401B02D0314606F086FB44F8045C9C
:1015C0002046BDE8F081000020AD002010B50024C9
:1015D00009F0DEFB0C490F2001EBC002526C1AB17E
:1015E00001EBC000406C08E0401EF5D508E0416802
:1015F000A14200D90C46806810B180680028F6D15D
:10160000A4F10C0010BD000020AD0020002138B175
:101610000449042202EBC000496B085841680C39A8
:101620000846704720AD00200549CA69521CCA61AE
:10163000496B01EBC0010A78521C0A7000F064B8D3
:1016400020AD00207CB506460C460846FFF716FF85
:1016500005001CD0DEB13046FFF7D8FFA04200DA0B
:1016600004462846FFF7E0FF00903046FFF7DCFF16
:101670000146019022460098FEF776FD684600F08C
:101680002BF801A800F028F83046FFF717FF28468E
:101690007CBD000010B5FFF799FF64220649B0F544
:1016A000800F04D990FBF2F0096A484310BD096A23
:1016B0004143B1FBF2F010BD20AD002005491028D8
:1016C00005D94A68B0EB520F02D3500800E0102051
:1016D00088607047E0AD00200A4902684B6B52F801
:1016E000082C03EBC2021378022B03D3CB690BB196
:1016F0005B1ECB611178491E117000210160084604
:101700007047000020AD0020002806D003490422C5
:1017100002EBC000496B08580830704720AD00202C
:101720002DE9FC414FF000060B465FEA0008344605
:101730002BD032B111461846FFF784FE060000D1C7
:1017400001244046FFF770FF00900788456868460F
:10175000FFF7C2FFCCB9B9002846091DFFF772FF99
:10176000050015D0FFF760FF019040F8276001A841
:10177000FFF7B2FF4046FFF757FF00904560018832
:10178000491C01806846FFF7A7FF2046BDE8FC81A1
:101790003046FFF793FE0124F7E70820FFF773BEFA
:1017A0007CB5050023D0FFF73FFF00904068C0B133
:1017B000FFF73AFF0024019005E0019800EB840058
:1017C000FFF7A4FE641C00980088A042F5DC01A885
:1017D000FFF782FF0098001DFFF798FE0099002098
:1017E00008806846FFF778FF2846FFF767FE7CBD54
:1017F00038B5002430B1FFF717FF00900488684621
:10180000FFF76AFF204638BD38B50D46002448B1C1
:10181000FFF70AFF2946009000F016F804466846D4
:10182000FFF75AFF204638BD38B50D46002448B1B1
:10183000FFF7FAFE2946009000F018F804466846C3
:10184000FFF74AFF204638BD38B50D460188002411
:10185000A94209D9406838B1FFF7E6FE009050F878
:1018600025406846FFF738FF204638BD10B50024F4
:10187000FFF7EAFF10B1FFF7D7FE0446204610BD80
:1018800010B5C2B2CBB2D21A00D5524293B25B436A
:10189000C0F30722C1F30724121B00D55242000CEB
:1018A00092B2A0EB114002FB023200B2002801DA32
:1018B000404200B280B200FB002010BD10B50021F4
:1018C000084600F085FB43F6FF725042BDE8104029
:1018D00013460146AFF300802DE9FC4107461C4644
:1018E00015460E46042003F037FA80461148C068BA
:1018F000C16C006D0F4406440D440444ADF8007003
:10190000ADF80450ADF80260ADF80640684605F049
:101910002DFE07E023462A463146384602F09EFF58
:1019200005F0D8FD0028F5D1404603F015FABDE8D2
:10193000FC81000040000020B0F90630B0F904201E
:10194000B0F90210B0F90000FFF7C6BF2DE9F84367
:101950001C00DDE9089816460F46054602D104F042
:1019600095FF044600962E6843464A46214628467F
:10197000B047061E35D004F07DFF8146698A3046A7
:1019800004F06FFC304605F07DFC484605F07AFC1B
:101990004FF000080CE000BFCDF8008055F81CCFD8
:1019A00000231A4649462846E047E0B105F06AFCA4
:1019B0007F1E002FF0DC1D21484605F0C0FA601C98
:1019C0000ED004F089FF30B1FFF79EFE8469B44267
:1019D00001D02000F8D1B44202D0304605F086FB99
:1019E0003046BDE8F883304604F070FE0020F8E78A
:1019F0002DE9F0411C4616460D460746022B02DB38
:101A00000020BDE8F0811C20FFF788FD0028F8D0F9
:101A10000DB105610AE0094A52F8241009B905E040
:101A200011460A68002AFBD1096901618461868236
:101A3000002101604160C0E90217E2E76400002074
:101A400070B51D46FFF7D4FF040009D000F00EF872
:101A5000E068006820B90348006800EB85008465F1
:101A6000204670BD4C000020FFF744BD70B590B318
:101A70008269022A30DA1E4C54F8221019B944F84F
:101A8000220032E019464B68002BFBD106E0CB6800
:101A9000C5681B682D68AB4203DD09680029F6D1D3
:101AA0001AE0C1B1CB68C6681B683668B3420CD176
:101AB000838A012B05D008E01946DB681B68AB421E
:101AC00003DB0B68002BF7D129B14B6833B11860E9
:101AD0004A68426004E0FFE7012070BD44F822003C
:101AE0004860884200D100210160002070BD0000E4
:101AF000640000200A4A816952F82130834202D1F1
:101B0000036842F82130416809B102680A6001683F
:101B100009B142684A6000210160416070470000DD
:101B200064000020022801DB00207047054951F8BD
:101B3000200004E0C16809680029F6D00068002888
:101B4000F8D170476400002070B5044601F0C2F976
:101B5000051908E000F092F9052C01DD052000E0F0
:101B6000204601F0ABF901F0B5F92C1A002CF1DC9C
:101B700070BD47F6FF73AFF300802DE9FC411F46AF
:101B8000904606000D464FF0000416D065B1084699
:101B900005F02CFB040007D002462946684601F0F8
:101BA000CCFE684605F022FB3B46424629463046BD
:101BB00001F072FB204605F019FBBDE8FC81000036
:101BC0001CB50A460146684601F0A9FF2448BDF845
:101BD0000010006830F84C2F1144ADF80010BDF82B
:101BE000021082881144ADF80210BDF8041002887A
:101BF0001144ADF80410BDF8061080880844ADF813
:101C00000600684605F0B2FC27E000BFBDF90040C1
:101C10000BE000BFBDF90210204602F0C1FDBDF986
:101C20000610204602F0BCFDA41CBDF90400A04231
:101C3000F0DABDF902400AE0BDF90000214602F0E9
:101C4000AFFDBDF90400214602F0AAFDA41CBDF9B8
:101C50000600A042F0DA05F03DFC0028D6D11CBDFC
:101C60004C0000202DE9F04F0C46164987B00D6856
:101C7000DDE91098E96C0F18286D8D180619C41845
:101C8000ADF81070ADF81450ADF81260ADF8164014
:101C900004A805F06BFC002811D0DFF82CB04FF041
:101CA000000ACDE90098CDE902BA2B462246394612
:101CB000304607F019FE05F00DFC0028F1D107B001
:101CC000BDE8F08F4C000020094800082DE9F04FD6
:101CD000164C87B02568DDE91098EC6C2718286D44
:101CE000A5184618C418ADF81070ADF81450ADF82A
:101CF0001260ADF8164004A805F038FC002811D099
:101D0000DFF82CB04FF0010ACDE90098CDE902BA16
:101D100023462A463146384607F0E6FD05F0DAFB51
:101D20000028F1D107B0BDE8F08F00004C00002082
:101D3000494700082DE9FC41104F04463B68D86C28
:101D40004518196DADF800500E198418ADF804400F
:101D5000ADF80260ADF80660684605F007FC08E0E3
:101D6000386822463146406E03682846984705F099
:101D7000B1FB0028F4D1BDE8FC8100004C0000203C
:101D80007CB50E4D2A68D36C1E18106DADF804603A
:101D90004418ADF80060ADF80640ADF80240684662
:101DA00005F0E4FB07E028682146406E42683046B3
:101DB000904705F08FFB0028F5D17CBD4C0000203A
:101DC0002DE9FC411C4C2468E66C94F818C03718C7
:101DD000206DACF1010C4518C418A7EB0C0016449B
:101DE000ADF8000006EB0C00ADF80400A5EB0C000C
:101DF000ADF8020004EB0C00ADF80600684605F0F3
:101E0000B5FB15E032462946384602F09DFC3246C5
:101E10002146384602F098FC621E691C384602F0E2
:101E2000F3FC621E691C304602F0EEFC05F052FB2A
:101E30000028E7D1BDE8FC814C0000207CB50E4BAA
:101E40001B68DC6C2618186DADF800604518841806
:101E5000ADF80460ADF80250ADF80640684605F0F4
:101E600085FB06E022462946304602F0CDFC05F00F
:101E700031FB0028F6D17CBD4C00002010B50024B9
:101E800000E0012400F004F80028FAD1204610BD3B
:101E9000094810B50068002410B1804700B1012442
:101EA00004F094FC00B101240448006810B180479C
:101EB00000B10124204610BD700000206C000020FD
:101EC0002DE9FC410F4C2568EC6C2718286DA518EE
:101ED0004618C418ADF80070ADF80450ADF80260B3
:101EE000ADF80640684605F041FB07E023462A4668
:101EF0003146384602F0B2FC05F0ECFA0028F5D184
:101F0000BDE8FC814C000020B0F90630B0F9042097
:101F1000B0F90210B0F90000FFF7D2BF034951F841
:101F20002000C1688A6A0821104700006400002070
:101F300010B502F0C3FCBDE8104002F053BD000034
:101F400002490968C9694A68002110474C0000200D
:101F5000024A1268D2695268104700004C00002003
:101F6000002801D004F076BC704710B502F0AEFC3A
:101F7000BDE8104002F036BD02480068C069407EEE
:101F8000704700004C00002001F094BC10B50446DE
:101F900001F082FC01462046BDE8104001F036BC4D
:101FA00000F098BF407E7047017EC07E4843704776
:101FB000024951F820000069006870476400002061
:101FC000024951F820000069406870476400002011
:101FD00070B50D4608F046FE0446284608F04AFE55
:101FE000204370BD2DE9F0411948016821F001013D
:101FF000016018480125856017490160006817498C
:10200000884200D0FEE701F021F8154E2E203070F6
:1020100000F066FF134808F083FE0BF02FF8074628
:1020200002F09AFC10B102F0ABFC38B902F0B1FC3E
:10203000044602F09AFC214602F088FE0021084680
:1020400000F0CEFC04F07AFD75703846BDE8F081F2
:10205000002000E000300240C2A507F4CDB5E8B58D
:1020600040000020ECAD00201CB520B90C480068F1
:10207000006E002812D0FFF7D7FA00904469684636
:10208000FFF72AFB002C09D02046FFF7CDFA01907C
:1020900081688968884701A8FFF71EFB1CBD000006
:1020A0004C00002001490A4600F002B801F0FFFF91
:1020B0002DE9F04387B015460C465FEA000842D090
:1020C000002000F079FC814620480068066E4046FA
:1020D000FFF7AAFA00900068806900F04BFC074601
:1020E00040F6FF70C44204D10098B0F90440B0F942
:1020F00006500098611E0289ADF804401144ADF805
:1021000008104189681E0844ADF80650ADF80A0071
:1021100004F078F96846FFF7DFFA01A805F026FA1F
:1021200006E02A462146404600F04EFB05F0D2F973
:102130000028F6D1384600F01DFC304600F066F964
:10214000484600F039FC07B0BDE8F0834C000020A1
:102150002DE9FE4F83461A488A461A4900680C9EAC
:102160009846407C9146002751F82040E168096874
:10217000042903D02468002CF8D100E01CB9FFF733
:10218000D1FC041E19D0E0680121C26A20469047A4
:10219000050011D02469A0688047401C02D10A4C78
:1021A00046F001060096CDE9015443464A465146A1
:1021B000584600F0AFF907463846BDE8FE8F0000EC
:1021C0004C0000206400002058FC000838B50400D2
:1021D00018D00D480068006EA04201D100F0C0FB8D
:1021E0002046FFF721FA0090406908B100F03FFE59
:1021F00000980068FFF738FC6846FFF76DFA204644
:10220000FFF75CF938BD00004C0000202DE9FF4FBE
:10221000DFF83891074683B0D9F800009A468B461C
:10222000447C4B4800570128204606DD02F09AFB0B
:102230000546204602F0AAFB05E002F07BFB0546BE
:10224000204602F07DFB04461FB302A901A8FFF758
:102250009BFEB7F90000002800DA0020B7F9026001
:102260008046002E00DA002601984119B7F90400D3
:10227000491E08F0E9FE054602980119B7F9060063
:10228000491E08F0E1FEA5EB0802841B521C641CE9
:1022900003E04FF0000846462A46BAF1000F01D18C
:1022A000C4F1000A002A4FDD002C4DDD109800908B
:1022B000534631464046FFF74BFF5FEA000A10D015
:1022C00000F06AF80746A04206D0D9F80000806CFA
:1022D00010B1322105F068FC504600F097F8002557
:1022E00021E0594605988847012007B0BDE8F08FE6
:1022F000611BB94202DA504600F072F83DB1721922
:102300004146504600F0A4F85046FFF7ADFE59464E
:10231000059888470F48016809B100208847504652
:10232000FFF7C0FE3D44A542E2DB5046FFF74EFFFB
:10233000002000F06BF8A74206D0D9F80000806CAE
:1023400010B1332105F030FC0020CEE74C00002016
:1023500084000020D401002038B5002460B1FFF7CC
:1023600063F90090006800698068804702F0A2FE6F
:1023700004466846FFF7B0F9204638BD38B5002856
:1023800008D0FFF751F900F1180400906846FFF7F4
:10239000A3F9204638BD000038B5002418B9074815
:1023A0000068006E38B1FFF73FF90090B0F90A40BD
:1023B0006846FFF791F9204638BD00004C00002028
:1023C00070B505460024284605F060FF641C18B16E
:1023D000BDE8704000F068B8052CF4DB70BD00006B
:1023E00038B50C4620B908480068006E00280AD0AD
:1023F000FFF71AF90090B0F90A10A14200DD4481FC
:102400006846FFF769F938BD4C000020F8B50F4E5B
:1024100005003068046E16D00CB100F0A1FA04F08B
:1024200017F92846FFF700F9009031680D6600683B
:10243000FFF71CFB6846FFF74FF902F0D5FC02F0EE
:1024400065FC2046F8BD00F08BFAFAE74C0000204E
:102450007CB515460C4620B912480068006E00286D
:102460001FD0FFF7E1F82DB20090C58024B2848020
:1024700002F04CFC0098406980B1FFF7D5F8009A53
:102480000190B2F908108180B2F90A20C28011B11E
:102490000AB10480458001A8FFF71EF96846FFF7DE
:1024A0001BF97CBD4C00002001490A4600F002B82F
:1024B00001F0FFFF7FB515460C46060028D0FFF758
:1024C000B3F840F6FF710190CC4203D1B0F904405B
:1024D000B0F906500289611E1144ADF80840ADF80C
:1024E0000C104189681E0844ADF80E00ADF80A5082
:1024F00001A8FFF7F1F802A805F038F806E02A462F
:102500002146304600F048F904F0E4FF0028F6D1F7
:102510007FBD00002DE9FF4FDFF8E8B083B01C4617
:10252000DBF80010DDE9106092464FF000084B7CAC
:1025300042461299FFF75CFA050060D0286980686E
:10254000804702F0B7FD81460AFB09F1C91DCF089B
:10255000FFF7A0F8F10705D1C11700EB91708010CB
:1025600000EB4000002C09DC1FB11838B0FBF7F07D
:1025700000E000206442A04200DC0446F00707D1DE
:102580000090DDE903012346524600F0F9FB804646
:10259000002C03DC2846FFF767FA30E004FB07F065
:1025A0001830F10702D0FEF769FF01E0FEF76BFF7C
:1025B00006001CD0FFF738F8019005600399818070
:1025C0000499C180A0F808A04481C0F81480C0E933
:1025D000037901A8FFF780F81298AE602861DBF854
:1025E0000000407CA861304607B0BDE8F08F284667
:1025F000FFF73AFAB8F1000001D0FEF75FFF0020C4
:10260000F2E700004C0000202DE9F74F8EB0144691
:1026100089460E98FFF708F80990B0F908B0B0F9AC
:102620000A600068006940680C9009A8FFF754F838
:10263000564D574F2868407C57F82000C1688A6A79
:10264000082190470790182801D320200790286878
:10265000407C57F820000069069003C80B904D4855
:10266000814201D0012000E000200A90002000F00B
:1026700038FC00287DD1286809EB0B01B0F90C204B
:10268000891A491E002902DDABEB010500E05D4619
:10269000B0F90810494505DDA1EB090189446D1A1F
:1026A000089101E000210891002D6BDDB0F90E20AA
:1026B000A119891A491E002902DDA6EB010800E0D4
:1026C000B046B0F90A00A04204DD061B3444A8EB72
:1026D000060800E00026B8F1000F53DD08980190CD
:1026E0000DA95F46DDF830A00E980091FFF746FE79
:1026F000774300EB870101982B4601EB800200999C
:102700004846CDE900A1214600F076FE0090002861
:1027100038D00A98E8B1DDE906322946009800F081
:102720008FFCB0B90698009FDA46D0F810C0BCF113
:10273000000F05D004235A4639463846E04708E0E2
:102740000B993868884701C7AAF101005FEA000ABF
:10275000F6D100990020079ACDE9030105900120E8
:102760000090CDE9010221460346641C2A464846F2
:1027700000E007E001F0E6FEA8F10100761C5FEA48
:102780000008ABD111B0BDE8F08F00004C00002074
:10279000640000202F4A0008F8B515460E4607468B
:1027A000FEF742FF009000681621C068426A0020D0
:1027B000904704466846FEF78FFF002C03D02A4658
:1027C00031463846A047F8BDF8B516460F46050015
:1027D00012D0FEF729FF009044696846FEF77CFF9F
:1027E0002846FFF7B9FD0346082800DD2CB1324624
:1027F0003946284609F048FEF8BD32463946284693
:1028000009F0E2FFF8BD10B5002821D009B30AB3E2
:10281000B1F90040B2F900309C4200DA234603804F
:10282000B1F90240B2F902309C4200DA23464380FB
:10283000B1F90440B2F904309C4200DD23468380A4
:10284000B1F90610B2F90620914200DC1146C180B0
:1028500010BD11460A6802604968416010BD002839
:102860000BD003880B4403808388194481804188FE
:1028700011444180C1881144C180704770B5094C32
:102880000020D4E900218A420AD0D2E9005610463D
:1028900008F006FA20603146284604F087FA012045
:1028A00070BD0000A40100202DE9FC41154DDDE9BB
:1028B00008742D68B5F90860864200DD3046B5F928
:1028C0000C60964200DA3246824219DBB5F90A60A2
:1028D0008E4200DD3146B5F90E509D4200DA2B469E
:1028E0008B420DDB00E02C46E5682D6825B1042DF8
:1028F00002D02568002DF6D1CDE9007402F0F0F881
:10290000BDE8FC814C000020B0F90220B1F906308E
:102910009A4213DCB1F90220B0F906309A420DDC7C
:10292000B0F90020B1F904309A4207DCB1F9001087
:10293000B0F90400814201DC01207047002070479B
:102940000146024870220068FDF70EBC4C000020D2
:10295000024970220968FDF707BC00004C00002006
:1029600010B502F089F902F03FFABDE8104003F01B
:1029700049BD000070B5094D0446022C2868467C0C
:1029800009D22046FFF7CEF828B128684474FFF733
:10299000E7FF03480460304670BD00004C00002093
:1029A0003001002002F088B902F0BEB90149886008
:1029B000704700004000002002F0CEB903490968CA
:1029C000CA6900B1C8611046704700004C00002081
:1029D000024909688A7E8876104670474C000020BC
:1029E000094A30B41080094A1180094A1268537CA0
:1029F000084A52F82330DA68146A0A46A4460146A7
:102A000030BC1846604700008C0000208E0000207B
:102A10004C00002064000020024909680A7E087604
:102A2000104670474C00002003490968B1F92C207A
:102A300088851046704700004C0000200349096853
:102A4000B1F92A2048851046704700004C0000204C
:102A500002480068002800D000477047B4010020F9
:102A600002498A6802B98860FFF7F2BFA40100201A
:102A70002DE9FC410746984616460D461C20FEF7F8
:102A800002FD04002DD01B49194808602046FEF7BE
:102A9000CBFD009015B9FFF783FA05460098076053
:102AA000C0E90465A0F80C806846FEF715FE2046D4
:102AB00008F002FA104DA86840B90120A86005F19D
:102AC0000C010E480860084601F036F82046FEF773
:102AD000ABFD0190296839B181602C6001A8FEF737
:102AE000FBFD2046BDE8FC8100212C608160F5E7FC
:102AF0001D2B00087000002080020020E5B20008B5
:102B000010B5040009D009F073F8204609F000FC64
:102B10002046BDE81040FEF7D1BC10BD2DE9F041C4
:102B2000184C88B00025676825E000BFFFF738FA29
:102B300006466068FEF778FD01904169891B00290F
:102B400015DC61680296049101690391466866602C
:102B5000D0F8008001A8FEF7BFFD02A841468847D3
:102B600066B160680125B84205D1002506E001A8DC
:102B7000FEF7B2FD02E060680028D7D108B0284611
:102B8000BDE8F0818002002038B50C4660B1FEF748
:102B90004BFD00908089204201D0012400E00024F8
:102BA0006846FEF799FD00E00124204638BD38B59F
:102BB000040012D0FEF738FD0090FFF7F1F901464E
:102BC00000988269114441616846FEF785FD204600
:102BD00009F09EFB204608F06FF938BD38B50C4669
:102BE000002806D0FEF720FD009084616846FEF7BD
:102BF00073FD38BD38B505460020286006480468D6
:102C000044B12046FEF710FD009000692860684638
:102C1000FEF762FD204638BD8002002038B5040072
:102C20004FF000000D46086011D02046FEF7FCFC76
:102C30000090846844B16846FEF74EFD2046FEF7DA
:102C4000F3FC0090006928606846FEF745FD2046C9
:102C500038BD00002DE9F041084E04460568306893
:102C600001682846884707463068416828468847F3
:102C7000284420603846BDE8F08100005000002064
:102C80002DE9F0410C4606460025064F05E0386860
:102C900041683046884706440544641EF7D22846FA
:102CA000BDE8F081500000202DE9F0411E46069C51
:102CB0001746884605463A46A8687F1C3346D0F832
:102CC00004C041462846E047641EF4D1BDE8F081C7
:102CD00070B5B0F90040091BB0F904408C422CDDFE
:102CE00000F11404B0F902500069521B02FB0040CD
:102CF000CA1800EBE104521ED010B0EBE10501F060
:102D000007034FF0FF0102F0070221FA03F0C2F1BE
:102D1000070201FA02F1CEB221780FD001436D1EF5
:102D200004F8011B002D05DDFF2229462046FDF792
:102D30003BFA2C4420783043207070BD3040014372
:102D4000217070BD10B5B0F90030B0F90240C91A59
:102D500000F114030069121B02FB003000EBE100DC
:102D600001F0070302788021D9400A43027010BDA8
:102D7000B0F90610026951431430FDF71CBA000087
:102D80002DE9F843804602F10F000011470003FBD4
:102D900007F01C46154689461430FEF774FB060002
:102DA00013D0FEF741FC0090A0F80080A0F802903C
:102DB0008580C48006498160012181810761684660
:102DC000FEF78AFC3046BDE8F8830020FBE70000F0
:102DD000E405010870B5B0F90660B0F904400B686D
:102DE00000F1140596421BDD0069A34202FB00506E
:102DF00000EBE30214DA641EE010A0EBE30512F826
:102E0000010B03F00704A040C4B206E045B108334B
:102E100012F8014B23F007036D1E002CF6D004E0DE
:102E2000002070BD6006040E5B1C2006FAD5FF2C46
:102E300007D0184602E06406240E401C6606FAD449
:102E400000E0D81DC443640705D006E012F8014B2A
:102E5000FF2C09D108306D1EF8D5C01A401C0B603C
:102E600070BD6206140E401C2206FAD4F5E738B590
:102E70000546FEF7D9FB00908189491E0CB284817A
:102E80006846FEF729FC002C02D12846FEF716FB07
:102E900038BD000010B54FF4F044214600200AF080
:102EA000FFFA2146FEF702FB8020FEF707FCBDE893
:102EB00010400148FFF77ABD08DE000803490A68A0
:102EC00010440A68821A002AFBDC704718000020B0
:102ED000704700000148006870470000180000209B
:102EE00070470EB508B102AA00E00022002301A934
:102EF000684600F03DFC0EBD074910B50C7818B1CE
:102F000001200870801E03E0002008706FF07F40F1
:102F100001F002FB204610BD8600002010B5082AF3
:102F20000EDC0346012A18D0022A56D0042A76D095
:102F300010F8042B03F8012B491EF9D1012010BD14
:102F4000102A08DC4FEA000230F8043B22F8023B6A
:102F5000491EF9D1F2E7002010BD10F8042BD2076A
:102F6000120E491E34D010F8044B491E04F001041F
:102F700042EA84122CD010F8044B491E04F00104DC
:102F800042EA441224D010F8044B491E04F0010414
:102F900042EA04121CD010F8044B491E04F001044C
:102FA00042EAC40214D010F8044B491E04F0010494
:102FB00042EA84020CD010F8044B491E04F00104CC
:102FC00042EA440204D010F8044B04F00104224306
:102FD00003F8012B0029C0D1B0E710F8042B9207A9
:102FE000120E491E15D010F8044B491E04F00304BC
:102FF00042EA04120DD010F8044B491E04F00304F9
:1030000042EA840205D010F8044B04F00304224382
:10301000491E03F8012B0029DFD18FE7FFE710F8E5
:10302000042B1207120E491E05D010F8044B04F0B1
:103030000F042243491E03F8012B0029EFD17DE73D
:1030400038B50024009400F01BF838BD0A4810B5CC
:10305000816900290ED101218161FFF71BFF01F079
:10306000D5FE054905481C310860BDE810400846FA
:1030700000F062BD10BD00004000002049B2000811
:103080002DE9F0410D460699044601B901461F6835
:10309000082A09DC0E46012A1AD0022A5BD0042A2B
:1030A0007DD0082A13D18DE0102A07DCD3F810C098
:1030B0000E46BCF1000F04D0022389E00020BDE8D9
:1030C000F08101CCB84726F8020B6D1EF9D189E0DA
:1030D00001CCB847C0074FEA10686D1E36D001CC4E
:1030E000B84748EA801000F0FF086D1E2ED001CCD2
:1030F000B84748EA401000F0FF086D1E26D001CC0A
:10310000B84748EA001000F0FF086D1E1ED001CC41
:10311000B84748EAC00000F0FF086D1E16D001CC89
:10312000B84748EA800000F0FF086D1E0ED001CCC1
:10313000B84748EA400000F0FF086D1E06D001CCF9
:10314000B84740EA080000F0FF086D1E06F8018B42
:10315000002DBDD146E001CCB84780074FEA10688A
:103160006D1E16D001CCB84748EA001000F0FF08E9
:103170006D1E0ED001CCB84748EA800000F0FF0871
:103180006D1E06D001CCB84740EA080000F0FF08E9
:103190006D1E06F8018B002DDDD123E0FFE701CC89
:1031A000B84700074FEA10686D1E06D001CCB8473B
:1031B00040EA080000F0FF086D1E06F8018B002DA4
:1031C000EDD10FE0D3F810C0BCF1000F04D0012303
:1031D0002A462046E04705E001CCB84706F8010B37
:1031E0006D1EF9D101206AE77CB5064628480D46D8
:1031F000006868B1002004F0B9F906E06A46294683
:10320000304605F029F904F065F90028F6D17CBDB7
:10321000106800901F4C506801902268BDF80000B3
:1032200032F84C1F0844ADF80000BDF80200918848
:103230000844ADF80200BDF8040011880844ADF858
:103240000400BDF8060091880844ADF80600684601
:1032500004F08CF90EE000BF2068BDF800106A464B
:103260004184BDF8021081842946304605F0F4F807
:1032700004F030F90028EFD1206830F8221F428D89
:10328000891A01804188C28D891A41807CBD000065
:10329000880000204C0000202DE9FF4F85B09A46A1
:1032A00090460D46FEF768FE4FF00009DDF814B0B9
:1032B00006464C4625B1286800906868019002E0F7
:1032C0006846FEF74DFE18F00C0F02D05546002759
:1032D00013E0BDF902402DE029467F1C059800F05F
:1032E000BFFA01466D1A0598FFF7CAFC0599084414
:1032F000059005A800F0F8FA08B9002DECD108F007
:103300000C00042804D0082802D00C2812D105E0B3
:10331000BDF9060007FB1604641C0BE0BDF90600AE
:10332000BDF90210401A07FB1600401C00EBD070DC
:1033300001EB60045546CDF814B043E029460598EA
:1033400000F08EFA07460146ED1B059800F05EFA84
:1033500018F003010ED0012939D002290DD1BDF991
:103360000410BDF90020891A091A01EBD17102EB92
:10337000610101E0BDF900108946174A401E48442A
:1033800012683946A2F822909484ADF80C00A01976
:10339000401EADF80890ADF80E00ADF80A4002AA44
:1033A0000598FFF721FF39460598FFF769FC059955
:1033B00008440590FEF7E0FD044405A800F094FAE7
:1033C000002801D1002DB9D109B0BDE8F08FBDF9B9
:1033D0000410091A491CCFE74C00002049B100280D
:1033E00002DAA0EB610001E000EB610090FBF1F07C
:1033F00070470020704700002DE9FF4F8DB000207E
:10340000DDF86CA0164600901D4604460246CAF838
:10341000000008AB03A902A800F0AAF918B1002027
:1034200011B0BDE8F08F0898854200DD0546614F78
:103430000B9561493868407C51F820100491096966
:103440000691FEF76BFD05903868407CFEF7B8FDED
:103450005A498146884204D05949894501D0012002
:1034600000E000200A9001CE1A9988478346000E9A
:10347000079077D0009870BB0D9800EB04084D487A
:103480000068B0F90800404503DDA0EB080780465E
:1034900000E000270298049900EB840000EB87000D
:1034A000CDE900010B990D98421809920E9B4046F8
:1034B0001946521EFFF7F8F90120009005981828C8
:1034C0000ADA0298DDE9052300EB840000EB8700AF
:1034D000E91B00F0ABF812E00A9880B1029800EB0B
:1034E000840000EB87070998A0EB08084946386874
:1034F000884701C7A8F101005FEA0008F6D131480A
:10350000C06980B3DDE9020700EB840007EB8402A9
:10351000CDE902022B4C361F3046E4692B46029956
:10352000A047FF213068B1EB106F02D1029800680C
:1035300004E0029A1268B1EB126F01D1039A106095
:10354000029806F10406001D02900398001D0390E6
:103550006D1EE7D10397DAF8000040F00101CAF8C8
:10356000001020E021E0FFE70798FF2811D0C0F10C
:10357000FF02029850F82410584600F079FA039997
:1035800041F82400DAF8000040F00101CAF8001008
:1035900005E00298039950F8240041F82400641CC7
:1035A0006D1E7FF460AF03983AE7039941F824B0A9
:1035B000E8E700004C000020640000202F4A0008CB
:1035C0002D4A0008540200202DE9F0479A46164B78
:1035D00086B01B68DDE90F87DC6CDDF838902618B3
:1035E000186D65188418AAF10100ADF81050204438
:1035F000ADF80C60ADF81200ADF80E4003A803F072
:10360000B5FF0BE0CDF80090CDE901875346224687
:103610002946304606F0C2FA03F05CFF0028F1D1DB
:1036200006B0BDE8F08700004C0000202DE9F05FF7
:103630000C1E16DD5E68014600EB8405082A12DCCC
:10364000611E012A26D0022A47D0042A6AD0082AFD
:1036500007D1071917F8010DB04745F8040D641E8E
:10366000F8D1BDE8F09F102AFBDC5F693FB122462C
:10367000BC46BDE8F04F02235DF804EB604701EB68
:10368000440700BF37F8020DB04745F8040D641E2B
:10369000F8D1E6E700EBE10001F0070710F801A917
:1036A0008146802020FA07F8B5F104050AEA0800EF
:1036B000C7F10701C840B04745F804093FB14FEAD8
:1036C00048604FEA10687F1E641EEFD1C9E719F801
:1036D00001A907274FF00108F6E700EBA10001F070
:1036E000030710F801A981467900C02020FA01F8EB
:1036F0004FF0060BB5F104050AEA0800ABEB4701F1
:10370000C840B04745F804093FB14FEA88604FEA26
:1037100010687F1E641EEFD1A3E7032719F801A9E3
:10372000B846F7E700EB6100012710F801A9A743AD
:103730008146B900F02020FA01F84FF0040B2D1F4C
:103740000AEA0800ABEB8701C840B04745F8040916
:103750003FB14FEA08704FEA10687F1E641EEFD138
:103760007FE719F801A901274FF00F08F6E70000DD
:103770002DE9F047224C06461F46A069904689462F
:10378000002540B90120A06104F120011D48086016
:10379000084600F0D1F9606930B91B4800686061E3
:1037A00010B901F0CAF8606107B138604EB1A06885
:1037B00030B960698000FDF7B1FEA06000B9012555
:1037C0003060B9F1000F0AD0E06830B9606980005C
:1037D000FDF7A4FEE06000B90125C9F80000B8F1CA
:1037E000000F0AD0206930B960698000FDF796FEAD
:1037F000206100B90125C8F800002846BDE8F0871F
:1038000054020020BDB200087C00002073B5124AAB
:1038100001A900981268904700240090C8B10F4990
:1038200000250968C969496959B10A684AB101990D
:1038300090477CBD6846FFF70DFA0546FEF780FB12
:1038400004440198401E0190F4D5284600F040F849
:10385000044420467CBD00007C0200204C00002077
:1038600073B50D460098002490B10A490968C969EA
:10387000496959B14A684AB1294690477CBD6846B2
:10388000FFF7E8F920B10A2802D0641CAC42F6DB4D
:1038900020467CBD4C00002031B50024009808B9BA
:1038A00005E0641C6846FFF7D5F90028F9D12046E9
:1038B00038BD0000044AB2F9002002600348B0F9A4
:1038C00000000860704700008C0000208E0000207F
:1038D00038B5002469460094FEF73AFB009981420E
:1038E00000DD0C1A204638BD016811F8012B12B119
:1038F0000A2A02D002E001207047016000207047D0
:10390000B0F90030B1F90020934200DA0280B0F93A
:103910000230B1F90220934200DA4280B0F904305B
:10392000B1F90420934200DD8280B0F90620B1F99C
:1039300006108A4200DDC180704770B5B1F90040C1
:10394000B2F900309C4200DD23460380B1F90250F9
:10395000B2F90240A54200DD2C464480B1F9046072
:10396000B2F90450AE4200DA35468580B1F906104E
:10397000B2F90620914200DB1146C1809D4201DB75
:10398000A14201DA002070BD012070BD014602484D
:103990000068407C00F002B84C0000202DE9F8439C
:1039A00001268946044602285DDA304F7A6802B162
:1039B00090472E4D5FEA090005F1100532D001282D
:1039C00003D0B9F1020F4ED118E055F8240088B9A0
:1039D0002046FEF7A7F8009018B3C0680D21426A90
:1039E0006846904702003ED049460098904755F8F7
:1039F00024000026401C45F8240034E02046FEF751
:103A000091F8009068B1C0680D21426A68469047FD
:103A1000040028D0386800B1804749460098A04784
:103A2000002620E055F82400A846012812D120469F
:103A3000FEF778F8009068B1C0680D21426A6846C8
:103A40009047050006D0386800B180474946009885
:103A5000A847002658F8241009B1012200E00022EE
:103A6000891A48F824103046BDE8F8838C010020FC
:103A700070B5FF23B3EB116F29D0C3B200F47F45BB
:103A800000F47F04060E5343554354435643C2F19A
:103A9000FF00CAB202FB003201F47F4303FB005374
:103AA00001F47F0505FB0044090E01FB0065C2F32C
:103AB00007204FF47F4101EA1322090201EA142191
:103AC0004FF07F43104303EA05430843184370BD9A
:103AD0002DE9F04F0646DDE90CB915460C460020ED
:103AE0008046584519D20B9F4FF0FF0A01CE08CCF3
:103AF000AAEB106202FB09F2B2FBFAF1CAB2194654
:103B0000FFF7B6FF20F07F4001C57F1EEED1099878
:103B100004EB800408F10100E2E7BDE8F08F0B88B8
:103B2000134403808B889B1A83804B881344438003
:103B3000C988891AC180704702494A694260486150
:103B400070470000400000202DE9F8430768064652
:103B500088460025384600F091F840B3404600F012
:103B60009DF8441C3846FDF751FD84420CD1F4B158
:103B70003846FDF759FD224641460090FCF7F4FA1D
:103B80006846FDF7A9FD11E02046FDF777FC04002B
:103B90000DD0FDF749FD41460090FCF71EFB68463D
:103BA000FDF79AFD3046FDF7B1FC3460012528464B
:103BB000BDE8F88310B502E000F8011B521E0AB1FF
:103BC0008307F9D1930818D001EB014402F00302F6
:103BD00004EB042406E010C01B1F10C040F8084B83
:103BE00040F8044C042BF6DA01E010C05B1E002BF9
:103BF000FBD102E000F8011B521E002AFAD110BDD1
:103C000010B5830702D520F8021B521E530811D0AD
:103C100001EB0144042B09DB10C01B1F10C0042B57
:103C200040F8084B40F8044CF6DA01E010C05B1E87
:103C3000002BFBD1D20700D0018010BD024600202E
:103C40004FF080414318934201D8D21A58184008C7
:103C50008908F7D17047000000B907A021B906A173
:103C600002E03AB1401C491C02780B789A42F8D025
:103C700001207047002070470000000038B50D4655
:103C8000012448B1FDF7D0FC29460090FFF7E4FF7E
:103C900004466846FDF720FD204638BD4FF0FF3151
:103CA00028B100BF10F8012B491C002AFAD10846A0
:103CB000704710B5040002D0607910B106E0012011
:103CC00010BD00202071204600F004F80120607132
:103CD000002010BD08B500680649884208D1064892
:103CE000416941F040014161406900F040000090AD
:103CF00008BD000000300240001002402DE9F84FDE
:103D0000DFF8B8A100220AF1040B144601274FF096
:103D10000F090BF1040E00BF0B6807FA04F52B40E6
:103D2000AB4274D1DFF898C14E68A6EB0C0866452B
:103D30002BD00DDC032E34D005DC36B3012E19D088
:103D4000022E2FD11BE0112E16D0122E2AD119E0EF
:103D5000B8F5881F19D006DCB8F5803F15D0B8F546
:103D6000801F1FD111E0B8F5001F0ED0B8F5041F59
:103D700018D10AE0CA6815E0CA68121D12E0CA68C4
:103D800008320FE0CA680C320CE08A682AB1012AB6
:103D90004FF0080203D0456104E0042202E005610F
:103DA00000E00022FF2B01D8064601E000F10406E6
:103DB0004FEA840501D9A5F12005D6F800C009FA1B
:103DC00005F82CEA080C02FA05F54CEA050CC6F8D1
:103DD00000C04D68ED006AD53A4DAE6946F0010667
:103DE000AE61AD6924F0030605F001050095364D7E
:103DF00006EB050CDCF80850A6074FEA167809FA1E
:103E000008F6B543314EB04202D100261AE04EE02A
:103E10002F4EB04201D1012614E02E4EB04201D106
:103E200002260FE02C4EB04201D103260AE02B4EB1
:103E3000B04201D1042605E0294EB04201D1052649
:103E400000E0062606FA08F62E43CCF808604D6816
:103E5000DAF80060ED03554601D51E4300E09E43AD
:103E60002E604D68AD0305D5DBF800601E43CBF82E
:103E7000006004E0DBF800509D43CBF800504D6833
:103E8000DEF80060ED02754601D51E4300E09E435A
:103E90002E604D68AD0205D5084D0C352E681E43C9
:103EA0002E6004E0054E0C3635689D433560641C79
:103EB000102CFFF431AFBDE8F88F00000004014082
:103EC00000001110001002400000014000080140F5
:103ED000000C014000100140001401400018014096
:103EE000001C01400AB1016170470904FBE70000B2
:103EF000014880687047000008000020024881687F
:103F0000027811448160704708000020074810B50E
:103F1000016841F010010160032000F067F8002003
:103F200000F006F800F024F8002010BD0020024048
:103F300070B50D4D04464FF47A712878B1FBF0F05E
:103F40000A490968B1FBF0F000F0D0FA48B9102C2A
:103F500007D200222146501E00F028F800206C6095
:103F600070BD012070BD000008000020140000207A
:103F70000C4808B5816941F001018161816901F056
:103F800001010091C16941F08051C161C06900F037
:103F9000805000900448416821F0E06141F00071D8
:103FA000416008BD0010024000000140F0B40E4B1B
:103FB0001B680C46C3F30223C3F10705042D00D987
:103FC0000425191D072901D2002300E0DB1E01266C
:103FD00006FA05F1491E214099409E40761E164082
:103FE0003143F0BC01F0A2BD0CED00E0064900F049
:103FF000070208684FF6FF03184040EA0220034A10
:1040000010430860704700000CED00E00000FA0566
:104010002DE9F047DFF8548105460E46D8F8000038
:1040200000F00700B0420CD2D8F8001021F00701D0
:104030003143C8F80010D8F8000000F00700B04283
:104040006FD128684A4C810712D5400703D56068B4
:1040500040F4E06060602878000703D5606840F4B1
:10406000605060606068A96820F0F00008436060FC
:104070002878C00744D06868012816D02168022833
:1040800016D0890700294CDA616821F00301014349
:104090006160FFF72DFF6968074641F2883001290A
:1040A0000ED00229814618D026E021688903E9E76D
:1040B0008901E7E7FFF71CFFC11B494501D918E05B
:1040C00081466068C0F381000128F3D118E000BF89
:1040D000FFF70EFFC11B49450BD86068C0F3810094
:1040E0000228F5D10CE000BFFFF702FFC11B4945D4
:1040F00002D90320BDE8F087606810F00C0FF3D1FF
:10410000D8F80010404601F00701B1420BD9016810
:1041100021F0070131430160006800F00700B04260
:1041200001D00120E6E72878400705D56068E968F6
:1041300020F4E060084360602878000706D56068D6
:10414000296920F4605040EAC100606000F016F870
:104150006168084AC1F30311515CC8400649086010
:104160000020FFF7E5FE0020C4E700000020024029
:10417000001002401ED600081400002012A185B0D5
:104180000FC98DE80F0014A0144A0068049051680C
:10419000134801F00C03042B10D0082B0ED1C1F3EF
:1041A0008343C9031DF803000AD5516804AAC1F36B
:1041B0004041515C0A4A5043B0FBF1F005B07047F2
:1041C00008494843FAE70000020304050607080906
:1041D0000A0B0C0D0E0F101001020000001002401F
:1041E00000127A0000093D002DE9F84F04460078DE
:1041F000B94DC00748D06868C0F38100012807D0D6
:104200006868C0F38100022809D16868C00306D538
:104210002868800338D5606800286FD034E0606873
:10422000B0F5803F0BD010B1B0F5A02F11D02868A9
:1042300020F480302860286820F4802002E028687C
:1042400040F480302860606888B1FFF751FE064670
:1042500009E0286840F480202860F0E7FFF748FE76
:10426000801B642875D828688003F7D50CE0FFF719
:104270003FFE064605E000BFFFF73AFE801B6428BC
:10428000F0D828688003F7D42078944E80074FF048
:1042900001094FF000083BD5686810F00C0F07D0FB
:1042A0006868C0F38100022809D16868C00306D499
:1042B0002868800714D5206901281FD110E02069E3
:1042C000B0B1C6F80090FFF713FE074605E000BF47
:1042D000FFF70EFEC01B0228C4D828688007F7D558
:1042E0002868616920F0F80040EAC10028600FE00A
:1042F000C6F80080FFF7FCFD074606E0E9E000BFD6
:10430000FFF7F6FDC01B022823D828688007F7D4E2
:10431000207800072CD57248A169D9B1C0F8009067
:10432000FFF7E6FD074604E0FFF7E2FDC01B0228A9
:104330000FD8686A8007F7D56A484FF4FA510068C9
:10434000B0FBF1F0009000BF0098411E0091FAD23E
:104350000EE080E0C0F80080FFF7CAFD074604E0E9
:10436000FFF7C6FDC01B022875D8686A8007F7D41E
:104370002078400760D5E8690027C00008D4E869C4
:1043800040F08050E861E869012700F0805000901B
:1043900055480168C90513D40168834641F480710A
:1043A0000160FFF7A5FD824606E000BFFFF7A0FD14
:1043B000A0EB0A0064284ED8DBF80000C005F5D554
:1043C000E06801280AD008B1052813D0286A20F037
:1043D00001002862286A20F0040002E0286A40F008
:1043E00001002862E06841F2883B98B1FFF780FD48
:1043F00082460BE0286A40F004002862EEE700BF26
:10440000FFF776FDA0EB0A0159455AD8286A8007C4
:10441000F6D50CE0FFF76CFD824605E0FFF768FD7E
:10442000A0EB0A0159454CD8286A8007F6D41FB181
:10443000E86920F08050E861E06988B36968C1F3F9
:104440008101022945D00228C6F8608004D0FFF718
:104450004FFD044638E034E0FFF74AFD074604E02C
:10446000FFF746FDC01B02282BD828688001F7D42F
:10447000206AB0F5803F05D16868A16820F400305B
:1044800008436860D4E908010843696821F474119D
:1044900008436860C6F86090FFF72AFD044606E00E
:1044A00015E000BFFFF724FD001B022809D828688B
:1044B0008001F7D50BE000BFFFF71AFD001B0228B3
:1044C00002D90320BDE8F88F28688001F4D40020C9
:1044D000F8E70120F6E70000001002400000424229
:1044E00080044242140000200070004010B5401EBD
:1044F000B0F1807F01D3012010BD4FF0E024606156
:104500000F21601701F012FB0020A061072020613D
:10451000002010BDFEE7000002490A68086010464E
:1045200070470000B40200200449054A0968497C2C
:1045300052F8211009690968084700004C00002062
:10454000640000202DE9F04F05468DB07B48DDF872
:1045500060901A9C00681E4617464FF0000A78B11A
:104560001B9B199ACDF808900593CDE90324DDE94A
:104570001623CDE90023046833463A46284680E0F6
:10458000DDE9160201EB060805EB070C1043A8F164
:104590000108ACF1010C012806D0C9F10800059012
:1045A000002002910990C6E065480268B2F90A301D
:1045B000581A002806DD361A002E63DD1946199BAD
:1045C00000FB0344B2F90E00A8EB0000002802DD56
:1045D000361A002E56DDB2F90C00ACEB00000028B4
:1045E00000DD3F1AB2F908300020AB4235DD581B20
:1045F0003F1A4B46B9F1080F26D006DC012B0BD031
:10460000022B11D0042B28D116E0102B1ED0182B12
:104610001FD0202B21D11CE020F0070304EBE00485
:104620001D4400F0070018E020F0030304EBA00491
:104630001D4400F0030010E020F0010304EB6004CF
:104640001D4400F0010008E0044404E004EB4004D1
:1046500001E004EB800405440020002F12DD1B9BC9
:10466000DDF864C0CDE90403CDE90069CDE902C4F9
:10467000527C34483B4650F82200C26854680A46CF
:104680002946A0470DB0BDE8F08F1799029808445D
:104690000C902B49401E00900A68B2F90A30834200
:1046A00041DCB2F90E10029881423CDB4FF0000B66
:1046B000D84603950A9434E0BBF1000F05D10A985F
:1046C0004FF0080B10F801AB0A900599ABEB090B02
:1046D0003AFA01F00AFA09F101F0FF0A04D1184987
:1046E0000968097C890716D415490968C96B0A68E5
:1046F0000B921B9A0AB152F8200008601699039891
:10470000009B4218521E029900F0A8F80C490B9821
:104710000968C96B08600399169808F101080844F4
:104720000390B845C8DB0998401C09900C9802908A
:10473000199804440998B042A7DBA3E78800002039
:104740004C00002064000020F0B40C4612490968B7
:10475000B1F90A30A3421CDCB1F90E30A34218DBD8
:10476000B1F90830834200DD1846B1F90C309342AC
:1047700000DA1A4682420CDB4B7C084951F8235080
:1047800013462246E9688E6801462846B446F0BCC6
:104790006047F0BC704700004C000020640000201F
:1047A0000A46174930B40968B1F90A30934225DC4A
:1047B000B1F90E30934221DBB1F9083083421DDCA0
:1047C000B1F90C30834219DB0B7C0E4CDB0709D0AE
:1047D000497C54F82130D968CC690146A44630BCE4
:1047E00018466047CB6B497C1B6854F82140E16850
:1047F0008D6901462046AC4630BC604730BC7047EE
:104800004C00002064000020124B30B41B68B3F948
:10481000084084421CDCB3F90C40844218DBB3F935
:104820000A408C4200DD2146B3F90E40944200DA82
:1048300022468A420CDB5C7C074B53F82440E36839
:10484000DD6813460A4601462046AC4630BC604748
:1048500030BC70474C0000206400002038B5134C79
:104860002468B4F90850854200DD2846B4F90C509C
:10487000954200DA2A46824217DBB4F90A508D428B
:1048800000DD2946B4F90E509D4200DA2B468B42DA
:104890000BDB0093647C064B53F82440E3681D69EE
:1048A00013460A4601462046A84738BD4C00002062
:1048B00064000020082105F063BF00000248006882
:1048C000806B0068704700004C00002002480068C0
:1048D000C06B0068704700004C00002002480921AE
:1048E0000068407C05F04CBF4C000020092105F019
:1048F00047BF70B500252C462046FDF713F900B1DF
:104900006D1C641C022CF7DB284670BD0248006851
:10491000407C00F003B800004C00002010B5FDF70B
:1049200001F9002805D0C168CA6ABDE8104002211B
:10493000104710BD032105F023BF032006F0ACB8DB
:10494000042105F01DBF0000024801210068407CE1
:1049500005F016BF4C0000200148006870470000B9
:1049600090000020012105F00BBF012006F094B853
:10497000024802210068407C05F002BF4C00002084
:10498000014840687047000090000020022105F0B7
:10499000F7BE022006F080B8AFF300802DE9F041A9
:1049A000002809D0876837B10D4E716819B10468C5
:1049B000B4F5807F02DD0020BDE8F08130688442DC
:1049C00000DD0446002507E057F82500FFF7ACFDA1
:1049D000716841F825006D1CA542F5DB7068EBE7B6
:1049E000C40100200449054A0968497C52F8211095
:1049F00009694968084700004C0000206400002055
:104A000010B5084A084B00F01F01C0F34514C0F36D
:104A1000C420515C1B5D105C01EB032101EB0040E5
:104A200010BD0000E4F0000804F100087047704772
:104A300010B50A4C606860B920688000FCF76EFD14
:104A4000606040B104F10801054808600846FFF7BE
:104A500073F8002010BD012010BD0000C40100202B
:104A6000A9B200082DE9F047FFF743FF07460024ED
:104A7000DFF860802AE02046FDF754F828B3D8F824
:104A8000000090F8119044742046FFF713FF0828A7
:104A900017DC1148114950F824000069884210D0F1
:104AA0002046FFF723FF0646002508E0E8B2FFF79F
:104AB00099FF0246E9B2204600F054F96D1CB54258
:104AC000F4DBD8F8001081F81190641CBC42D2DBF2
:104AD000BDE8F0874C0000206400002040FC000886
:104AE0002DE9FF4F83B01646DDE910408B46C068C4
:104AF0004769426A7AB1012111A8904705000AD09E
:104B00000698CDE9000433465A4603991198A84700
:104B100007B0BDE8F08F57480068407CFDF7FEF90C
:104B20008246082801DC012005E0BAF1100F01DC03
:104B3000022000E004208046002596E04046B8F1BF
:104B4000010F05D0022871D0B8F1040F25D17CE007
:104B5000BAF1090F21D2DFE80AF08605213F3F595B
:104B600059595900039815E001465A461198B8471B
:104B7000C5F1070188404FF67F722178EA40114065
:104B800001436D1C217004EBE50425F0070005418D
:104B900009F101008146B042E6DD64E0039817E0C8
:104BA00001465A461198B8470621A1EB45018840B5
:104BB0006B004FF63F722178DA40114001436D1CC3
:104BC000217004EBA50425F00300054109F1010063
:104BD0008146B042E4DD46E0039813E001465A46C0
:104BE0001198B8470421A1EB850188402178AB00DA
:104BF0000F229A401140014321702C4485F0010599
:104C000009F101008146B042E8DD2CE0DDF80C90AE
:104C100007E001465A461198B847207009F101098A
:104C200044444846B145F4DD1DE0FFE7DDF80C9053
:104C300007E001465A461198B847208009F101095A
:104C400044444846B145F4DD0DE0DDF80C9007E042
:104C500001465A461198B847206009F101094444B9
:104C60004846B145F4DD0BF1010B06998B457FF702
:104C700065AF4DE74C00002010B50D4C0D49206884
:104C8000407C51F8200048B1C16811B1096804297D
:104C900001D00068F7E708B1FCF72CFF206800217D
:104CA000016600F108014161BDE8104000F02EB836
:104CB0004C00002064000020014909684968084749
:104CC000C0010020044909680A7C520701D5C96B5C
:104CD00000E0896B086070474C0000207CB5094CEF
:104CE00005462068417C084850F82100C1680A6BDD
:104CF0006946904720686A4629460830FEF71DFE3F
:104D00007CBD00004C0000206400002004480168C5
:104D100004484A7C083150F82200C268126B1047E0
:104D20004C00002064000020014909680968084718
:104D3000C0010020044909680A7C520701D5896B2B
:104D400000E0C96B086070474C000020014AC2E9CE
:104D500000017047900000200149096889680847F0
:104D6000C0010020F8B515460E460124FCF7DAFE16
:104D7000009058B1C0681021426A6846904703000D
:104D800004D02A4631460098984700242046F8BDB2
:104D9000F8B515460E460124FCF7C4FE009058B144
:104DA000C0680B21426A68469047030004D02A4637
:104DB00031460098984700242046F8BDF8B51546BE
:104DC0000E460124FCF7AEFE009058B1C0680A21DF
:104DD000426A68469047030004D02A46314600984C
:104DE000984700242046F8BD10B5074C2068006B9A
:104DF000FFF79AFBFFF79EFF2068406BFFF794FBDD
:104E0000BDE81040FFF75EBF4C00002010B5A0B019
:104E100014211AA8FBF7CFF968216846FBF7CBF9F4
:104E200000231A4612491348FCF70AFE0446A02242
:104E300080210020FFF7ACFFA02280210020FFF797
:104E4000BDFF05201C901AA92046FCF711F80A485E
:104E500000900A4801900A4803900A4807900A4BBC
:104E60000A4A69462046FCF723F820B010BD00002E
:104E700088D60008A0D60008BD590008A15900082E
:104E8000A55900089B590008510F0008E50E0008BD
:104E900010B5012902D04FF0FF3010BD07F09EFF82
:104EA000002010BD2DE9FF4F8DB01746674ADDF891
:104EB00070901E9E209812681D4600248AB11D9B8A
:104EC0001F98CDE90293CDE90460DDE91A03CDE92D
:104ED000000314682B463A460D98A04711B0BDE870
:104EE000F08F0D9A01EB050802EB070CDDE91A23A0
:104EF0001A43A8F10108ACF1010C012A06D0C9F14E
:104F000008004FF0000B029105909CE0504A126897
:104F1000B2F90A40631A002B06DDED1A002DDDDD23
:104F200021461D9C03FB0466B2F90E30A8EB030377
:104F3000002B02DDED1A002DD0DDB2F90C30ACEB08
:104F40000303002B00DDFF1A0D9B1C1AB2F9083079
:104F5000A3420DDDA3EB040C0CEB0003181A20F0A8
:104F600007000444A7EB0C0706EBE30603F0070079
:104F7000002FB3DDDDF874C01F9BCDE902C6CDE97B
:104F80000403CDE90059527C32483B4650F82200D8
:104F9000C26855680A462146A8479FE71B990298B0
:104FA00008440C902A49401E00900A68B2F90A3061
:104FB000834242DCB2F90E10029881423DDB4FF091
:104FC000000A0D980A96D046039034E0BAF1000F1B
:104FD00005D10A984FF0080A10F8014B0A9005997C
:104FE000AAEB090A34FA01F004FA09F4E4B204D194
:104FF00017490968097C890717D415490968C96BDD
:105000000A680B921F9A0AB152F8200008600399AF
:105010001A98009B0A18DDE90210521EFFF71EFCC9
:105020000B490B980968C96B086003991A9808F135
:10503000010808440390B845C8DB0C9802901D98FD
:105040000BF1010B0644AB45A8DB47E788000020C5
:105050004C00002064000020002818D0410817D020
:10506000810817D0C10817D0010917D0410917D0FE
:10507000010A17D0410A17D0010B15D0C10B13D06C
:10508000010C11D0810C11D0000E11D020207047DE
:1050900001207047022070470320704704207047AA
:1050A0000520704708207047102070471220704775
:1050B0001820704700B50022FFF7CEFF012804D06A
:1050C000811E062903D808220BE0012209E0A0F185
:1050D0000901072901D8102203E011380F2800D850
:1050E0002022104600BD02004FF0000002D0104602
:1050F00002F032BE7047F0B587B006004FF00000F6
:105100000D460490059006903DD0002D3BD03046D2
:10511000FCF78AFA0090476B6846FCF7DDFA2846F0
:10512000FBF754F800F10C0204A93846FCF7F8FA32
:10513000002828D13846FCF75BFB401E0446014698
:105140003846FCF771FB4FF0FF3103904160294670
:105150000930FBF742F803A8FCF7BEFA3046FCF72B
:1051600063FA2146009000F0C7FB2146009800F04A
:1051700040FB6846FCF7B0FA304600F00FFB2146D2
:10518000304600F077FB07B0F0BDF0B54568044647
:1051900001468DB0284600F0D4FF002820680BD0CF
:1051A00010287AD00FDC05286DD00B286CD00E2883
:1051B0006BD00F2840D144E01E286CD1E068002855
:1051C00069D10B2164E0112840D0262803D0B0F526
:1051D000107FEFD14FE0E068052802D00628E9D122
:1051E0002BE0284601F032FC0146A068814209D13B
:1051F00009A901F01AFC2846FCF716FA01900A9951
:1052000001640FE0284601F018FC0146A0688142C5
:1052100012D109A901F009FC2846FCF705FA019012
:105220000A99C16401A8FCF757FA284600F018FB58
:105230000A21284605F09EFF8CE0284600F0AEFAD1
:1052400088E02146284606F055F883E0E068017AB8
:1052500000297FD0D0E90012284605F058FB040051
:1052600019D40146284607F01EF82146284600F0CA
:1052700039FA01210CE0E06848B1007A00280AD12F
:10528000022105E009E05FE028E032E003E00321CD
:10529000284605F06FFF0DB0F0BDE4682846FCF726
:1052A000C3F90390D0F88C70066C03A8FCF714FACD
:1052B000002FF0D0002CEED0D4E90012284605F0E3
:1052C00026FB0400E7D4284605F015FC3044A04234
:1052D000E1DD2146284600F005FADCE72846FCF728
:1052E000A3F90090406BFCF75BFA6846FCF7F4F911
:1052F00030E0E0684168002905DD01682846FFF7D5
:10530000F2FE0028C7D1201D06AB07C883E80700BE
:105310002120059005AF2846FCF786F90290D0F8C9
:105320008C601EB9284601F064FB064602A807956A
:10533000FCF7D2F93946304602F018FC284601F055
:1053400000FD0028A7D005E0284600F027FA2846EF
:1053500001F099FC204601F085F99CE7F0B587B093
:1053600085691446B0F90860478A0022CDE9042512
:1053700003968DE88600B0F90C10B0F91050B0F922
:105380000E20B0F90A00194420442B4600F002F820
:1053900007B0F0BD2DE9FF410C46DDE90E61DDE906
:1053A0000A5CDFF868E06C310D9FCDE902E1CDE9E0
:1053B000005C214601F0A8F8050023D0FCF7EDF9C8
:1053C000040028461CD0FCF72FF900901022394623
:1053D000446300F0EDFF009838220D495430FAF78D
:1053E000C3FE00990B4888636846FCF775F91EB147
:1053F0003146284600F0BDF9284600F0CFF901E01B
:1054000001F064F904B02846BDE8F0818B51000832
:10541000EC000020D9540008002803D04FF0FF31E1
:1054200005F04DBE704738B54FF0FF3438B1FCF78A
:10543000FBF80090B0F990406846FCF74DF9204623
:1054400038BD002802D0012105F039BE70472DE992
:10545000FC410C4606002AD0FCF7E6F8009000F06C
:10546000E7F90546AC4233DA002C22DA0024671E45
:105470000EE02146009800F03FFA00982146406B6C
:10548000FCF7D2F90190476001A8FCF725F9641CEC
:10549000AC42EEDB00990020A1F896006846FCF7CC
:1054A0001BF9304600F07AF9304600F0D9F9BDE832
:1054B000FC812146009800F01FFA6846FCF70CF9C1
:1054C000304600F06BF92146304600F0FFF9EEE778
:1054D0006846FCF701F9EAE7F0B50446406889B090
:1054E00001282FD01A2802D01B287DD119E020686E
:1054F000FCF79AF80090406DFDF760FA05466846A3
:10550000FCF7EAF801AAA168206800F094F9FCF71A
:105510003DFD044601A8FCF7DFF82846FDF74EFAEA
:105520000DE02068FCF780F80090406DFCF73AFD34
:105530000099B1F8941044186846FCF7CDF820465D
:1055400009B0F0BDA7682068FCF76EF80290406BC8
:105550003946FCF759F9FCF767F8079005A801F000
:10556000DFF9FCF709FD06460798007AC0F3400111
:1055700000F00102029890F892305B0703D519B948
:1055800062B900250DE009B103250AE0B0F99010D9
:10559000B942F6D190F83210C90701D0022500E0D7
:1055A000012500EB8500C06DFFF786FB029800EB3C
:1055B0008500C06EFFF7B8FB0220FDF73FFAFCF74D
:1055C0007DF9A08AADF80200218A079A491C09B228
:1055D000ADF8001053881844401EADF8060002983C
:1055E00090F88800800700E077E010D003A92068D9
:1055F00001F0A6F9BDF80000BDF810100844BDF890
:105600000C10401A0299C96A0988401A02E01088F1
:105610000844401EADF8040007A8FCF75DF807AA8F
:105620003946206800F007F90299B1F988206946E7
:10563000FCF79FFA07A8FCF74FF8029890F8921031
:10564000490747D5B0F99010B94243D1218AADF846
:105650000C10BDF81810ADF8101090F8881011F06B
:105660000C0205D01E49042A1BD00C2A26D104E0C6
:10567000A18AADF80E10A18A0EE00968496CB1F953
:105680000620B1F90210511A891BA28A01EBD171CF
:1056900002EB6101ADF80E10761E3144ADF8121028
:1056A0000CE00968496CCA884988511AA28A1144D9
:1056B000ADF81210891B491CADF80E1000EB8500E7
:1056C0006FF07F41C06D081AFFF72EFB002103A881
:1056D000FCF776FA02A8FBF7FFFF002030E7000096
:1056E0004C0000207CB50C4606003DD0FBF79CFF2B
:1056F000009000F09DF800B1401E844200DD044699
:105700004FF0FF35002C01DA2C460FE000982146BF
:10571000406BFCF779F848B1FBF786FF0190007AFF
:10572000800700D52C4601A8FBF7D6FF0098B0F9FA
:105730009050A54219D0A0F890406846FBF7CCFFE6
:10574000304606F00DFE18B1304600F089F807E04B
:105750002946304600F08EF82146304600F08AF89F
:105760000421304605F006FD7CBD6846FBF7B4FF1A
:105770007CBD70B50D4606000FD04FF0FF31FFF72E
:1057800066FE002D09D0002403E03046FFF7B3FC8D
:10579000641C55F824100029F7D170BD3EB50446AD
:1057A00005F0FFFB2046FBF73FFF009000F040F8BC
:1057B0000099C863204605F09EF90099486401A944
:1057C000204601F0BDF8204604F0D8FE01460098BE
:1057D0008164BDF90810BDF90420891A491C0165CE
:1057E000204606F0BDFD04466846FBF775FF2046DF
:1057F0003EBDF8B50446406BFCF716F80090606DAE
:10580000FDF7DCF8064600980930FCF7BFFB0546BB
:105810003046FDF7D3F80098AEB206806846FBF735
:105820005BFFB4F89600A84201DAA4F89660F8BDD0
:10583000406BFBF7DDBFF8B516460C460025FBF7BD
:10584000F3FE0090406B2146FBF7EEFF04466846EE
:10585000FBF742FF0CB104F1090528463460F8BD9E
:105860001CB50446694601F06BF86946204601F014
:10587000CFF91CBDFEB50F00054626D405F07BF818
:10588000040022D42846FBF7CFFE0290066C02A843
:10589000FBF722FF3146284605F06DF8261A3946F7
:1058A000284605F0C7F804466946284601F048F83E
:1058B000BDF80200641E81190819ADF80210ADF898
:1058C00006006946284601F0A3F9FEBD7CB50546F1
:1058D000002910DB05F04FF804000CD46946284677
:1058E00001F02EF8BDF8020069462044ADF8020030
:1058F000284601F08DF97CBD08B5406BFBF794FF9D
:10590000009010B10021018041806846FBF7E4FE61
:1059100008BD00002DE9F0470E460446FF2100F0C7
:10592000C1FF8146FE21204600F0BCFF054659EA32
:10593000050014D000246FF0704800BF06EB840708
:10594000FA6F424508D02146484600F020FB214628
:105950002846FA6F00F01BFB641C032CEED3BDE855
:10596000F08770B591F89340054614B900F006FB36
:105970000446FF21284600F095FF0646FE212846F2
:1059800000F090FF05462146304600F03FFB2146DF
:105990002846BDE8704000F039BB491EFDD2704773
:1059A00007F0A0BC70B50C46051904E0281B10F8E0
:1059B000010C07F097FC641EF8D270BD07F04ABCDA
:1059C000074910B5054808600846FEF772F9002837
:1059D00003D0BDE81040FAF75ABC10BD00300240B9
:1059E000000000202DE9F04F85B0002448480094C5
:1059F000019402940394816941F0400181618169BD
:105A000001F040010491816941F0100181618169D7
:105A100001F010010491816941F004018161816903
:105A200001F004010491816941F0080181618169FB
:105A300001F008010491816941F0200181618069D0
:105A40004FF6FD7500F020000490002229463148F1
:105A5000FEF748FADFF8C0A04FF441780022414633
:105A60005046FEF73FFADFF8B4B04FF480590022F9
:105A700049465846FEF736FA0127CDE90057022578
:105A800069462448CDE90245FEF738F94FF6FF7024
:105A90000326CDE9000669462148FEF72FF949F6AD
:105AA000FF70CDE9000669461E48FEF727F94FF65C
:105AB000F940CDE9000669465046FEF71FF9CDE9E9
:105AC0000054694650460294FEF718F9CDE9008764
:105AD00069465046CDE90245FEF710F94EF6FF70D3
