:020000040800F2
:1000000010040020450100085B0B0008110A0008DD
:10001000590B0008C10100081D0C00080000000079
:100020000000000000000000000000007F0B00083E
:10003000C3010008000000007D0B0008810B0008D0
:100040005F0100085F0100085F0100085F01000810
:100050005F0100085F0100085F0100085F01000800
:100060005F0100085F0100085F0100085F010008F0
:100070005F0100085F0100085F0100085F010008E0
:100080005F0100085F0100085F0100085F010008D0
:100090005F0100085F0100085F0100085F010008C0
:1000A0005F0100085F0100085F0100085F010008B0
:1000B0005F0100085F0100085F0100085F010008A0
:1000C0005F0100085F0100085F0100085F01000890
:1000D0005F0100085F0100085F0100085F01000880
:1000E0005F0100085F0100085F0100085F01000870
:1000F0005F0100085F0100085F0100085F01000860
:100100005F0100085F0100085F0100085F0100084F
:100110005F0100085F0100085F0100085F0100083F
:100120005F0100085F0100085F0100085F0100082F
:10013000DFF80CD000F032F800480047C113000887
:10014000100400200648804706480047FEE7FEE707
:10015000FEE7FEE7FEE7FEE7FEE7FEE7FEE7FEE777
:10016000D50B000831010008D2B201E000F8012BE4
:10017000491EFBD270470022F6E710B513460A4627
:1001800004461946FFF7F0FF204610BD421C10F848
:10019000011B0029FBD1801A70470000064C074D57
:1001A00006E0E06840F0010394E807009847103447
:1001B000AC42F6D3FFF7C0FF60B8000880B8000873
:1001C000FEE7704770B5044600F010F90546601C64
:1001D00002D004480078044400F008F9401BA04213
:1001E000FAD370BD000000202DE9F84FDFF8B8A168
:1001F00000220AF1040B144601274FF00F090BF1FE
:10020000040E00BF0B6807FA04F52B40AB4274D113
:10021000DFF898C14E68A6EB0C0866452BD00DDCC4
:10022000032E34D005DC36B3012E19D0022E2FD187
:100230001BE0112E16D0122E2AD119E0B8F5881F16
:1002400019D006DCB8F5803F15D0B8F5801F1FD156
:1002500011E0B8F5001F0ED0B8F5041F18D10AE060
:10026000CA6815E0CA68121D12E0CA6808320FE0B9
:10027000CA680C320CE08A682AB1012A4FF00802E1
:1002800003D0456104E0042202E0056100E00022A1
:10029000FF2B01D8064601E000F104064FEA840571
:1002A00001D9A5F12005D6F800C009FA05F82CEA15
:1002B000080C02FA05F54CEA050CC6F800C04D68BA
:1002C000ED006AD53A4DAE6946F00106AE61AD6902
:1002D00024F0030605F001050095364D06EB050CEC
:1002E000DCF80850A6074FEA167809FA08F6B54375
:1002F000314EB04202D100261AE04EE02F4EB042FD
:1003000001D1012614E02E4EB04201D102260FE0A9
:100310002C4EB04201D103260AE02B4EB04201D14F
:10032000042605E0294EB04201D1052600E006264C
:1003300006FA08F62E43CCF808604D68DAF800603B
:10034000ED03554601D51E4300E09E432E604D68E7
:10035000AD0305D5DBF800601E43CBF8006004E078
:10036000DBF800509D43CBF800504D68DEF800608C
:10037000ED02754601D51E4300E09E432E604D6898
:10038000AD0205D5084D0C352E681E432E6004E0E5
:10039000054E0C3635689D433560641C102CFFF407
:1003A00031AFBDE8F88F00000004014000001110DB
:1003B000001002400000014000080140000C014014
:1003C000001001400014014000180140001C0140D1
:1003D0008068084000D001207047C2684A40C2606F
:1003E00070470AB1016170470904FBE70148806862
:1003F0007047000000000020024881680278114424
:100400008160704700000020074810B5016841F086
:1004100010010160032000F067F8002000F006F8EA
:1004200000F024F8002010BD0020024070B50D4DF2
:1004300004464FF47A712878B1FBF0F00A49096854
:10044000B1FBF0F000F0D0FA48B9102C07D200222E
:100450002146501E00F028F800206C6070BD01207D
:1004600070BD0000000000200C0000200C4808B502
:10047000816941F001018161816901F0010100910F
:10048000C16941F08051C161C06900F080500090A5
:100490000448416821F0E06141F00071416008BD0D
:1004A0000010024000000140F0B40E4B1B680C46E7
:1004B000C3F30223C3F10705042D00D90425191D38
:1004C000072901D2002300E0DB1E012606FA05F110
:1004D000491E214099409E40761E16403143F0BC93
:1004E00000F03CBB0CED00E0064900F00702086894
:1004F0004FF6FF03184040EA0220034A1043086009
:10050000704700000CED00E00000FA052DE9F0470F
:10051000DFF8548105460E46D8F8000000F00700C9
:10052000B0420CD2D8F8001021F007013143C8F8CE
:100530000010D8F8000000F00700B0426FD1286822
:100540004A4C810712D5400703D5606840F4E0604B
:1005500060602878000703D5606840F460506060F0
:100560006068A96820F0F000084360602878C00740
:1005700044D06868012816D02168022816D089075F
:1005800000294CDA616821F0030101436160FFF743
:100590002DFF6968074641F2883001290ED00229F3
:1005A000814618D026E021688903E9E78901E7E759
:1005B000FFF71CFFC11B494501D918E0814660685F
:1005C000C0F381000128F3D118E000BFFFF70EFF50
:1005D000C11B49450BD86068C0F381000228F5D1E2
:1005E0000CE000BFFFF702FFC11B494502D9032001
:1005F000BDE8F087606810F00C0FF3D1D8F8001058
:10060000404601F00701B1420BD9016821F0070112
:1006100031430160006800F00700B04201D00120C2
:10062000E6E72878400705D56068E96820F4E060CF
:10063000084360602878000706D56068296920F4BF
:10064000605040EAC100606000F016F86168084A36
:10065000C1F30311515CC840064908600020FFF750
:10066000E5FE0020C4E70000002002400010024028
:1006700050B800080C00002012A185B00FC98DE809
:100680000F0014A0144A006804905168134801F048
:100690000C03042B10D0082B0ED1C1F38343C903E4
:1006A0001DF803000AD5516804AAC1F34041515C0A
:1006B0000A4A5043B0FBF1F005B07047084948437F
:1006C000FAE7000002030405060708090A0B0C0DEF
:1006D0000E0F1010010200000010024000127A00FC
:1006E00000093D002DE9F84F04460078B94DC007D8
:1006F00048D06868C0F38100012807D06868C0F35B
:100700008100022809D16868C00306D528688003E3
:1007100038D5606800286FD034E06068B0F5803F5D
:100720000BD010B1B0F5A02F11D0286820F4803084
:100730002860286820F4802002E0286840F4803097
:100740002860606888B1FFF751FE064609E0286816
:1007500040F480202860F0E7FFF748FE801B642803
:1007600075D828688003F7D50CE0FFF73FFE0646F2
:1007700005E000BFFFF73AFE801B6428F0D8286828
:100780008003F7D42078944E80074FF001094FF092
:1007900000083BD5686810F00C0F07D06868C0F3FC
:1007A0008100022809D16868C00306D42868800740
:1007B00014D5206901281FD110E02069B0B1C6F816
:1007C0000090FFF713FE074605E000BFFFF70EFE9F
:1007D000C01B0228C4D828688007F7D5286861693B
:1007E00020F0F80040EAC10028600FE0C6F8008061
:1007F000FFF7FCFD074606E0E9E000BFFFF7F6FD66
:10080000C01B022823D828688007F7D42078000767
:100810002CD57248A169D9B1C0F80090FFF7E6FD68
:10082000074604E0FFF7E2FDC01B02280FD8686A04
:100830008007F7D56A484FF4FA510068B0FBF1F031
:10084000009000BF0098411E0091FAD20EE080E0B7
:10085000C0F80080FFF7CAFD074604E0FFF7C6FDB9
:10086000C01B022875D8686A8007F7D42078400733
:1008700060D5E8690027C00008D4E86940F08050DE
:10088000E861E869012700F0805000905548016850
:10089000C90513D40168834641F480710160FFF7F4
:1008A000A5FD824606E000BFFFF7A0FDA0EB0A0011
:1008B00064284ED8DBF80000C005F5D5E0680128B3
:1008C0000AD008B1052813D0286A20F00100286258
:1008D000286A20F0040002E0286A40F00100286243
:1008E000E06841F2883B98B1FFF780FD82460BE05B
:1008F000286A40F004002862EEE700BFFFF776FDAB
:10090000A0EB0A0159455AD8286A8007F6D50CE0B1
:10091000FFF76CFD824605E0FFF768FDA0EB0A01DA
:1009200059454CD8286A8007F6D41FB1E86920F0F1
:100930008050E861E06988B36968C1F381010229E8
:1009400045D00228C6F8608004D0FFF74FFD04466A
:1009500038E034E0FFF74AFD074604E0FFF746FDC4
:10096000C01B02282BD828688001F7D4206AB0F574
:10097000803F05D16868A16820F4003008436860B2
:10098000D4E908010843696821F4741108436860D8
:10099000C6F86090FFF72AFD044606E015E000BFA8
:1009A000FFF724FD001B022809D828688001F7D52D
:1009B0000BE000BFFFF71AFD001B022802D903203D
:1009C000BDE8F88F28688001F4D40020F8E7012002
:1009D000F6E700000010024000004242800442425C
:1009E0000C0000200070004010B5401EB0F1807F68
:1009F00001D3012010BD4FF0E02460610F2160178A
:100A000000F0ACF80020A06107202061002010BD9C
:100A1000FEE700002DE9F04F85B00024484800941F
:100A2000019402940394816941F0400181618169DC
:100A300001F040010491816941F0100181618169F7
:100A400001F010010491816941F004018161816923
:100A500001F004010491816941F00801816181691B
:100A600001F008010491816941F0200181618069F0
:100A70004FF6FD7500F02000049000222946314811
:100A8000FFF7AFFCDFF8C0A04FF4417800224146E9
:100A90005046FFF7A6FCDFF8B4B04FF480590022AF
:100AA00049465846FFF79DFC0127CDE9005702252E
:100AB00069462448CDE90245FFF796FB4FF6FF70E3
:100AC0000326CDE9000669462148FFF78DFB49F66C
:100AD000FF70CDE9000669461E48FFF785FB4FF61B
:100AE000F940CDE9000669465046FFF77DFBCDE9A8
:100AF0000054694650460294FFF776FBCDE9008723
:100B000069465046CDE90245FFF76EFB4EF6FF7091
:100B1000CDE9000669465846FFF766FBCDE9009728
:100B200069465846CDE90245FFF75EFBCDE9005620
:100B300069460448FFF758FB05B0BDE8F08F000098
:100B40000010024000180140000C01400014014058
:100B50000010014000080140FEE770470907090E38
:100B6000002806DA00F00F0000F1E02080F8141DE4
:100B7000704700F1E02080F800147047704770471C
:100B8000FFF73ABC30B58FB028216846FFF7F3FA7B
:100B900014210AA8FFF7EFFA01210804CDE900109B
:100BA0000024029402250491CDE907504FF4E0108F
:100BB00009906846FFF796FD0F20CDE90A05680207
:100BC000CDE90C4002210AA80E94FFF79FFC0FB05C
:100BD00030BD00000D48016841F00101016041682D
:100BE0000B4A1140416001680A4A114001600168E6
:100BF00021F480210160416821F4FE0141604FF43D
:100C00001F0181600449C003086070470010024062
:100C10000000FFF8FFFFF6FE08ED00E0FEE702E04F
:100C200008C8121F08C1002AFAD170477047002077
:100C300001E001C1121F002AFBD1704710B5A1F1DC
:100C400020025E2A0BD8074A01EB410102EB810327
:100C500001460C22184600F029FC012010BD00209E
:100C600010BD0000C06B060010B5A1F120025E2A85
:100C700009D8064A02EB011301461022184600F07B
:100C800015FC012010BD002010BD0000C0B5030000
:100C900070B50D46097806466878A1F1A102022ACE
:100CA0000BD8A12809D3C2EB021101EB421100EBD2
:100CB000410000EB4000174910E0A92911D0A1F133
:100CC000B002472A13D8A12811D3C2EB021101EBBD
:100CD000421100EB4100104900EB400001EBC00461
:100CE00012E0A12803D300EB40000C49F6E73046A0
:100CF000FFF7BAFF002806D0697806F11000FFF769
:100D0000B3FF08B1012070BD18223146204600F023
:100D1000CDFBF7E768C00300A8E30300D8DA0300BF
:100D200070B50D46097806466878A1F1A4030A4615
:100D3000042B03D8A12801D300242EE0A1F1A103A4
:100D4000082B0BD8A12809D3C3EB031101EB4311E6
:100D500000EB41004401A4F5A1541EE0A2F1B00152
:100D600047290CD8A1280AD3C1EB011202EB41118B
:100D700000EB410045F2A05101EB40140DE011469B
:100D80003046FFF771FF002806D0697806F11000A1
:100D9000FFF76AFF08B1012070BD202231462046CE
:100DA00000F084FBF7E70000054B4FF48071012849
:100DB00003D000221846FFF714BB0122FAE7000017
:100DC000000C0140012803D05FF0280000F092BA27
:100DD0002920FBE710B5012000F074FA012000F093
:100DE0006FF9002000F06EFA0A2000F069F9012086
:100DF00000F068FA642000F063F9112000F07AFA3C
:100E0000782000F05DF9B12000F074FA052000F0C0
:100E1000B9FA3C2000F0B6FA3C2000F0B3FAB42056
:100E200000F068FA002000F0ADFAC02000F062FA8D
:100E3000282000F0A7FA082000F0A4FA042000F00F
:100E4000A1FAC12000F056FAC02000F09BFAC2209F
:100E500000F050FA0D2000F095FA002000F092FA10
:100E6000C32000F047FA8D2000F08CFA2A2000F011
:100E700089FAC42000F03EFA8D2000F083FAEE20BB
:100E800000F080FAC52000F035FA1A2000F07AFA56
:100E9000C72000F02FFAB62000F074FA3A2000F0D4
:100EA00029FA052000F06EFA2A2000F023FA00202B
:100EB00000F068FA002000F065FA002000F062FA05
:100EC0009F2000F05FFA2B2000F014FA002000F0C1
:100ED00059FA002000F056FA002000F053FA7F2063
:100EE00000F050FA362000F005FA602000F04AFACF
:100EF000E02000F0FFF9042000F044FA222000F086
:100F000041FA072000F03EFA0A2000F03BFA2E20BA
:100F100000F038FA302000F035FA252000F032FADF
:100F20002A2000F02FFA282000F02CFA262000F0CA
:100F300029FA2E2000F026FA3A2000F023FA0020A9
:100F400000F020FA012000F01DFA032000F01AFA48
:100F5000132000F017FAE12000F0CCF9042000F093
:100F600011FA162000F00EFA062000F00BFA0D2000
:100F700000F008FA2D2000F005FA262000F002FA11
:100F8000232000F0FFF9272000F0FCF9272000F0D3
:100F9000F9F9252000F0F6F92D2000F0F3F93B20B7
:100FA00000F0F0F9002000F0EDF9012000F0EAF97E
:100FB000042000F0E7F9132000F0E4F9C82000F065
:100FC0007FF8BDE81040292000F094B92DE9F041E8
:100FD00005461E4617460C462A2000F08BF9280AC3
:100FE00000F0D0F9E8B200F0CDF93D44C5F3072098
:100FF00000F0C8F9E8B200F0C5F92B2000F07AF94A
:10100000200A00F0BFF9E0B200F0BCF93444C4F3A8
:10101000072000F0B7F9E0B2BDE8F04100F0B2B946
:10102000054B4FF48051012803D000221846FFF7EA
:10103000D8B90122FAE7000000140140044B01284E
:1010400004D0002280211846FFF7CBB90122F9E72E
:1010500000180140044B012804D000220421184646
:10106000FFF7BFB90122F9E7000C01402DE9F0417B
:101070009046069F1E467A1E93B2721E92B2FFF7EA
:10108000A5FF2C2000F036F9002508E0002403E03D
:10109000404600F04DF9641CB442F9DB6D1CBD42C2
:1010A000F4DBBDE8F0810000044B012804D00022ED
:1010B00004211846FFF795B90122F9E7001801400D
:1010C00000214FF4FA5304E00222521C9A42FCD34E
:1010D000491C8142F8D370472DE9F0411446DDF8F0
:1010E00018801F46A8F1010293B27A1E92B2FFF750
:1010F0006DFF2C2000F0FEF800260EE0002508E031
:10110000207800F03FF96078A41C00F03BF96D1CDA
:10111000EDB2BD42F4D3761CF6B24645EED3BDE83F
:10112000F0812DE9F0471446DDE908891F46A8F152
:10113000010293B27A1E92B2FFF748FF2C2000F012
:10114000D9F8002613E000250DE02078FF2802D111
:101150006178FF290FD000F015F96078A41C00F029
:1011600011F96D1CEDB2BD42EFD3761CF6B24645C7
:10117000E9D3BDE8F0874FEA1920641C00F002F9BA
:1011800009F0FF00641CEAE72DE9F05F92460A9F30
:101190001E467A1E93B2721E92B2FFF717FF2C20E2
:1011A00000F0A8F800244FF0010B1BE00025E00838
:1011B00004F0070100FB06F80BFA01F90EE000BF8E
:1011C0000AEB050118F8010010EA090F01D00B988D
:1011D00000E00C9800F0ACF86D1CEDB2B542EFD316
:1011E000641CE4B2BC42E1D3BDE8F09F2DE9F041BC
:1011F00016461F465A1E93B2721E002592B2DDF8A3
:101200001880FFF7E3FE2C2000F074F80AE00024B9
:1012100004E0404600F08CF8641CA4B2B442F8D359
:101220006D1CADB2BD42F2D3BDE8F0812DE9F041B5
:1012300016461F46521E93B27A1E002592B2DDF862
:101240001880FFF7C3FE2C2000F054F80AE00024B9
:1012500004E0404600F06CF8641CA4B2B442F8D339
:101260006D1CADB2BD42F2D3BDE8F08108B5FFF709
:10127000B1FD0120FFF7A6FD0120FFF795FD8020BD
:1012800000210090A0234FF6E0720846FFF7EEFE23
:1012900008BD0000044B012804D00022102118468C
:1012A000FFF79FB80122F9E700180140044B01281D
:1012B00004D0002220211846FFF793B80122F9E755
:1012C00000180140044B012804D000224021184698
:1012D000FFF787B80122F9E700180140044B012805
:1012E00004D0002208211846FFF77BB80122F9E755
:1012F0000018014010B504460120FFF7CBFF002085
:10130000FFF7D2FE0020FFF7D1FF0020FFF7E6FF36
:101310000648016864F31F2101600120FFF7DEFF2A
:10132000BDE810400120FFF7BFBE00000C180140CF
:1013300070B505460120FFF7ADFF0020FFF7B4FEB2
:101340000120FFF7B3FF0E4C2168284661F3070028
:1013500020600020FFF7C2FF0120FFF7BFFF2068D9
:10136000E9B261F31F2020600020FFF7B7FF0120E2
:10137000FFF7B4FFBDE870400120FFF795BE000005
:101380000C18014010B504460120FFF783FF002030
:10139000FFF78AFE0120FFF789FF0848016864F320
:1013A0001F2101600020FFF799FF0120FFF796FF42
:1013B000BDE810400120FFF777BE00000C18014087
:1013C0001CB5FFF721F8FFF7DDFBFFF723FBFFF765
:1013D0004DFF4FF6E0710C20CDE900010E232A4AA3
:1013E00000215820FFF79DFE0027DFF8A0A0DFF8BE
:1013F000A0B04FF400794FF0800809244FF6FF7534
:101400004FF4FA7649465046FEF7E7FF0021A02345
:10141000204A0846CDF80080FFF75EFE052319221A
:101420000F2118460094FFF701FF0F210523192211
:1014300008460094FFF7DAFE2B4617A25A2108202F
:10144000009700F0EAF83046FEF7BCFE012158464E
:10145000FEF7C3FF052337222D2123200094FFF739
:10146000E5FE2D210523372208460094FFF7BEFE36
:101470004FF4FC6308A25A210820009500F064F89C
:101480003046FEF79FFEBDE700B70008000C0140A4
:101490000018014000170008B8DFD7D3B3BFB2E28D
:1014A000CAD4546F6D544553540000002DE9F047E1
:1014B0000E4620F07F4040F040779046114630467F
:1014C000FEF759FE0020FFF7ABFD00244FF000456A
:1014D00025FA04F0384000D00120FFF7AFFD0020CE
:1014E000FFF7B8FD0120FFF7B5FD641CE4B2202C26
:1014F000EED300240127DFF84C901BE000250120EB
:10150000FFF7A8FD0020FFF7A5FD02214846FEF7E2
:101510005FFF0028305DC5F1070107FA01F101D036
:10152000084300E088436D1CEDB23055082DE6D32A
:10153000641CE4B24445E1D3BDE8F0470120FFF765
:101540006FBD0000000C01402DE9FF4F8DB00D462E
:1015500098469246202103A8DDF86890FEF70BFE1E
:101560005046FEF713FE87B200244FF0080B05F13A
:1015700008064DE01AF80400A0F120015E2921D8E8
:10158000014603A8FFF75AFBCDF800B0CDE901985A
:101590000D9804EB440200EB42000B90E9B2C0B29C
:1015A000062303AAFFF7F0FD0522CDE900290B98D9
:1015B000F1B2CDF80880C0B206230DF11202FFF798
:1015C000E3FD23E00AEB040103A8FFF761FBE8B1A8
:1015D000CDF800B0CDE901980D9804EB440200EB82
:1015E00042000B90E9B2C0B20C2303AAFFF7CCFD76
:1015F0000422CDE900290B98F1B2CDF80880C0B2E1
:101600000C2306AAFFF7C0FD641CA4B2641CA4B29C
:10161000BC42AFD311B0BDE8F08F2DE9FF4F8DB0C4
:101620000D4698469246202103A8DDF86890FEF703
:10163000A2FD5046FEF7AAFD87B200244FF0080B2A
:1016400005F1080657E01AF80410A1F120005E2801
:101650002ED803A8FFF708FB002003A90B181A7A5D
:10166000D2001A7211F800C042EA5C121A724FEAF4
:10167000CC020A54401C80B20828EFD3CDF800B049
:10168000CDE901980D98E9B200EBC4000B90C0B20F
:10169000082303AAFFF778FDCDF800B0CDE9019843
:1016A0000B98F1B2C0B2082305AAFFF76DFD20E048
:1016B0000AEB040103A8FFF733FBD0B1CDF800B06B
:1016C000CDE901980D98E9B200EBC4000B90C0B2CF
:1016D000102303AAFFF758FDCDF800B0CDE901981B
:1016E0000B98F1B2C0B2102307AAFFF74DFD641C9E
:1016F000A4B2641CA4B2BC42A5D311B0BDE8F08F63
:10170000FFFFFFFFFFFFFFFFFFFFFFFFFFFFFFFFE9
:10171000FFFFFFFFFFFFFFFFFFFFFFFFFFFFFFFFD9
:10172000FFFFFFFFFFFFFFFFFFFFFFFFFFFFFFFFC9
:10173000FFFFFFFFFFFFFFFFFFFFFFFFFFFFFFFFB9
:103F3000FFFEFFFFFFDFFFFFFFDFFFFFFFFFFFFFD2
:103F4000FFFFFFFFFFDFFFFFFFFEFFFFFFFFFFFFA2
:103F5000FFFDFFFFE6FD41F25B34B5DCFFDFFFFF55
:103F6000FFFFFFFFFFFEFFFFFFFFFFFFFFFFFFFF62
:103F7000FFFFFFFFF7FFF7FFFFFFFFFFFFFFFFFE62
:103F8000FFDFFFFFFFFEF7DF7BD794F8FFFFFFDFC8
:103F9000FFFFFFFFFFFFFFFFFFFFFFFFFFFFFFFF31
:103FA000FFDFFFFFFFFFFFFEFFDFC65B73D5BE1C19
:103FB000FFDFFFFFFFFFF7DFFFFFF79FB59BCE7D22
:103FC000FFFFFFFEFFFFFFFEFFFEFFFFFFDFFFFF24
:103FD000FFFFFFFEFFFFFFFFFFFFFFFFFFFFFFFEF3
:103FE000FFFFFFFFFFFFFFFFFFDFFFFFFFFFFFFF01
:103FF000FFFFFFFFFFFFFFFFEF5EFFFFFFFFFFFF82
:10400000FFFFFFFFFFFFFFFFFFFFFFFFFFFFFFFFC0
:10401000FFFFFFFFFFFFFFFFFFFFFFFFFFFFFFFFB0
:10402000FFFFFFFFFFFFFFFFFFFFFFFFFFFFFFFFA0
:10403000FFFFFFFFFFFFFFFFFFFFFFFFFFFFFFFF90
:10404000FFFFFFFFFFFFFFFFFFFFFFFFFFFFFFFF80
:10405000FFFFFFFFFFFFFFFFFFFFFFFFFFFFFFFF70
:10406000FFFFFFFFFFFFFFFFFFFFFFFFFFFFFFFF60
:10407000FFFFFFFFFFFFFFDFFFFFFFFFFFFFFFFF70
:10408000FFFFFFFFFFFFFFFEFFFFFFFFFFFFFFFF41
:10409000FFDFFFFFBDFB10AF1091086FA539FFFFD9
:1040A000FFFFFFFFFFFFFFFFFFFFFFDFFFFFFFFE41
:1040B000FFFFEF5E4A3362F6AD9AFFFFFFDFFFFFBF
:1040C000FFFFFFFFEFBF62F40830089073D6FFFEDA
:1040D000FFFFFFFFFFFFFFFFFFFFFFFFFFBFFFFF30
:1040E000FFFFFFFFFFFFFFFFFFFF7396082F1090FA
:1040F00083F5FFFFFFFEFFFFFFFFD6BC215010CF6F
:104100006B55FFFFFFFFFFFFFFDFFFFFFFFFFFFF1D
:10411000FFFFFFFFFFFFFFFEFFFF8C97A53AF7BFF2
:10412000FFFFFFFFFFFFFFFFFFFFFFFFFFFFFFDFBF
:10413000FFFFFFFFFFFFB59B212F9CD9FFFFFFFE75
:10414000FFFFFFFFFFFFFFFFFFFFFFFFFFFFFFFF7F
:10415000FFFFFFFFFFFFFFFFFFFFFFFFFFFFFFFF6F
:10416000FFFFFFFFFFFFFFFFFFFFFFFFFFFFFFFF5F
:10417000FFFFFFFFFFFFFFFFFFFFFFFFFFFFFFFF4F
:10418000FFFFFFFFFFFFFFFFFFFFFFFFFFFFFFFF3F
:10419000FFFFFFFFFFFFFFFFFFFFFFFFFFFFFFFF2F
:1041A000FFFFFFFFFFFFFFFFFFFFFFFFFFFFFFFF1F
:1041B000FFFFFFFFFFFFFFFFFFFFFFFFFFFFFFFF0F
:1041C000FFFFFFFFFFFFFFFFFFFFFFFFFFFFFFFFFF
:1041D000FFFEFFFF9D1A10CF08704A93EFBFFFDF6D
:1041E000FFFFFFDFFFFFFFFFFFFFFFFFFFFFFFFFFF
:1041F000FFFFFFFFAD3B104F10915B13F7BFFFFFB9
:104200008C778C995AD5082E210F31F25B17DF3E3F
:10421000FFFFFFFFEF7E6B94AD9BFFFFFFDFFFFF14
:10422000FFFFFFFFFFFFFFFEFFFF5AD6087021319F
:10423000C5FBFFFFFFDFFFDFFFFFFFFE39F400706C
:104240008C57FFFFFFFEFFFFFFFFF7FFFFFFFFFFA2
:10425000FFFFFFFFFFFFFFFEFFFF4A52108E4A5293
:104260006B976B766B766B766BB66B946BB66B9766
:1042700063556B966B762952109118CF9CD9FFFF2E
:10428000FFFFFFFFFFFFFFFFFFFFFFFFFFFFFFFF3E
:10429000FFFFFFFFFFFFFFFFFFFFFFFFFFFFFFFF2E
:1042A000FFFFFFFFFFFFFFFFFFFFFFFFFFFFFFFF1E
:1042B000FFFFFFFFFFFFFFFFFFFFFFFFFFFFFFFF0E
:1042C000FFFFFFFFFFFFFFFFFFFFFFFFFFFFFFFFFE
:1042D000FFFFFFFFFFFFFFFFFFFFFFFFFFFFFFFFEE
:1042E000FFFFFFFFFFFFFFFFFFFFFFFFFFFFFFFFDE
:1042F000FFFFFFFFFFFFFFFFFFFFFFFFFFFFFFFECF
:10430000FFFFFFFFFFFFFFFEFFFFAD3B8C38FFFF0E
:10431000FFFFFFDF8438106F20F0C61CFFFFFFFF98
:10432000FFFFFFFFFFFFFFFFFFFFFFFFFFFFFFDFBD
:10433000FFFFFFFFFFFF423210D008B0B5DBFFDE0A
:1043400052D4084E18D16315DF1DADFA1911297129
:1043500052D463374234088F10D094B8FFFFFFFF68
:10436000FFFFFFFFFFFFFFFEF7BF31D208AE6B95E7
:10437000FFFFFFFFFFFFFFFFFFFFFFFF4A730890F4
:10438000B59BFFFFFFFEFFFFCE5D4A51BDDCFFFE88
:10439000FFFFFFFFFFFFFFFFFFFF5B14109118F00F
:1043A000213021302130215010D008B110B02131FE
:1043B0002111293121112953191008903171EF7FF2
:1043C000FFFFFFFFFFFFFFFFFFFFFFFFFFFFFFFFFD
:1043D000FFFFFFFFFFFFFFFFFFFFFFFFFFFFFFFFED
:1043E000FFFFFFFFFFFFFFFFFFFFFFFFFFFFFFFFDD
:1043F000FFFFFFFFFFFFFFFFFFFFFFFFFFFFFFFFCD
:10440000FFFFFFFFFFFFFFFFFFFFFFFFFFFFFFFFBC
:10441000FFFFFFFFFFFFFFFFFFFFFFFFFFFFFFFFAC
:10442000FFFFFFFFFFFFFFFFFFFFFFFFFFFFFFFF9C
:10443000FFFFFFFFFFFFFFFFFFDFFFFFEF5FB59B0A
:10444000CE9CD6DDDEDEDF1FADBB2130106F7BF7EB
:10445000FFDFFFFF5AF4106E52D4FFFFFFFFFFFF94
:10446000FFFFFFFED69E7BD5EF9FFFFEFFFFFFFF06
:10447000FFFEFFFFFFFF7376086F0890B5BBFFFFDD
:104480006B97082F6B55FFFFFFFFB5FB10D018D2BD
:10449000212F20F1211110D118F16353FFFFFFFFED
:1044A000FFFFFFDFFFFFFFFEC65B1911191131B1DE
:1044B00039D3427452D552D452B55AD5295210F03C
:1044C0003A325AF552D352D4299208512131BE5C66
:1044D000FFFFFFFFFFFFFFFFFFFF6B96004F52B68E
:1044E000F7BFEF5FEF7FEF7F6B55082D4A12EF7F2D
:1044F000EF7FE73EF7BF9D3908AE1910AD9BFFFF78
:10450000FFFFFFFFFFFFFFFFFFFFFFFFFFFFFFFFBB
:10451000FFFFFFFFFFFFFFFFFFFFFFFFFFFFFFFFAB
:10452000FFFFFFFFFFFFFFFFFFFFFFFFFFFFFFFF9B
:10453000FFFFFFFFFFFFFFFFFFFFFFFFFFFFFFFF8B
:10454000FFFFFFFFFFFFFFFFFFFFFFFFFFFFFFFF7B
:10455000FFFFFFFFFFFFFFFFFFFFFFFFFFFFFFFF6B
:10456000FFFFFFFFFFFFFFFFFFFFFFFFFFFFFFFF5B
:10457000FFFFFFFFFFFFFFFFFFFFFFFED69E20CFE5
:104580001090086E108F086F10CF10F01912004FA6
:104590009498F7FF31B2086F6356B5FCAD9AB5BB7E
:1045A000B5BCAD7B39D208506B75FFFFFFDFFFFF55
:1045B000FFFFFFFFFFFFA53A18D16B96F7BEFFFF85
:1045C00073D608507395FFFFFFFFD69E2110191177
:1045D000B59BEF5FB5DA18F22132E73DFFFFFFFF31
:1045E000FFFFFFFFFFFFFFFF8417004F63779CB9BA
:1045F0001071190F215121522952295020F120F018
:1046000021122932293131722992299229325AB440
:10461000FFDFFFFFFFFFFFFEFFFF6356002F5B344E
:10462000FFFFFFFFFFFFFFFF6B5610514A53FFFFD5
:10463000FFDFFFFFFFFFAD9A10912152CE9CFFFEDE
:10464000FFFFFFFFFFFFFFFFFFFFFFFFFFFFFFFF7A
:10465000FFFFFFFFFFFFFFFFFFFFFFFFFFFFFFFF6A
:10466000FFFFFFFFFFFFFFFFFFFFFFFFFFFFFFFF5A
:10467000FFFFFFFFFFFFFFFFFFFFFFFFFFFFFFFF4A
:10468000FFFFFFFFFFFFFFFFFFFFFFFFFFFFFFFF3A
:10469000FFFFFFFFFFFFFFFFFFFFFFFFFFFFFFFF2A
:1046A000FFFFFFFFFFFFFFFFFFFFFFFFFFFFFFFF1A
:1046B000FFFFFFFFFFFFFFFFFFDFFFFEF7DF735688
:1046C0006B558C7794B78CB87C18191010D0425267
:1046D000DEFECEBC18F010D110AF10511090082F94
:1046E000104E108F18CF18F1108F9CD9FFFFFFFFCD
:1046F000FFFFFFFFFFFFF7BEDEFDF7DFFFFFFFFF5E
:104700006B94084F73D6FFDFFFFFCE7C18F118F2D1
:10471000CE7CFFFFCE7C10713173E73DFFFFFFFFC2
:10472000FFFFFFFFFFFFEF9F39F30870A559FFDE82
:10473000C65BDF1DEFBFEF7EEF5EEF7E4A53107169
:10474000A519F79FEF7DCE5DE73FEF7DE73DEF3E9B
:10475000FFDFFFFFFFFFFFFEFFFF8418084F5B1422
:10476000FFFFFFFFFFFFFFFF637608704A73F7FF4D
:10477000FFFEFFFFFFDFB5BA10CF2131CE9DFFDF77
:10478000FFFFFFFFFFFFFFFFFFFFFFFFFFFFFFFF39
:10479000FFFFFFFFFFFFFFFFFFFFFFFFFFFFFFFF29
:1047A000FFFFFFFFFFFFFFFFFFFFFFFFFFFFFFFF19
:1047B000FFFFFFFFFFFFFFFFFFFFFFFFFFFFFFFF09
:1047C000FFFFFFFFFFFFFFFFFFFFFFFFFFFFFFFFF9
:1047D000FFFFFFFFFFFFFFFFFFFFFFFFFFFFFFFFE9
:1047E000FFFFFFFFFFFFFFFFFFFFFFFFFFFFFFFFD9
:1047F000FFFFFFFFFFFFFFFFFFFFFFFFFFFFFFFFC9
:10480000FFFFFFFFFFFFFFFFD6DD29111050B5DBD3
:10481000FFFF9477082F5AF6BE3CBE1BBDFBB5FBCD
:10482000B61B94DA215008B110B16355FFFFFFFFAA
:10483000FFFFFFFFFFFFFFFFFFFFFFFFFFFFFFFE89
:1048400073B7002E6BB6FFFFFFFECE9C20F1190F51
:10485000CE5CFFFFCE7C10CF2971E73EFFFFFFFF4C
:10486000FFFFFFFFFFFFAD98109018D1A538FFDFC5
:10487000A53B5293B59BF77FF7BFFFFF4272008FB6
:10488000AD5AFFFFCE5C317073B6F7FFFFFFFFFF3D
:10489000FFFFFFFFFFFFFFFFFFDF8457084F4A9432
:1048A000D6BDCE5CCE3BCE7C5B14089041F2D67C6C
:1048B000C65CCE5BDEBE8C7810B01931D6BDFFDF92
:1048C000FFFFFFFFFFFFFFFFFFFFFFFFFFFFFFFFF8
:1048D000FFFFFFFFFFFFFFFFFFFFFFFFFFFFFFFFE8
:1048E000FFFFFFFFFFFFFFFFFFFFFFFFFFFFFFFFD8
:1048F000FFFFFFFFFFFFFFFFFFFFFFFFFFFFFFFFC8
:10490000FFFFFFFFFFFFFFFFFFFFFFFFFFFFFFFFB7
:10491000FFFFFFFFFFFFFFFFFFFFFFFFFFFFFFFFA7
:10492000FFFFFFFFFFFFFFFFFFFFFFFFFFFFFFFF97
:10493000FFFFFFFFFFFFFFFFFFFFFFFFFFFFFFDFA7
:104940009D19DF1EFFFFFFDFC5FA18D118F2CE9DBB
:10495000FFFF42332131DEDDAD1A84B6CEDDFFDF4D
:10496000FFFFAD9C082F41F3B5BBFFDFFFFEFFFF4C
:10497000FFFFFFFFFFFEE71E5B15BE3DFFFFFFFFD2
:104980007397002E73B7FFFEFFFECE7D211018F146
:10499000CE5CFFFFCE9B10902992E73DFFFFFFFF0B
:1049A000FFFEFFFFF7FF52D4109018D09D39FFFE95
:1049B000AD79087010F0217029712993211218EF38
:1049C0002171299118F210CF08AF6B57FFFFFFFE3E
:1049D000FFFFFFFFFFFFFFDFFFFF8438109018EF9E
:1049E000107008900890109018D0191018F01090BE
:1049F00008B0089010AF10B010F12130D6BDFFFF05
:104A0000FFFFFFFFFFFFFFFFFFFFFFFFFFFFFFFFB6
:104A1000FFFFFFFFFFFFFFFFFFFFFFFFFFFFFFFFA6
:104A2000FFFFFFFFFFFFFFFFFFFFFFFFFFFFFFFF96
:104A3000FFFFFFFFFFFFFFFFFFFFFFFFFFFFFFFF86
:104A4000FFFFFFFFFFFFFFFFFFFFFFFFFFFFFFFF76
:104A5000FFFFFFFFFFFFFFFFFFFFFFFFFFFFFFFF66
:104A6000FFFFFFFFFFFFFFFFFFFFFFFFFFFFFFFF56
:104A7000FFFFFFFFFFFFFFFFFFFFFFFFFFFFFFFF46
:104A80005AB32951CE7DFFFFA55808702991EFBF79
:104A9000C61B084F94DAFFFF5A95004D08709CB86A
:104AA000FFFF5AD54232DF3EFFFFFFFFFFFFDEDD93
:104AB0004A7452B5739741F2006F1910AD39FFFF78
:104AC00073B6003073B6FFFFFFFFCE7D211018F0E4
:104AD000CE5CFFFFCE9D10712952E75EFFFFFFFF06
:104AE000FFFFFFFFBE1A108F18D110D0A539FFFFAE
:104AF000D69D211218F14A535A944A732152191023
:104B0000421352945274215210915294F7BFFFFFF6
:104B1000FFFFFFFFFFFFFFFFFFFF8437109031B162
:104B20006B7563766376635631D210D129926356E2
:104B30006B556B356B55529518F02130CE9CFFFFAD
:104B4000FFFFFFFFFFFFFFFFFFFFFFFFFFFFFFFF75
:104B5000FFFFFFFFFFFFFFFFFFFFFFFFFFFFFFFF65
:104B6000FFFFFFFFFFFFFFFFFFFFFFFFFFFFFFFF55
:104B7000FFFFFFFFFFFFFFFFFFFFFFFFFFFFFFFF45
:104B8000FFFFFFFFFFFFFFFFFFFFFFFFFFFFFFFF35
:104B9000FFFFFFFFFFFFFFFFFFFFFFFFFFFFFFFF25
:104BA000FFFFFFFFFFFFFFFFFFFFFFFFFFFFFFFF15
:104BB000FFFFFFFFFFFFFFFFFFFFFFFFFFFFFFFF05
:104BC000EF9F39D118EFC67D8477086F4A94FFFEB6
:104BD00052745AD3FFFFFFFE5AF510D01911D67C3C
:104BE000F7BE6313DF1FFFFEFFFFFFFFFFFFF77F2F
:104BF0002971006F086E1090193210AF8C56FFFFAC
:104C00007395084F6B97FFFFFFFFC65C18F21910F2
:104C1000D67BFFDFCE7D10AF2971E75DFFFFFFFF81
:104C2000FFFFF7FF5295211131B210B19D39FFFFFF
:104C3000D6FD21102131D6BCFFFFFFFF52B5086F12
:104C4000B59AFFDFF7BE39D2084FBE1BFFFFFFFF4B
:104C5000FFFFFFFFFFFFFFFFFFFF8437086F5AF6DC
:104C6000FFFDFFFFFFFEFFFF735410704A33FFFE8E
:104C7000FFFFFFFFFFFEAD9A10CF2112CE9DFFFF79
:104C8000FFFFFFFFFFFFFFFFFFFFFFFFFFFFFFFF34
:104C9000FFFFFFFFFFFFFFFFFFFFFFFFFFFFFFFF24
:104CA000FFFFFFFFFFFFFFFFFFFFFFFFFFFFFFFF14
:104CB000FFFFFFFFFFFFFFFFFFFFFFFFFFFFFFFF04
:104CC000FFFFFFFFFFFFFFFFFFFFFFFFFFFFFFFFF4
:104CD000FFFFFFFFFFFFFFFFFFFFFFFFFFFFFFFFE4
:104CE000FFFFFFFFFFFFFFFFFFFFFFFFFFFFFFFFD4
:104CF000FFFFFFFFFFFFFFFFFFFFFFFFFFFFFFFFC4
:104D0000FFFFD6DC20F1211131D3088F8438B57B29
:104D10004212E77EFFFFFFFF52D408B01910D67C85
:104D2000FFFFFFDFFFFFFFFFFFFFFFDDFFFFFFFFD5
:104D3000BE1CAD9BD69D947A084F4A53FFDFFFFF00
:104D40007396084F73B6FFFEFFDF73D610D11910AC
:104D5000CE5CFFFFCE9D18CF2111DF1DFFFFFFFFAF
:104D6000FFFFB5BB080FA5396355086FA57AFFFF94
:104D7000D6DC21112112D6DCFFFEFFFE4253108F3C
:104D8000B5B9FFFFEF7E39D31071B5FAFFFFFFFF12
:104D9000FFFFFFFFFFFFFFFFFFDF8458084E52F5C4
:104DA000FFFFFFFFFFFFFFDF6B5600504A53FFFF7F
:104DB000FFFFFFDFFFFFB59B10AF2132CE9DFFFF4E
:104DC000FFFFFFFFFFFFFFFFFFFFFFFFFFFFFFFFF3
:104DD000FFFFFFFFFFFFFFFFFFFFFFFFFFFFFFFFE3
:104DE000FFFFFFFFFFFFFFFFFFFFFFFFFFFFFFFFD3
:104DF000FFFFFFFFFFFFFFFFFFFFFFFFFFFFFFFFC3
:104E0000FFFFFFFFFFFFFFFFFFFFFFFFFFFFFFFFB2
:104E1000FFFFFFFFFFFFFFFFFFFFFFFFFFFFFFFFA2
:104E2000FFFFFFFFFFFFFFFFFFFFFFFFFFFFFFFF92
:104E3000FFFFFFFFFFFFFFFFFFFFFFFFFFFFFFFF82
:104E4000FFFFFFFFA53A087018F118B1C63C947730
:104E5000CEBEFFFFFFFFFFDF4A7410D11091B5BB3C
:104E6000FFFFFFFEFFDFFFFFFFFEFFFFFFDFFFFF94
:104E7000FFFFFFFFFFFEB57A002F5B14FFDFFFFF90
:104E800073B6000F73F6FFFF62F5106D10CF193186
:104E9000CE5AFFFFC67B18EF18D2D6DDFFFFFFFF0B
:104EA000F7DF39B35AF4FFFE5AD5088EA539FFFF54
:104EB000DEFD21101930C67CEF9FDF3D39F210B0C6
:104EC000AD9AF7BFDF1E3193086FBDFAFFFFFFFFFA
:104ED000FFFFFFFFFFFFFFFFFFFF8458084E5B153A
:104EE000FFFFFFDFFFFFFFFF73B600704273FFFF9E
:104EF000FFFDFFFFFFFFADBB10CE18F0D6DDFFFFBB
:104F0000FFFFFFFFFFFFFFFFFFFFFFFFFFFFFFFFB1
:104F1000FFFFFFFFFFFFFFFFFFFFFFFFFFFFFFFFA1
:104F2000FFFFFFFFFFFFFFFFFFFFFFFFFFFFFFFF91
:104F3000FFFFFFFFFFFFFFFFFFFFFFFFFFFFFFFF81
:104F4000FFFFFFFFFFFFFFFFFFFFFFFFFFFFFFFF71
:104F5000FFFFFFFFFFFFFFFFFFFFFFFFFFFFFFFF61
:104F6000FFFFFFFFFFFFFFFFFFFFFFFFFFFFFFFF51
:104F7000FFFFFFFFFFFFFFFFFFFFFFFFFFFFFFFF41
:104F8000FFFFFFFFFFFF633410CE18B1BDDCFFFE53
:104F9000FFFFFFDFFFFEF7BF31B110CF109194B8D4
:104FA000FFFEFFFFFFDFFFFFFFDEFFFFFFFFFFFF53
:104FB000FFFFFFFFFFFFAD7B006F52F3FFFFFFFF1F
:104FC00073D5085052B55A9418705AF5297118D1F2
:104FD0009D19E73FAD7B10CF10B1D6DDFFFFFFFF7E
:104FE000949941D2EF9EFFFF52B6088F9D3AFFDFA2
:104FF000D69C21311111215129322130211220F169
:10500000215121112930213108AEBDFBFFFFFFFEE8
:10501000FFFFFFFFFFFFFFFFFFFF8437086F4253D3
:10502000C5FBBDDCBDDBBDDB52B2088F39F2C5FC70
:10503000B5FAB5FBBDFB7C3718F01911D6BCFFFFE4
:10504000FFFFFFFFFFFFFFFFFFFFFFFFFFFFFFFF70
:10505000FFFFFFFFFFFFFFFFFFFFFFFFFFFFFFFF60
:10506000FFFFFFFFFFFFFFFFFFFFFFFFFFFFFFFF50
:10507000FFFFFFFFFFFFFFFFFFFFFFFFFFFFFFFF40
:10508000FFFFFFFFFFFFFFFFFFFFFFFFFFFFFFFF30
:10509000FFFFFFFFFFFFFFFFFFFFFFFFFFFFFFFF20
:1050A000FFFFFFFFFFFFFFFFFFFFFFFFFFFFFFFF10
:1050B000FFFFFFFFFFFFFFFFFFFFFFFFFFFFFFFF00
:1050C000FFFFFFFFFFFF635610B110904A14EFBEC1
:1050D000FFFFFFFEFFFFDF1F295118EF10B052B591
:1050E000FFFFFFFFFFFFFFFFFFFFFFDFFFFFFFFFF0
:1050F000FFFFFFFFFFFEB57A002E52D5FFFFFFFF37
:105100006B9708AF18F1082E8418CE9D211118F165
:1051100018EF18B0211210F11911D6BCFFFFFFDFF4
:105120007BD6D6BDFFFEFFFF5AB50870A55AFFFF1C
:10513000C61C18F1191042525AB44A5318F118F00B
:105140004A735AB452922132108FA559FFFFFFFFC4
:10515000FFFFF7DFFFFFFFFFFFDF7BF7109010CEB1
:10516000106F086F084F087010D1191110F0086FF8
:1051700008701050106F18B110B22152CE7CFFFF92
:10518000FFFFFFFFFFFFFFFFFFFFFFFFFFFFFFFF2F
:10519000FFFFFFFFFFFFFFFFFFFFFFFFFFFFFFFF1F
:1051A000FFFFFFFFFFFFFFFFFFFFFFFFFFFFFFFF0F
:1051B000FFFFFFFFFFFFFFFFFFFFFFFFFFFFFFFFFF
:1051C000FFFFFFFFFFFFFFFFFFFFFFFFFFFFFFFFEF
:1051D000FFFFFFFFFFFFFFFFFFFFFFFFFFFFFFFFDF
:1051E000FFFFFFFFFFFFFFFFFFFFFFFFFFFFFFFFCF
:1051F000FFFFFFFFFFFFFFFFFFFFFFFFFFFFFFFFBF
:10520000FFFFFFFFDEDD215008CF19111090951927
:10521000FFFFFFFFFFFFB5DB189131B14253190FBC
:10522000D6DDFFFFFFFEFFDEFFFFFFFFFFFFFFFFFB
:10523000FFFEFFFFFFFEB59B084F52D5FFFFC5DA0B
:10524000213110F010D05AF4FFFFCEBB20F02131F5
:105250009D5A4A7410AF10CE31F2F7BFFFFFFFFE28
:10526000F7FFFFFFFFDFFFFF5AD5088F9D59FFFFB4
:105270009D19001018D0B59AFFFFC65D18EF29B12F
:10528000E77EFFFFF7BF31D210B1BE1CFFFFFFFF6B
:10529000FFFFFFFFFFFFFFFFFFFF635408904A750A
:1052A0009CDA94B98CF994D94A33109031D294D9BC
:1052B00094B994D89CD86B7618EF2110D6BEFFFF16
:1052C000FFFFFFFFFFFFFFFFFFFFFFFFFFFFFFFFEE
:1052D000FFFFFFFFFFFFFFFFFFFFFFFFFFFFFFFFDE
:1052E000FFFFFFFFFFFFFFFFFFFFFFFFFFFFFFFFCE
:1052F000FFFFFFFFFFFFFFFFFFFFFFFFFFFFFFFFBE
:10530000FFFFFFFFFFFFFFFFFFFFFFFFFFFFFFFFAD
:10531000FFFFFFFFFFFFFFFFFFFFFFFFFFFFFFFF9D
:10532000FFFFFFFFFFFFFFFFFFFFFFFFFFFFFFFF8D
:10533000FFFFFFFFFFFFFFDFFFFFFFFDFFFEFFFFA0
:10534000FFDFFFFF843808505AD539B3108F3A3445
:10535000F7BFFFFFFFFF8458004F631494D7004F3F
:105360007BD8FFFFFFFEFFFFFFFFFFFEFFFFFFDF1A
:10537000FFFFFFFFFFFFAD7A080F52D5FFFFCE3CC6
:105380001930109039D1EF3FFFFED69B20EF20F26D
:10539000D6BCD6BE20D12931BDFAFFFFFFFFFFFFEB
:1053A000FFFFFFFFFFFFFFFF52D3084FA53AFFFFAC
:1053B000DEDDA55AAD7B39B3EF9FB5BA08514AB3CC
:1053C000FFFFFFFFFFFFCE7CE71FFFFFFFFFFFFF99
:1053D000FFFFFFFFFFFFFFFFFFFF52D5087084783C
:1053E000FFFFFFFFFFFFFFFF7396004F4A53FFFFD2
:1053F000FFFFFFFFFFFFB5BA10AF2131CE7DFFFFEA
:10540000FFFFFFFFFFFFFFFFFFFFFFFFFFFFFFFFAC
:10541000FFFFFFFFFFFFFFFFFFFFFFFFFFFFFFFF9C
:10542000FFFFFFFFFFFFFFFFFFFFFFFFFFFFFFFF8C
:10543000FFFFFFFFFFFFFFFFFFFFFFFFFFFFFFFF7C
:10544000FFFFFFFFFFFFFFFFFFFFFFFFFFFFFFFF6C
:10545000FFFFFFFFFFFFFFFFFFFFFFFFFFFFFFFF5C
:10546000FFFFFFFFFFFFFFFFFFFFFFFFFFFFFFFF4C
:10547000FFFFFFFFFFFFFFFFFFFFFFFFFFFFFFFF3C
:10548000FFFFDF3C21112951E77E843710AF10F078
:10549000C63CFFDFF79F3A12004FA539E71E18F10F
:1054A000190FCE5DFFFFFFDEFFFFFFFFFFDFFFFFF6
:1054B000FFBFFFFFFFFFAD7A002F52D5FFFFFFFFB9
:1054C000ADBC3191C61DFFFFFFFFC65D18B019309E
:1054D000CE7BFFFFCE9DE73FF7FFFFFFFFFFFFFF04
:1054E000FFFFFFFFFFFFFFFF5AF51070A539FFFF19
:1054F000FFFEFFFEFFFE5AB452936335084F843718
:10550000FFFFFFFFFFFDFFFFFFFFFFFFFFFFFFFFAD
:10551000FFFFFFFFFFDFFFFFEF7F31B10870BDDB53
:10552000FFFFFFFFFFFFFFFF6B55004F4A74FFFFB8
:10553000FFFFFFFFFFDFB59B10902130D6DCFFFEA1
:10554000FFFFFFFFFFFFFFFFFFFFFFFFFFFFFFFF6B
:10555000FFFFFFFFFFFFFFFFFFFFFFFFFFFFFFFF5B
:10556000FFFFFFFFFFFFFFFFFFFFFFFFFFFFFFFF4B
:10557000FFFFFFFFFFFFFFFFFFFFFFFFFFFFFFFF3B
:10558000FFFFFFFFFFFFFFFFFFFFFFFFFFFFFFFF2B
:10559000FFFFFFFFFFFFFFFFFFFFFFFFFFFFFFFF1B
:1055A000FFFFFFFFFFFFFFFFFFFFFFFFFFFFFFFF0B
:1055B000FFFFFFFFFFFEFFFFFFDFFFFFFFFFFFFF1C
:1055C000F7FF6B96084E94D9FFFFBE3B10900891F1
:1055D00094B8FFFF8C97004F39F3EF3EFFFF52D492
:1055E000088F39F2EF5FFFFFFFDFFFFFFFFEFFDFF6
:1055F000FFFFFFFFF7FF7C38005052D4FFFFFFDFB3
:10560000FFFEF79EFFFFFFFEFFFFAD7A10AF18F21F
:10561000CE3CFFFFFFFFFFFFFFFFFFFFFFFFFFFF8E
:10562000FFFFFFDEFFFFFFFF52D4084FA539FFFF4A
:10563000FFFFFFFFFFBFD69D18F010B120F2C65B41
:10564000FFFFFFFFFFFFFFFFFFFFFFFFFFFFFFFF6A
:10565000FFFFFFFEFFFFFFFFBE1A10F03192EF5E6B
:10566000FFFFFFFFFFFFFFFF6B96084F4A53FFFF4F
:10567000FFFFFFFFFFFFB5BA10B01911CE9DFFDF8E
:10568000FFFFFFFFFFFFFFFFFFFFFFFFFFFFFFFF2A
:10569000FFFFFFFFFFFFFFFFFFFFFFFFFFFFFFFF1A
:1056A000FFFFFFFFFFFFFFFFFFFFFFFFFFFFFFFF0A
:1056B000FFFFFFFFFFFFFFFFFFFFFFFFFFFFFFFFFA
:1056C000FFFFFFFFFFFFFFFFFFFFFFFFFFFFFFFFEA
:1056D000FFFFFFFFFFFFFFFFFFFFFFFFFFFFFFFFDA
:1056E000FFFFFFFFFFFFFFFFFFFFFFFFFFFFFFFFCA
:1056F000FFFFFFFFFFFFFFFFFFFFFFFFFFFFFFFFBA
:10570000B5DC081073B6FFFFFFFFEF7E3172211189
:10571000C65BC63D1910088FAD5BFFFFFFDFB5FA12
:1057200010EF10905273E71EFFFFFFFFFFFFFFFF18
:10573000F7FEAD5A4213086F109018AF8458E73E39
:10574000FFFFFFFFFFDFFFFFFFFE9CF8080E297140
:10575000D6BCFFFFFFFFFFDEFFFEFFFFFFFFFFFFE7
:10576000FFFFFFFFFFFFFFFF52D4086FA559FFFFA8
:10577000FFDFFFDFFFFFEFFD4AB3086F2111845702
:10578000E75DFFDFFFFFFFFFFFFEFFFFFFFFFFFF04
:10579000FFFFFFFFFFFFFFFF7416002F7BB7FFDF48
:1057A000FFFFFFFFFFFFFFFF6B56004F4253FFFF5E
:1057B000FFFFFFFFFFFFAD9A10902131D6BCFFFF26
:1057C000FFFFFFFFFFFFFFFFFFFFFFFFFFFFFFFFE9
:1057D000FFFFFFFFFFFFFFFFFFFFFFFFFFFFFFFFD9
:1057E000FFFFFFFFFFFFFFFFFFFFFFFFFFFFFFFFC9
:1057F000FFFFFFFFFFFFFFFFFFFFFFFFFFFFFFFFB9
:10580000FFFFFFFFFFFFFFFFFFFFFFFFFFFFFFFFA8
:10581000FFFFFFFFFFFFFFFFFFFFFFFFFFFFFFFF98
:10582000FFFFFFFFFFFFFFFFFFFFFFFFFFFFFFFF88
:10583000FFFFFFFFFFFFFFDFFFFFFFFFFFFFDEFEBA
:1058400020F16314F7DFFFFEFFFFFFFFD6DCE77EEA
:10585000BDFA293108707C16F7DFFFFFFFFFFFFF5D
:10586000633610AF10B031D0B5DBFFFFFFFFDEBDF8
:10587000427410B108305AD3ADBA52B3000F21327E
:1058800062F48C77B5BACE7DDF3DA5596B56ADBAC3
:10589000DF5EDF1CCE7DC63CB59A9CBB73979CF93E
:1058A000FFFFFFFFFFDFFFFF52D40850A55AFFFFA5
:1058B000FFDFFFFFF7FF7C38108F29512110082FE1
:1058C0002952633794D9CE7CE75EEF7EFFFFFFFF5E
:1058D000FFFFFFDFFFFFDF1E21512131D6DEFFFF7B
:1058E000FFFFFFDFFFFFFFFF631508704A74FFDF54
:1058F000FFFFFFFFFFFFAD7B10B12931CE9BFFFF04
:10590000FFFFFFFFFFFFFFFFFFFFFFFFFFFFFFFFA7
:10591000FFFFFFFFFFFFFFFFFFFFFFFFFFFFFFFF97
:10592000FFFFFFFFFFFFFFFFFFFFFFFFFFFFFFFF87
:10593000FFFFFFFFFFFFFFFFFFFFFFFFFFFFFFFF77
:10594000FFFFFFFFFFFFFFFFFFFFFFFFFFFFFFFF67
:10595000FFFFFFFFFFFFFFFFFFFFFFFFFFFFFFFF57
:10596000FFFFFFFFFFFFFFFFFFFFFFFFFFFFFFFF47
:10597000FFDFFFFFFFDFFFFFFFFFFFFFF79F52513A
:105980007394FFFFFFFFFFFFFFFFFFFEF7DF8C3980
:10599000188E108F8458F7FFFFFFFFDFFFFFFFFF18
:1059A000E75E39F3109110D1108F5AD3EF7FE6FDE7
:1059B0001911082F6314F7BFFFFFF7DF7C1818F1E8
:1059C000002F004E10B118F2191121322973215104
:1059D0002113191018F1191110B008706335DF5E2A
:1059E000FFFFFFFFFFFFF7DF4A73107194D9FFFF3E
:1059F000FFFFE75D5B34082F5274D6DDCEBB633505
:105A000010CF002E10B118F121513A1342734A936E
:105A1000BDF9FFFFFFFF7398084FA53AFFFFFFFF97
:105A2000FFFFFFFFFFFFFFFF5AD408904233F7BE8E
:105A30008C166B5473974A7318B02110D6BDFFFEB5
:105A4000FFFFFFFFFFFFFFFFFFFFFFFFFFFFFFFF66
:105A5000FFFFFFFFFFFFFFFFFFFFFFFFFFFFFFFF56
:105A6000FFFFFFFFFFFFFFFFFFFFFFFFFFFFFFFF46
:105A7000FFFFFFFFFFFFFFFFFFFFFFFFFFFFFFFF36
:105A8000FFFFFFFFFFFFFFFFFFFFFFFFFFFFFFFF26
:105A9000FFFFFFFFFFFFFFFFFFFFFFFFFFFFFFFF16
:105AA000FFFFFFFFFFFFFFFFFFFFFFFFFFFFFFFF06
:105AB000FFFFFFFFFFFFFFDFFFFFFFFFF77FBDBC23
:105AC000FFFDFFFFFFFFFFFFDEFD949A31711050D5
:105AD0005255C61DFFFFFFFFFFFFFFFFFFFFFFDF68
:105AE000FFFFD6DD39D008504A55A4F8EF7FFFFFFD
:105AF0009CF75293E77FFFFDFFFFFFFFFFFFD6DE1E
:105B000084574A54297110AF18D0108F087118B0FB
:105B1000087010AF10AF10AF086E52B3FFFFFFFD5B
:105B2000FFFFFFFEFFFFE77F31B1002E8456FFDF4E
:105B3000A53A31713172A51AF7DEFFFFFFFFFFDFD3
:105B4000CE9C73F6319210B00890086F18EE8C79E5
:105B5000F79FFFFFB59A108E8438FFDFFFFFF7FF36
:105B6000FFFFFFFFFFFFFFDF4A52085039F2EF9EB1
:105B7000F7BF7395084F10B110B041D2F7BFFFFFC8
:105B8000FFFFFFFFFFFFFFFFFFFFFFFFFFFFFFFF25
:105B9000FFFFFFFFFFFFFFFFFFFFFFFFFFFFFFFF15
:105BA000FFFFFFFFFFFFFFFFFFFFFFFFFFFFFFFF05
:105BB000FFFFFFFFFFFFFFFFFFFFFFFFFFFFFFFFF5
:105BC000FFFFFFFFFFFFFFFFFFFFFFFFFFFFFFFFE5
:105BD000FFFFFFFFFFFFFFFFFFFFFFFFFFFFFFFFD5
:105BE000FFFFFFFFFFFFFFFFFFFFFFFFFFFFFFFFC5
:105BF000FFFFFFFFFFFFFFFFFFFFFFFFFFFFFFFFB5
:105C0000FFFFFFFFF79F84374231421473F7BE5BFB
:105C1000FFFEFFFFFFFFFFFFFFFFFFFFFFFFFFFF95
:105C2000FFFFFFFED69D9478F79FFFFDFFFFFFFF6C
:105C3000FFDFFFDFFFFEFFFFFFBFFFDFFFFFFFFF15
:105C4000FFFFFFFFE71ECE5CAD79AD5AAD5AAD59EF
:105C5000AD59AD79A55BA55BAD5BDEFDFFFEFFDF5A
:105C6000FFFFFFFEFFFFE73F29704234AD797B94D1
:105C700052B5A539F7BFFFDFFFFFFFFFFFFFFFDFD3
:105C8000FFDFFFFFEF9EB5FB73D741F2AD1AFFFFB9
:105C9000FFFEC61C317294D9FFFEFFDFFFBFF7FF86
:105CA000FFFFFFFFFFFFFFDF318F10B15AF6FFFF4D
:105CB000FFFEFFFF4A94087039F2CE9DFFFEFFFF02
:105CC000FFFFFFFFFFFFFFFFFFFFFFFFFFFFFFFFE4
:105CD000FFFFFFFFFFFFFFFFFFFFFFFFFFFFFFFFD4
:105CE000FFFFFFFFFFFFFFFFFFFFFFFFFFFFFFFFC4
:105CF000FFFFFFFFFFFFFFFFFFFFFFFFFFFFFFFFB4
:105D0000FFFFFFFFFFFFFFFFFFFFFFFFFFFFFFFFA3
:105D1000FFFFFFFFFFFFFFFFFFFFFFFFFFFFFFFF93
:105D2000FFFFFFFFFFFFFFFFFFFFFFFFFFFFFFFF83
:105D3000FFFFFFFFFFFFFFFFFFFFFFFFFFFFFFFF73
:105D4000FFFFFFFFF79FDEDCE73DFFFFFFFFFFFFE9
:105D5000FFFFFFFFFFFFFFFFFFFFFFFFFFFFFFFF53
:105D6000FFFFFFFFFFFFFFFFFFFFFFFFFFFFFFFF43
:105D7000FFFFFFFFFFFFFFFFFFFFFFFFFFFFFFFF33
:105D8000FFFFFFFFFFFFFFFFFFFFFFFFFFFFFFFF23
:105D9000FFFFFFFFFFFFFFFFFFFFFFFFFFFFFFFF13
:105DA000FFFFFFFFFFFFFFFFE6FCF79FF79FDEDC33
:105DB000FFFFFFFFFFFFFFFFFFFFFFFFFFFFFFFFF3
:105DC000FFFFFFFFFFFFFFFFFFFFFFDFFFFFFFFF03
:105DD000FFFFB598CE5AFFFFFFFFFFFFFFFFFFFF5A
:105DE000FFFFFFFFFFFFFFBFBDD9CE5BF7BFFFFF88
:105DF000FFFFFFFFDEFCC619F79FFFFFFFFFFFFF5E
:105E0000FFFFFFFFFFFFFFFFFFFFFFFFFFFFFFFFA2
:105E1000FFFFFFFFFFFFFFFFFFFFFFFFFFFFFFFF92
:105E2000FFFFFFFFFFFFFFFFFFFFFFFFFFFFFFFF82
:105E3000FFFFFFFFFFFFFFFFFFFFFFFFFFFFFFFF72
:105E4000FFFFFFFFFFFFFFFFFFFFFFFFFFFFFFFF62
:105E5000FFFFFFFFFFFFFFFFFFFFFFFFFFFFFFFF52
:105E6000FFFFFFFFFFFFFFFFFFFFFFFFFFFFFFFF42
:105E7000FFFFFFFFFFFFFFFFFFFFFFFFFFFFFFFF32
:105E8000FFFFFFFFFFFFFFFFFFFFFFFFFFDFFFFF42
:105E9000FFFFFFFFFFFFFFFFFFFFFFFFFFFFFFFF12
:105EA000FFFFFFFFFFFFFFFFFFFFFFFFFFFFFFFF02
:105EB000FFFFFFFFFFFFFFFFFFFFFFFFFFFFFFFFF2
:105EC000FFFFFFFFFFFFFFFFFFFFFFFFFFFFFFFFE2
:105ED000FFFFFFFFFFFFFFFFFFFFFFFFFFFFFFFFD2
:105EE000FFFFFFFFFFFFFFFFFFDFFFFFFFFFFFDF02
:105EF000FFFFFFFFFFFFFFFFFFFFFFFFFFFFFFFFB2
:105F0000FFFFFFFFFFFFFFFFFFFFFFFFFFFFFFFFA1
:105F1000FFFFFFDFFFFFFFFFFFFFFFFFFFFFFFFFB1
:105F2000FFFFFFFFFFFFFFFFFFDFFFFFFFFFFFFFA1
:105F3000FFFFFFFFFFFFFFDFFFFFFFFFFFFFFFFF91
:105F4000FFFFFFFFFFFFFFFFFFFFFFFFFFFFFFFF61
:105F5000FFFFFFFFFFFFFFFFFFFFFFFFFFFFFFFF51
:105F6000FFFFFFFFFFFFFFFFFFFFFFFFFFFFFFFF41
:105F7000FFFFFFFFFFFFFFFFFFFFFFFFFFFFFFFF31
:105F8000FFFFFFFFFFFFFFFFFFFFFFFFFFFFFFFF21
:105F9000FFFFFFFFFFFFFFFFFFFFFFFFFFFFFFFF11
:105FA000FFFFFFFFFFFFFFFFFFFFFFFFFFFFFFFF01
:105FB000FFFFFFFFFFFFFFFFFFFFFFFFFFFFFFFFF1
:105FC000FFFFFFFFFFFFFFFFFFFFFFFFFFDFFFFF01
:105FD000FFFFFFFFFFFFFFFFFFFFFFFFFFFFFFFFD1
:105FE000FFFFFFFFFFFFFFFFFFFFFFFFFFFFFFFFC1
:105FF000FFFFFFFFFFFFFFFFFFFFFFFFFFFFFFFFB1
:10600000FFFFFFFFFFFFFFFFFFFFFFFFFFFFFFFFA0
:10601000FFFFFFFFFFFFFFFFFFFFFFFFFFFFFFFF90
:10602000FFFFFFFFFFFFFFFFFFFFFFFFFFFFFFFF80
:10603000FFFFFFFFFFFFFFFFFFFFFFFFFFFFFFFF70
:10604000FFFFFFFFFFFFFFFFFFFFFFFFFFFFFFFF60
:10605000FFFFFFFFFFFFFFFFFFFFFFFFFFFFFFFF50
:10606000FFDEFFFFFFFFFFFFFFFFFFFFFFFFFFFF61
:10607000FFFFFFFFFFFFFFFFFFFFFFFFFFFFFFFF30
:10608000FFFFFFFFFFFFFFFFFFFFFFFFFFFFFFFF20
:10609000FFFFFFFFFFFFFFFFFFFFFFFFFFFFFFFF10
:1060A000FFFFFFFFFFFFFFFFFFFFFFFFFFFFFFFF00
:1062F000FFFFFFFFFFFFFFFFFFFEFFFFFFFFFFFFAF
:10630000FFFFFFFFFFFFFFFFFFFFFFFFFFFFFFFF9D
:10631000FFFFFFFFFFFFFFFFFFFFFFFFFFFFFFFF8D
:10632000FFFFFFFFFFFFFFFFFFFFFFFFFFFFFFFF7D
:10633000FFFFFFFFFFFFFFFFFFFFFFFFFFFFFFFF6D
:10634000FFFFFFFFFFFFFFFFFFFFFFFFFFFFFFFF5D
:10635000FFFFFFFFFFFFFFFFFFFFFFFFFFFFFFFF4D
:10636000FFFFFFFFFFFFFFFFFFFFFFFFFFFFFFFF3D
:10637000FFFFFFFFFFFFFFFFFFFFFFFFFFFFFFFF2D
:10638000FFFFFFFFFFFFFFFFFFFFFFFFFFFFFFFF1D
:10639000FFFFFFFFFFFFFFFFFFFFFFFFFFFFFFFF0D
:1063A000FFFFFFFFFFFFFFFFFFFFFFFFFFFFFFFFFD
:1063B000FFFFFFFFFFFFFFFFFFFFFFFFFFFFFFFFED
:1063C000FFFFFFFFFFFFFFFFFFFFFFFFFFFFFFFFDD
:1063D000FFFFFFFFFFFFFFFFFFFFFFFFFFFFFFFFCD
:1063E000FFFFFFFFFFFFFFFFFFFFFFFFFFFFFFFFBD
:1063F000FFFFFFFFFFFFFFFFFFFFFFFFFFFFFFFFAD
:10640000FFFFFFFFFFFFFFFFFFFFFFFFFFFFFFFF9C
:10641000FFFFFFFFFFDFFFFFFFFFFFFFFFFFFFFFAC
:10642000FFFFFFFFFFFFFFFFFFFFFFFFFFFFFFFF7C
:10643000FFFFFFFFFFFFFFFFFFFFFFFFFFFFFFFF6C
:10644000FFFFFFFFFFFFFFFFFFFFFFFFFFFFFFFF5C
:10645000FFFFFFFFFFFFFFFFFFFFFFFFFFFFFFFF4C
:10646000FFFFFFFFFFFFFFFFFFFFFFFFFFFFFFFF3C
:10647000FFFFFFFFFFFFFFFFFFFFFFFFFFFFFFFF2C
:10648000FFFFFFFFFFFFFFFFFFFFFFFFFFFFFFFF1C
:10649000FFFFFFFFFFFFFFFFFFFFFFFFFFFFFFFF0C
:1064A000FFFFFFFFFFFFFFFFFFFFFFFFFFFFFFFFFC
:1064B000FFFFFFFFFFFFFFFFFFFFFFFFFFFFFFFFEC
:1064C000FFFFFFFFFFFFFFFFFFFFFFFFFFFFFFFFDC
:1064D000FFFFFFFFFFFFFFFFFFFFFFFFFFFFFFFFCC
:1064E000FFFFFFFFFFFFFFFFFFFFFFFFFFFFFFFFBC
:1064F000FFFFFFFFFFFFFFFFFFFFFFFFFFFFFFFFAC
:10650000FFFFFFFFFFFFFFFFFFFFFFFFFFFFFFFF9B
:10651000FFFFFFFFFFFFFFFFFFFFFFFFFFFFFFFF8B
:10652000FFFFFFFFFFFFFFFFFFFFFFFFFFFFFFFF7B
:10653000FFFFFFFFFFFFFFFFFFFFFFFFFFFFFFFF6B
:10654000FFFFFFFFFFFFFFFFFFFFFFFFFFFFFFFF5B
:10655000FFFFFFFFFFFFFFFFFFDFFFFFFFFFFFFF6B
:10656000FFFFFFFFFFFFFFFFFFFFFFFFFFFFFFFF3B
:10657000FFFFFFFFFFFFFFFFFFFFFFDFFFDFFFFF6B
:10658000FFFFFFFFFFFFFFFFFFFFFFFFFFFFFFFF1B
:10659000FFFFFFFFFFFFFFFFFFFFFFFFFFFFFFFF0B
:1065A000FFFFFFFFFFFFFFFFFFFFFFFFFFFFFFFFFB
:1065B000FFFFFFFFFFFFFFFFFFFFFFFFFFFFFFFFEB
:1065C000FFFFFFFFFFFFFFFFFFFFFFFFFFFFFFFFDB
:1065D000FFFFFFFFFFFFFFFFFFFFFFFFFFFFFFFFCB
:1065E000FFFFFFFFFFFFFFFFFFFFFFFFFFFFFFFFBB
:1065F000FFFFFFFFFFFFFFFFFFFFFFFFFFFFFFFFAB
:10660000FFFFFFFFFFFFFFFFFFFFFFFFFFFFFFFF9A
:10661000FFFFFFFFFFFFFFFFFFFFFFFFFFFFFFFF8A
:10662000FFFFFFFFFFFFFFFFFFFFFFFFFFFFFFFF7A
:10663000FFFFFFFFFFFFFFFFFFFFFFFFFFFFFFFF6A
:10664000FFFFFFFFFFFFFFFFFFFFFFFFFFFFFFFF5A
:10665000FFFFFFFFFFFFFFFFFFFFFFFFFFFFFFFF4A
:10666000FFFFFFFFFFFFFFFFFFDFFFFFFFFFFFFF5A
:10667000FFFFFFFFFFFFFFFFFFFFFFFFFFFFFFFF2A
:10668000FFFFFFFFFFFFFFFFFFFFFFFFFFFFFFFF1A
:10669000FFFFFFFFFFFFFFFFFFFFFFFFFFFFFFFF0A
:1066A000FFFEFFFFFFFFFFFFFFFFFFFFFFFFFFFFFB
:1066B000FFFFFFFFFFFFFFDFFFFFFFFFFFFFFFFF0A
:1066C000FFFFFFFFFFFFFFFFFFFFFFFFFFFFFFFFDA
:1066D000FFFFFFFFFFFFFFFFFFFFFFFFFFFFFFFFCA
:1066E000FFFFFFFFFFFFFFFFFFFFFFFFFFFFFFFFBA
:1066F000FFFFFFFFFFFFFFFFFFFFFFFFFFFFFFFFAA
:10670000FFFFFFFFFFFFFFFFFFFFFFFFFFFFFFFF99
:10671000FFFFFFFFFFFFFFFFFFFFFFFFFFFFFFFF89
:10672000FFFFFFFFFFFFFFFFFFFFFFFFFFFFFFFF79
:10673000FFFFFFFFFFFFFFFFFFFFFFFFFFFFFFFF69
:10674000FFFFFFFFFFFFFFFFFFFFFFFFFFFFFFFF59
:10675000FFFFFFFFFFFFFFFFFFFFFFFFFFFFFFFF49
:10676000FFFFFFFFFFFFFFFFFFFFFFFFFFFFFFFF39
:10677000FFFFFFFFFFFFFFFFFFFFFFFFFFFFFFFF29
:10678000FFFFFFFFFFFFFFFFFFFFFFFFFFFFFFFF19
:10679000FFFFFFFFFFFFFFFFFFFFFFFFFFFFFFFF09
:1067A000FFFFFFFFFFFFFFFFFFFFFFFFFFFFFFFFF9
:1067B000FFFFFFFFFFFFFFFFFFFFFFFFFFFFFFFFE9
:1067C000FFFFFFFFFFFFFFFFFFFFFFFFFFFFFFFFD9
:1067D000FFFFFFFFFFFFFFFFFFFFFFFFFFFFFFFFC9
:1067E000FFFFFFFFFFFFFFFFFFFFFFFFFFFFFFFFB9
:1067F000FFFFFFFFFFFFFFFFFFFFFFFFFFFFFFFFA9
:10680000FFFFFFFFFFFFFFFFFFFFFFFFFFFFFFFF98
:10681000FFFFFFFFFFFFFFFFFFFFFFFFFFFFFFFF88
:10682000FFFFFFFFFFFFFFFFFFDFFFFFFFFFFFFF98
:10683000FFFFFFFFFFFFFFFFFFFFFFFFFFFFFFFF68
:10684000FFFFFFFFFFFFFFFFFFFFFFFFFFFFFFFF58
:10685000FFFFFFFFFFFFFFFFFFDFFFFFFFDFFFFF88
:10686000FFFFFFFFFFFFFFFFFFFFFFFFFFFFFFFF38
:10687000FFFFFFFFFFFFFFFFFFFFFFFFFFFFFFFF28
:10688000FFFFFFFFFFFFFFFFFFFFFFFFFFFFFFFF18
:10689000FFFFFFFFFFFFFFFFFFFFFFFFFFFFFFFF08
:1068A000FFFFFFFFFFFFFFFFFFFFFFFFFFFFFFFFF8
:1068B000FFFFFFFFFFFFFFFFFFFFFFFFFFFFFFFFE8
:1068C000FFFFFFFFFFFFFFFFFFFFFFFFFFFFFFFFD8
:1068D000FFFFFFFFFFFFFFFFFFFFFFFFFFFFFFFFC8
:1068E000FFFFFFFFFFFFFFFFFFFFFFFFFFFFFFFFB8
:1068F000FFFFFFFFFFFFFFFFFFFFFFFFFFFFFFFFA8
:10690000FFFFFFFFFFFFFFFFFFFFFFFFFFFFFFFF97
:10691000FFFFFFFFFFFFFFFFFFFFFFFFFFFFFFFF87
:10692000FFFFFFFFFFFFFFFFFFFFFFFFFFFFFFFF77
:10693000FFFFFFFFFFFFFFFFFFFFFFFFFFFFFFFF67
:10694000FFFFFFFFFFFFFFFFFFFFFFFFFFFFFFFF57
:10695000FFFFFFFFFFFFFFFFFFFFFFFFFFFFFFFF47
:10696000FFFFFFFFFFFFFFFEFFFFFFFFF7DFFFFF60
:10697000FFFFFFFFFFFFFFFFFFFFFFFFFFFFFFFF27
:10698000FFFFFFFFFFFFFFFFFFFFFFFFFFFFFFFF17
:10699000FFFFFFFFFFFFFFFFFFFFFFFFFFFFFFFF07
:1069A000FFFFFFFFFFFFFFFFFFFFFFFFFFFFFFFFF7
:1069B000FFFFFFFFFFFFFFFFFFFFFFFFFFFFFFFFE7
:1069C000FFFFFFFFFFFFFFFFFFFFFFFFFFFFFFFFD7
:1069D000FFFFFFFFFFFFFFFFFFFFFFFFFFFFFFFFC7
:1069E000FFFFFFFFFFFFFFFFFFFFFFFFFFFFFFFFB7
:1069F000FFFFFFFFFFFFFFFFFFFFFFFFFFFFFFFFA7
:106A0000FFFFFFFFFFFFFFFFFFFFFFFFFFFFFFFF96
:106A1000FFFFFFFFFFFFFFFFFFFFFFFFFFFFFFFF86
:106A2000FFFFFFFFFFFFFFFFFFFFFFFFFFFFFFFF76
:106A3000FFFFFFFFFFFFFFFFFFFFFFFFFFFFFFFF66
:106A4000FFFFFFFFFFFFFFFFFFFFFFFFFFFFFFFF56
:106A5000FFFFFFFFFFFFFFFFFFFFFFFFFFFFFFFF46
:106A6000FFFFFFFFFFFFFFFFFFFFFFFFFFFFFFFF36
:106A7000FFFFFFFFFFFFFFFFFFFFFFFFFFFFFFFF26
:106A8000FFFFFFFFFFFFFFFFFFFFFFFFFFFFFFFF16
:106A9000FFFFFFFFFFFFFFFFFFFFFFFFFFFFFFFF06
:106AA000FFFFFFFFFFFFFFFFFFFFFFDFFFFFFFDE37
:106AB000FFFFFFFFFFFFFFFFFFFFFFFFFFFFFFFFE6
:106AC000FFFFFFFFFFFFFFFFFFFFFFFFFFFFFFFFD6
:106AD000FFFFFFFFFFFFFFFFF7FFAE18AE5AA63A1A
:106AE000B61BB61BB61BB61BB61BB61BB61BB61B1E
:106AF000B61BB61BB61BB61BB61BB61BB61BB61B0E
:106B0000B61BB61BB61BB61BB61BB61BB61BB61BFD
:106B1000B61BB61BB61BB61BB61BB61BB61BB61BED
:106B2000B61BB61BB61BB61BB61BB61BB61BB61BDD
:106B3000B61BB61BB61BB61BB61BB61BB61BB61BCD
:106B4000B61BB61BB61BB61BB61BB61BB61BB61BBD
:106B5000B61BB61BB61BB61BB61BB61BB61BB61BAD
:106B6000B61BB61BB61BB61BB61BB61BB61BB61B9D
:106B7000B61BB61BB61BB61BB61BB61BB61BB61B8D
:106B8000B61BB61BB61BB61BB61BB61BB61BB61B7D
:106B9000B61BB61BB61BB61BB61BB61BB61BB61B6D
:106BA000B61BB61BB61BB61BB61BB61BB61BB61B5D
:106BB000B61BB61BB61BB61BB61BB61BB61BB61B4D
:106BC000B61BB61BB61BB61BB61BB61BB61BB61B3D
:106BD000B61BB61BB61BB61BB61BB61BB61BB61B2D
:106BE000B61AB63BAE1BADFCB5FCC63BFFDFFFFFE4
:106BF000FFFFFFFFFFFFFFFFFFFFFFFFFFFFFFFFA5
:106C0000FFFFFFFFFFFFFFFFFFFFFFFFFFFFFFFF94
:106C1000FFFFFFDFFFFFFFFFDEFF6393533453559A
:106C20004B754B754B754B754B754B754B754B7564
:106C30004B754B754B754B754B754B754B754B7554
:106C40004B754B754B754B754B754B754B754B7544
:106C50004B754B754B754B754B754B754B754B7534
:106C60004B754B754B754B754B754B754B754B7524
:106C70004B754B754B754B754B754B754B754B7514
:106C80004B754B754B754B754B754B754B754B7504
:106C90004B754B754B754B754B754B754B754B75F4
:106CA0004B754B754B754B754B754B754B754B75E4
:106CB0004B754B754B754B754B754B754B754B75D4
:106CC0004B754B754B754B754B754B754B754B75C4
:106CD0004B754B754B754B754B754B754B754B75B4
:106CE0004B754B754B754B754B754B754B754B75A4
:106CF0004B754B754B754B754B754B754B754B7594
:106D00004B754B754B754B754B754B754B754B7583
:106D10004B754B754B754B754B754B754B754B7573
:106D20004B944B9443744B954B526C34E7BFF7FF35
:106D3000FFFFFFFFFFFFFFFFFFFFFFFFFFFFFFFF63
:106D4000FFFFFFFFFFFFFFFFFFFFFFFFFFFFFFFF53
:106D5000FFFFFFFFFFFFFFFFFFFFFFFFFFFFF7FF4B
:106D6000FFFFFFFFFFFFFFFFFFFFFFFFFFFFFFFF33
:106D7000FFFFFFFFFFFFFFFFFFFFFFFFFFFFFFFF23
:106D8000FFFFFFFFFFFFFFFFFFFFFFFFFFFFFFFF13
:106D9000FFFFFFFFFFFFFFFFFFFFFFFFFFFFFFFF03
:106DA000FFFFFFFFFFFFFFFFFFFFFFFFFFFFFFFFF3
:106DB000FFFFFFFFFFFFFFFFFFFFFFFFFFFFFFFFE3
:106DC000FFFFFFFFFFFFFFFFFFFFFFFFFFFFFFFFD3
:106DD000FFFFFFFFFFFFFFFFFFFFFFFFFFFFFFFFC3
:106DE000FFFFFFFFFFFFFFFFFFFFFFFFFFFFFFFFB3
:106DF000FFFFFFFFFFFFFFFFFFFFFFFFFFFFFFFFA3
:106E0000FFFFFFFFFFFFFFFFFFFFFFFFFFFFFFFF92
:106E1000FFFFFFFFFFFFFFFFFFFFFFFFFFFFFFFF82
:106E2000FFFFFFFFFFFFFFFFFFFFFFFFFFFFFFFF72
:106E3000FFFFFFFFFFFFFFFFFFFFFFFFFFFFFFFF62
:106E4000FFFFFFFFFFFFFFFFFFFFFFFFFFFFFFFF52
:106E5000FFFFFFFFFFFFFFFFFFFFFFFFFFFFFFFF42
:106E6000FFFFFFFFFFFFFFFFFFFFFFFFFFFFFFFF32
:106E7000FFFFFFFFFFFFFFFFFFFFFFFFFFFFFFFF22
:106E8000FFFFFFFFFFFFFFFFFFFFFFFFFFFFFFFF12
:106E9000FFFFFFFFFFFFFFFFFFDFFFFFFFDFFFFF42
:106EA000FFFFFFFFFFFFFFFFFFFFFFFFFFFFFFFFF2
:106EB000FFFFFFFFFFFFFFFFFFFFFFFFFFFFFFFFE2
:106EC000FFFFFFFFFFFFFFFFFFFFFFFFFFFFFFFFD2
:106ED000FFFFFFFFFFFFFFFFFFFFFFFFFFFFFFFFC2
:106EE000FFFFFFFFFFFFFFFFFFFFFFFFFFFFFFFFB2
:106EF000FFFFFFFFFFFFFFFFFFFFFFFFFFFFFFFFA2
:106F0000FFFFFFFFFFFFFFFFFFFFFFFFFFFFFFFF91
:106F1000FFFFFFFFFFFFFFFFFFFFFFFFFFFFFFFF81
:106F2000FFFFFFFFFFFFFFFFFFFFFFFFFFFFFFFF71
:106F3000FFFFFFFFFFFFFFFFFFFFFFFFFFFFFFFF61
:106F4000FFFFFFFFFFFFFFFFFFFFFFFFFFFFFFFF51
:106F5000FFFFFFFFFFFFFFFFFFFFFFFFFFFFFFFF41
:106F6000FFFFFFFFFFFFFFFFFFFFFFFFFFFFFFFF31
:106F7000FFFFFFFFFFFFFFFFFFFFFFFFFFFFFFFF21
:106F8000FFFFFFFFFFFFFFFFFFFFFFFFFFFFFFFF11
:106F9000FFFFFFFFFFFFFFFFFFFFFFFFFFFFFFFF01
:106FA000FFFFFFFFFFFFFFFEFFFFFFFFFFFFFFFFF2
:106FB000FFFFFFFFFFFFFFFFFFFFFFFFFFFFFFFFE1
:106FC000FFFFFFFFFFFFFFFFFFFFFFFFFFFFFFFFD1
:106FD000FFFFFFFFFFFFFFFFFFFFFFFFFFFFFFFFC1
:106FE000FFFFFFFFFFFFFFFFFFFFFFFFFFFFFFFFB1
:106FF000FFFFFFFFFFFFFFFFFFFFFFFFFFFFFFFFA1
:10700000FFFFFFFFFFFFFFFFFFFFFFFFFFFFFFFF90
:10701000FFFFFFFFFFFFFFFFFFFFFFFFFFFFFFFF80
:10702000FFFFFFFFFFFFFFFFFFFFFFFFFFFFFFFF70
:10703000FFFFFFFFFFFFFFFFFFFFFFFFFFFFFFFF60
:10704000FFFFFFFFFFFFFFFFFFFFFFFFFFFFFFFF50
:10705000FFFFFFFFFFFFFFFFFFFFFFFFFFFFFFFF40
:10706000FFFFFFFFFFFFFFFFFFFFFFFFFFFFFFFF30
:10707000FFFFFFFFFFFFFFFFFFFFFFFFFFFFFFFF20
:10708000FFFFFFFFFFFFFFFFFFFFFFFFFFFFFFFF10
:10709000FFFFFFFFFFFFFFFFFFFFFFFFFFFFFFFF00
:1070A000FFFFFFFFFFFFFFFFFFFFFFFFFFFFFFFFF0
:1070B000FFFFFFFFFFFFFFFFFFFFFFFFFFFFFFFFE0
:1070C000FFFFFFFFFFFFFFFFFFFFFFFFFFFFFFFFD0
:1070D000FFFFFFFFFFFFFFFFFFFFFFFFFFFFFFFFC0
:1070E000FFFFFFFFFFFFFFFFFFFFFFFFFFDFFFFFD0
:1070F000FFFFFFFFFFFFFFFFFFFFFFFFFFFFFFFFA0
:10710000FFFFFFFFFFFFFFFFFFFFFFFFFFFFFFFF8F
:10711000FFFFFFFFFFFFFFFFFFFFFFFFFFFFFFFF7F
:10712000FFFFFFFFFFFFFFFFFFFFFFFFFFFFFFFF6F
:107B2000FFFFFFFFFFFFFFFFFFFFF7FFFFFEFFFF6E
:107B3000FFFFFFFFFFFFFFFFF7FFFFFDFFFFFFFF5F
:107B4000FFFFFFFFFFFFFFFFFFFFFFFFFFFFFFFF45
:107B5000FFFFFFFFFFFFFFFEFFFEFFDFFFDFFFFF77
:107B6000FFFFFFDFFFFFFFFFF7FEFFDFFFFFFFFF6E
:107B7000FFFFFFFFFFFFFFFFFFFFFFDFFFFFFFFF35
:107B8000FFFFFFFEF7FFFFFFFFFFFFFFFFFEFFFF0F
:107B9000FFFFFFFFFFFFFFFFFFFFFFFFFFDFFFFE16
:107BA000FFDFFFFEFFFFFFFEFFFFFFFEFFFFFFFF08
:107BB000FFFFFFFFFFFFFFFFFFFFFFFFFFFFFFFFD5
:107BC000FFFFFFFFF7FFFFFFFFFFFFFFFFFFFFFFCD
:107BD000FFFFFEFCF618FE1AFE18FE18FEFDFFFF62
:107BE000F7FFFFFFFFDFFFFEFFFFFF3DFE58FE1820
:107BF000FE38F618FE38FE18FE1AF63AFE38FE1762
:107C0000FFBEFFFFFFFFFFFFFFFFFFDFFFFFF7FFED
:107C1000FFFFFFFFFFFFFFDFFFFFFFFFFFDFFFDFD4
:107C2000FFFFFFFFFFDFFFFFFFFFFFFFFFFFFFFF84
:107C3000FFFFFFFFFFFFFFFFFFFFFFFFFFFFFFFF54
:107C4000FFFFFFFFFFFFFFFFFFFFFFFFFFFFFFFF44
:107C5000FFFEFFFFFFDFFFDFFFFEFFFFFFFFFFFE77
:107C6000FFFFFFFFFFDEFFFFFFDFFFFFFFFFFFFF65
:107C7000FFFFFFDEFFFFFFFEFFFFFFBFFFDFF7FF9E
:107C8000FFDFFFFEFFBEFFFFFFFFFFFFFFFEFFDE88
:107C9000FFFFFFFFFFFFFFFFF7FFFFFFFFFFFFFFFC
:107CA000FFFFFFFFFFDFFFFFFFFFFFDFFFFFFFFF24
:107CB000FFFFFFFEFFFFFFFFF7FFFFFFF7FFFFFEE6
:107CC000FFFFFFFFFFFFFFFEFFFFFFFFFFFFFFDFE5
:107CD000FFFFFFFFFFFFFFFFFFFEFFFFFFFFFFFFB5
:107CE000FFFFFFFFFFFFFFFEFFFFFFFFFFFFFFFFA5
:107CF000FFFFFFFFFFFFFFFFFFFFFFFFFFFFFFFF94
:107D0000FFFFFFFFFFFFFFFFFFBFFFFFFFFFFFDFE3
:107D1000FEB9E947D800E000E020E800F493FFFF57
:107D2000FFFEFFBFFFFFFF5CEB6FE0E7E803E00251
:107D3000E801E801D800E001E801E000E000E92600
:107D4000FF9DFFFFFFDFFFFFFFFFFFFEFFFEFFDFE7
:107D5000FFFFFFFFFFDEFFFFFFFFFFFFFFFFF7FE5D
:107D6000FFFFFFFFFFFFFFFFFFFFFFFFFFFFFFDF43
:107D7000FFFFFFFFFFFFFFFFFFFFFFFFFFFFFFFF13
:107D8000FFFFFFFFFFFFFFFFFFFFFFFFFFFFFFFF03
:107D9000FFFFFFFFFFDFFFFFFFFFFFFFFFFFFFFF13
:107DA000FFFFFFFFFFFFF7DF9E9F869F869DBF5F60
:107DB000FFFEFFFFFFFFFFFFEFFFB71F969E8EBF87
:107DC000AF1EF7DFFFFFF7DFFFDFFFFFFFFEFFFF65
:107DD000F7FFCF5F8EBF8E9EB6BFE7DFFFFFFFDEF0
:107DE000FFFEFFFFFFFFBF5FBF3FB75EBF5EC73E47
:107DF000EFDFFFFFFFFEFFFFEFFFBF1FC75FC73EC5
:107E0000B73FB75FFFFFFFDFFFFFFFFFFFFEFFFF93
:107E1000FFFFFFDFFFFFFFFFFFFEFFFFDEFF9CF91D
:107E200063755B157BD6BDDCFFDFFFFEFFDEFFFF6A
:107E3000FFFFFFFFFFFFFFFFFFFFFFFFFFFFFFFF52
:107E4000FFDFFFFEFFFFFFFFFFFFFFFFFFDFFDF78D
:107E5000E0C5E001E822E002E002E800FDF7FFDF14
:107E6000FFFFFFDFFE78D946E022D820E800E021BE
:107E7000E002E002D801E802D802E021E801EA2CA1
:107E8000FFFFFFFFFFFFFFFFFFDFFFFFFFFFFFFF22
:107E9000FFFFFFFFFFFFFFFFFFFFFFFFFFFFF7FFFA
:107EA000FFFEFFFEFFFFFFFFFFFFFFFFFFDFFFFF04
:107EB000FFFFFFFFFFFFFFFFFFFFFFFFFFFFFFFFD2
:107EC000FFFFFFFFFFFFFFFFFFFFFFFFFFFFFFFFC2
:107ED000FFFFFFFFFFFFFFFFFFFFFFFFFFFFFFFFB2
:107EE000F7FFFFFEEFDF5E3D04BB04FC0C9D8E9DA3
:107EF000FFFFFFFFFFBFAF3E2DBC04FC04DB04DC33
:107F000004FD3D5EC73DFFFFF7FFFFFFFFDFDFBF63
:107F10004DDC0CFB04FC04FC04BD1D3C96DEFFFFA5
:107F2000FFFFFFFFE7BF1D3C04DC053C04FD04DC54
:107F3000BEFEFFFFFFFFF7FF6E7E0CFC04DD051D9C
:107F400004FC2D9BE7DFFFFFFFFFFFFFFFFEFFFFAE
:107F5000FFFFFFFFFFFFFFFFFFFFAD9B2950106FEB
:107F6000085008501090108F6B75F7BFFFFFFFFF90
:107F7000FFFFFFFFFFFFFFFFFFFFFFFFFFFFFFFF11
:107F8000FFFFFFFFFFFFFFFFFFFFFFFFF555E06370
:107F9000E001E001E802F002E003D883FEFCF7FF15
:107FA000FFFFFF3DE925E000E002E000E801E0011D
:107FB000E022E022E022E802E823E801E042F45176
:107FC000FFFFFFFFFFDEFFFFFFFFFFFFFFFFF7DE0B
:107FD000F7FFFFFFFFFFFFFFFFFFFFFFFFFFFFFFB9
:107FE000FFFFFFFFFFDFFFDFFFFFFFFFFFFFF7FFE9
:107FF000FFFFFFFFFFFFFFFFFFFFFFFFFFFFFFFF91
:10800000FFFFFFFFFFFFFFFFFFFFFFFFFFFFFFFF80
:10801000FFFFFFFFFFFFFFFFFFFFFFFFFFFFFFFF70
:10802000FFFFF7BF4DDD04DC051C051E04DDC75F47
:10803000FFFEFFFFB6FF153D04BC04FC051D053D1A
:10804000051D04FC1D3CD77FFFFFFFFFE77F2D7D53
:1080500004DD04FE04FD04DE051D04FD04FD9EBEDA
:10806000F7FFFFDFC75F04FC04FD053C051C04FCB3
:10807000A71FFFFFFFDFE7BF153B04FC04FD053C26
:1080800004BE4DDDFFFFFFFFFFFFFFFFFFFFFFFF10
:10809000FFFFFFFFFFFFFFFFEF9F39D2109118D2C4
:1080A00063159D3A39F210D00870AD9BFFFFFFDFDA
:1080B000FFFFFFFFFFFFFFFFFFFFFFFFFFFFFFFFD0
:1080C000F7FFFFFFFFBEFFFFFFDFF493E001E021BA
:1080D000E001E001E022E801D821F167FFBFF7FFEE
:1080E000F7FFEB2EE040E801E802E002F38FFE79B3
:1080F000F75CFEFCFF3DFF1CF71CFF3CFEFBFF7E18
:10810000FFDFFFFFFFFFFFFFF7FFFFFFFFDFFFFFC7
:10811000FFFEFFFFFFFFFFFFFFFFFFDEFFFFFFFF91
:10812000FFDFFFFFF7FFFFFFFFFFFFFFFFFFFFFF87
:10813000FFFFFFFFFFFFFFFFFFFFFFFFFFFFFFFF4F
:10814000FFFFFFFFFFFFFFFFFFFFFFFFFFFFFFFF3F
:10815000FFFFFFFFFFFFFFFFFFFFFFFFFFDEFFFE51
:10816000EF9F45FE04FC04DD0D3D053B1D3CE7BED5
:10817000FFDFEFBF255C04DD04FD1DBEC73FAF1F61
:108180000D3D04FE04BC665EFFFEFFFF561D04BAF3
:10819000051D051C9EFDC79F3D7C04FD04FD2D9B18
:1081A000F7FFFFFF96BE04DC04FE04FC051D04DDA2
:1081B000A6FEF7DFFFDF765E04FC04FF053D04FD4D
:1081C00004DC86BEFFFFFFFFFFFFFFFFFFFFFFFF97
:1081D000FFFEFFFFFFFFFFFFD69C293110D11930B2
:1081E000CE7CFFFF4A9410D0089194D8FFFFFFFF88
:1081F000FFFFFFFFFFFFFFFFFFFFFFFFFFFFFFFF8F
:10820000FFFFFFDFFFFFFFFFFBD0E801E001E80118
:10821000E803EA09D843E802E001FA4CFFFFFFFE59
:10822000FEBCE863E000E001E021F3EFFFFFFFFFA9
:10823000FFFFFFDFFFFFF7FFFFFFFFFFF7FFFFDF9E
:10824000FFDFF7DFFFFFFFFFFFFFFFFFFFDFFFFFA6
:10825000FFDFFFFFFFFFFFFFFFDFFFFFFFFFFFDF8E
:10826000FFFFFFFFFFFFFFFFFFFFFFFFFFFFFFFF1E
:10827000FFFFFFFFFFFFFFFFFFFFFFFFFFFFFFFF0E
:10828000FFFFFFFFFFFFFFFFFFFFFFFFFFFFFFFFFE
:10829000FFFFFFFFFFFFF7FFFFFFFFFFFFFFDFBF56
:1082A00035BD04DC053D0D3D04DB04FD45DDFFFE71
:1082B000FFFF7E7F04DC051E0CFCA6BEFFFEFFDF79
:1082C00045BD0CFC04DD359EFFFEB71F04FC051DFB
:1082D00004FC6E5EFFFFFFFF865E04FC0D1E04FEC5
:1082E000D77EFFFF561E04FD04FE1D3D053D04BD67
:1082F000969DFFFFDFBF153C051C04FD053C051CDA
:1083000004FBBF3FFFFFFFFFFFFFFFFFFFFFFFFE7D
:10831000FFFEFFDFFFFFFFFFDF1D319110CF10EFEA
:1083200073D65B1318D010902950CEBCFFFEFFFF10
:10833000FFFFFFFFFFFFFFFFFFFFFFFFFFFFFFFF4D
:10834000FFFFFFFFFFBEE32EE000E021D803E802BD
:10835000FD14FCF2E000E801E000EBD0FFFFFFFFBE
:10836000F471E000E822E002F0E6FFDDF7FFFF7DB8
:10837000F617FDF9F638F658FE19F618F679FFDF0C
:10838000FFFFFFFEF7FFE7BFFFFFFFFEFFFFF7DF87
:10839000EFBFE7DFE7FFEFDFEFBFE7FFDFBEFFFE87
:1083A000FFFEFFDFFFDFEFDEF7BFF7DFE77FFFFF57
:1083B000FFFFFFFFFFFFFFFFFFFFFFFFFFFFFFFFCD
:1083C000FFFFFFFFFFFFFFFFFFFFFFFFFFFFFFFFBD
:1083D000FFFFFFDFFFFFFFFFFFFFFFDFCF9F359BAB
:1083E00004BB04FE763E55FD04FD04DD7E5FF7FF11
:1083F000F7DF257D051C04DC2D9DEFFFF7FEFFDF79
:1084000045FD04FC04FD1CFDF7FF661E04DC04FDB5
:108410000D1CD79FFFDEFFFF867E04DD051C051CBB
:10842000D75EFFFF2D7D051B051D3DBE0D3C04FCE9
:10843000767EFFFF6E5D04FC0CFD3DBD0D1E04DC71
:108440000D5EE77FFFFFFFFFFFFFFFFFFFDFFFFF87
:10845000FFFFFFFFFFFFFFDFFFFF5AD418D018F226
:1084600010D110B1108F3171B59DFFFFFFFFFFFFDD
:10847000FFFFFFFFFFFFFFFFFFFFFFFFFFFFFFFF0C
:10848000F7FFFF5DEA4AE801D821E801D863FD352E
:10849000FFFFF330E000E003D800F535FFDFF7FF22
:1084A000EA4AE802E001E040F38EFFDFFFFEF492CB
:1084B000E801E002E022E802E802F001E146FFFE06
:1084C000FFFEFFFF4DFC1D1CB73FFFFEF7FF8E9E1A
:1084D000051D0D5C1D5B255D1D1E053D1D1B96DFED
:1084E000FFFE96DF2DBE0D3C153D053E255BCF9F63
:1084F000FFFFFFFFFFFFFFFFFFFFFFFFFFFFFFFF8C
:10850000FFFFFFFFFFFFFFFFFFFFFFFFFFFFFFFF7B
:10851000FFFFFFFFFFBFFFFFFFFFCF7F257D04BDF4
:1085200004FC7EBFF7DF1D7D04FC04FDB6FEFFFFEB
:10853000C73F04FD053D04BD6E7EFFFEFFFFFFDF6C
:10854000259C051E04FC25BDEFBE1D9D04DC051DFC
:10855000359EF7FFFFFFFFFF6E7D04DD051D04FE66
:10856000D77FE7BE055C0CDD04FD867D151D04FC90
:10857000767EE7BF0D1C0CDC2D7D665E04DC0CDD19
:1085800035BCFFDFFFDFFFFFFFFEFFFFFFFFFFFF49
:10859000FFFFFFFFFFFFEF5E83F8297018F119104E
:1085A000193010917396E75DFFFFFFFFFFFFFFFF9C
:1085B000FFFFFFDFFFDFFFFFF7FFFFFFFFDFFFFF33
:1085C000F73AE188E801D841E001E0C5FDD8FFFFB6
:1085D000FFFFE9C9E800E802E802FE38FFFFFFBF3D
:1085E000E127F001E021E001FD35FFFFFFBFF2EBE5
:1085F000E020E001E000E022E802E801EAAAFFFF53
:10860000FFDFEFFF1D5D04FCCFBEFFFFFFFF767CA9
:108610002D9C2D7C0D3D04FD259D359E3D7DC79FE8
:108620007E5D04BD0D3D2D7E3D9D2D7E45FCF7DF1D
:10863000FFFFFFFFFFFFFFFFFFFFFFFFFFFFFFFF4A
:10864000FFFFFFFFFFFFFFFFFFFFFFFFFFFFFFFF3A
:10865000FFFFFFFFFFFFFFFFBF1F257C04DC055C62
:10866000A6BFF7DFDFBF051C051C0D3DDF7FFFFF49
:1086700096BE0CFC051D0CDD96BEFFDFFFFEDF9FE6
:10868000155C0CDD04FE4DBDD75F0CFB051E04DB45
:108690005DFEFFFEF7FFFFFF45DD04BD053D153D17
:1086A000EFDFBF1E051C04DD155EAF5F0D1D04DD91
:1086B0005E3E7E3E04FD04FD8EBF563E04FD04BDBD
:1086C0005E3DFFFFFFDFFFFFFFFEFFFFFFFFFFFF3E
:1086D000FFFFFFFFD6FD39D2088F18F010B010D081
:1086E00018F118F17BF6F7FFC63BDEFEFFFFFFFE39
:1086F000F7FFFFFFFFFFFFFFFFFFFFFFFFFFFE7A18
:10870000F0E5E022E000E801E105FE17FFFEFFBF13
:10871000FF5DE0C6E800E002D8A4FF3BFFFEFEDB01
:10872000E0A5E800E000E022F638F7FFFFFFEA6D81
:10873000E885E8E7E864E801E001E801F410FFFFFC
:10874000FFFECF5E04FD259EEFFFFFBFFFDFFFFFB3
:10875000FFDFE7DF1D5D151BDFBFFFFFFFFFB71E5C
:10876000051C1D5DD79FFFFFFFFFFFFFFFFFFFFF02
:10877000FFFFFFFFFFFFFFFFFFFFFFFFFFFFFFFF09
:10878000FFFFFFFFFFFFFFFFFFFFFFFFFFFFFFFFF9
:10879000FFFFFFFFFFFFE79F2D5B04DE04FC3D9D15
:1087A000A6DFA6DE5DFD051E051D153D969ED79E26
:1087B000869E04DD04DD053CBF3FFFDFFFFFBF3FBA
:1087C000051D04FD04BC869FD77F053D04DD04FC28
:1087D000867FFFFFFFFFEF9F153E04DD04DB35DDE5
:1087E000FFFF867E04FC04FD2D9DD7BF0CFC051DFC
:1087F0002D7D253D04FD1D7DD77F1D7D04FC04FEE0
:1088000096DFFFFFFFFFFFFFFFFFFFFFFFFFFFFF01
:10881000FFFFF7DF52940890193118D18C79633437
:10882000108F20F218D0635620F13992C63BFFFF1B
:10883000FFFFFFFFF7FFFFFFFFFFFFFFFFFFDACBA9
:10884000E001D801E002E022E083F1A8E147E94736
:10885000F0E7E023D801E803E002D906EAADEEBA7A
:10886000E022E021E801E801FDD9F7FFFFFFFF7DED
:10887000FF7DFF7DF30CD822D821E000F555FFFFE6
:10888000FFFFB71F047C4DDEFFFFFFFFFFFFFFFF71
:10889000FFFFD77F04FD1D7CFFFFFFFFFFFF561C7E
:1088A00004BC4DFEBF3FB71EBEFFA6FFD77EFFFF35
:1088B000FFFFFFFFFFFFFFFFFFFFFFFFFFFFFFFFC8
:1088C000FFFFFFFFFFFFFFFFFFFFFFFFFFFFFFFFB8
:1088D000FFFFFFFFFFFFB71F04DD04FE051D0CFDBA
:1088E00004DC04FB04DD051E04FD04DD04FCAEDE37
:1088F00096BE04DC04FE053CCF7FFFFFFFFF6E3D0C
:1089000004DD051D053DCF9FCF7E051D04FD04FC44
:108910008E9EFFFFFFFEAEFF04FD051D04DC86BE3C
:10892000FFFE4DFE04DC04FD5E1DF7DF151C04FC9C
:1089300004DD051C04DD96BDD75E04FD04FC0D1CA2
:10894000CF5FFFFFFFFFFFFFFFDFFFFFFFFFFFFF27
:10895000FFFFDEDE20F118F0088E73D7FFFFEF5E19
:108960004A72109018F110B218F2088F5AB4FFFF33
:10897000FFFFFFFFFFFFFFFFFFDEFFFFFFDFF10550
:10898000E801E823E002E002E002E001E001E000AB
:10899000E800E001E803E002E040F000F22AFEFC1B
:1089A000E0A3E001E802E801F370FFFFFFFFFFFF33
:1089B000FFFFFFDFE9E8D801E001E022FE5AFFDF18
:1089C000FFFF867E0CBD765FFFFFFFFFFFFFFFFE10
:1089D000FFFFAEFF04BC561DFFDFFFDFF7DF255CA6
:1089E00004DC04FD04BC04BC04BD049C96BEFFFF73
:1089F000FFFFFFFFFFFFFFFFFFFFFFFFFFFFFFFF87
:108A0000FFFFFFFFFFFFFFFFFFFFFFFFFFFFFFFF76
:108A1000FFFFFFFEFFDF6E5E0CBB04DC04FC04DD29
:108A200004BD051C051D0CFB051D04FC04FCDF9F9B
:108A3000B71E04FB04DC04FCAF1FFFFFCFBF155CB7
:108A400004DC04BD45DDF7FFE79F14FD04FC04FDD5
:108A5000767EFFFEE7FF4DBD04DB051D1D3CE79F55
:108A6000F7FF1D7D04FD04FD8EBEFFFF1D5D04FDAF
:108A7000051D051C155EF7BE96BE04FD051D155DA2
:108A8000EFBFFFFFFFFFFFFFFFFFFFFFFFFFFFFF46
:108A9000FFDFDEBD18D018F010CF6B96FFFFFFFF91
:108AA000C67C211118EF190F19112972DF3EFFFF43
:108AB000FFFFFFFEFFFFFFFFFFFEFFDFFEBBE083C8
:108AC000D820E000E000E801E801E020E000E80054
:108AD000E001E002E023E002E801E800EC10FFFF23
:108AE000E926E001E002D801E804F3AEF555FD7592
:108AF000F595FCF4E8C4E822E801E8C4FF7EFFFF36
:108B0000FFFF4DFE04FD96BFFFFFFFDEFFFFF7FFF7
:108B1000FFFF7E9E049D6E5DFFFFFFFFEFBF04FE23
:108B2000051D665E8EBD8EBE8EBE8E7FDF7FFFFF13
:108B3000FFFFFFFFFFFFFFFFFFFFFFFFFFFFFFFF45
:108B4000FFFFFFFFFFFFFFFFFFFFFFFFFFFFFFFF35
:108B5000FFFFFFFFFFFFA71E765C869E767E865E88
:108B6000867E763D051D04FC051D5E3E8E7DFFFF65
:108B7000E7DF153D051D04BD359D969E3D9C04FD1A
:108B8000051E151DCF5FFFDFFFFF45BD04DE051D80
:108B9000253C86DE55FE04FD04FD04FD9EDFFFDF5F
:108BA000CF7F04FC051D04DDAF1EFFFF255D04FD26
:108BB000051D04DB7E7FFFDF45DD04DD04FD45DDB3
:108BC000FFFFFFFFFFFFFFFFFFFFFFFFFFFFFFFFB5
:108BD000FFFFEFBF39D210B1191121126B757BF76E
:108BE0003A1220F218F018F0191010B094B8FFFFE4
:108BF000FFFFFFFFFFFFFFFFFFFFFFDFFF5DFCB198
:108C0000F4B4F493F4D3F4B3FCD4ECB2ECD3FCD4CA
:108C1000E947D802E002E802EB6EF4B2FEDBFFFFA8
:108C2000EB8EE001E801E001E001E000D802E002A3
:108C3000E002E003E000E001D801F1C9FFFFFFFF1F
:108C4000FFFE3DDD04DD9EDEFFFEFFFEFFFFFFDFDA
:108C5000FFFF4DDC0CFD9EFEFFFFF7FFEFDF0D5E1B
:108C6000049EAEFFFFFFFFDFFFFFFFFFFFFFFFFFE1
:108C7000FFFFFFFFFFFFFFFFFFFFFFFFFFFFFFFF04
:108C8000FFFFFFFFFFFFFFFFFFFFFFFFFFFFFFFFF4
:108C9000F7FFFFFFFFFFFFFFFFFFF7FFFFFFFFFFF4
:108CA000F7FFBF3F051E04DD24FCD7BFFFFFFFFF1A
:108CB000FFFF8EBF04BC04DC053C04BC04FD0CBCFF
:108CC0000D3BAEDEFFFFFFFEFFDFBF5E04FC0CDCF2
:108CD00004FE04DC04DD04BC0D1C765EFFFFFFFF18
:108CE0009EDF04DC04FC0D1CD77EFFFF359D04FCD9
:108CF00004DC255BE79FF7DF1D7D04FC04DD867D3A
:108D0000FFFFFFFFFFFFFFFFFFFFFFFFFFFFFFFF73
:108D1000FFFFFFFFB5B92110108F10AF088F088F2C
:108D20001090108F20F1295110702931C61CFFFFBF
:108D3000FFDFFFFFFFFFFFFFFFFFFFFFFFFFFFDE84
:108D4000FFFFFFFFF7FFF7FFFFFFFFFFFFFFFFDF63
:108D5000E968E002E000E063FEBBFFFFFFFFFFDF2A
:108D6000FEFCE147E002E001E802E000E001E80289
:108D7000E001E801E042E801E001F30EFFFFFFFF40
:108D8000FFFF65FE049D1D3D4DFD5E1E55DED7BFF8
:108D9000FFDF357E04BDCF3FFFDFFFFFFFFF55DD67
:108DA00004BE0D1C45FC661E4DDD769DF7FEFFFFE3
:108DB000FFFFFFFFFFFFFFFFFFFFFFFFFFFFFFFFC3
:108DC000FFFFFFFFFFFFFFFFFFFFFFFFFFFFFFFFB3
:108DD000FFFFFFFFFFFFFFFFFFFFFFDFFFFFFFFFC3
:108DE000FFDFA6DE155D1D3D561EFFFEFFFFFFFFE8
:108DF000FFFFFFFE96BF1D7D051E0D1D0D5D4DFE87
:108E0000C77FFFFFFFBFF7FFFFDFFFFEBF5F359E9E
:108E10000D1D151D0D3C35DD9EFFFFFFFFFFFFFF04
:108E20008E7E1D7D1D5C35DEFFDEFFFF561E155C50
:108E30001D5D7E9EFFDFD77F257D1D7C253CAF3FDE
:108E4000FFFFFFFFFFFFFFFFFFFFFFFFFFFFFFFF32
:108E5000FFFFFFFFFFFFD69C73974A5431D431D2F6
:108E60003A336376BE1CDF1E5AF4BE3AFFFFFFFFA3
:108E7000FFFFFFFFFFFFFFFFFFDFFFFFFFFFFFFF22
:108E8000FFFFF7FFFFFFFFDFFFDFFFFFFFFFF75CE5
:108E9000E8C5E041E041E125FFBFFFDFFFFFFFFF45
:108EA000FFFFFF5CF36EE125E845E063E863E04324
:108EB000E842E862E042E842E022EC92FFFFFFFF76
:108EC000FFFFD79F45BD053D051C051C04FDD79F31
:108ED000F7BE153F157CE7FFFFFFF7FFFFFFE7BF7A
:108EE00055FC0D7D051C04FE04FD45FDFFFFFFFF45
:108EF000FFFFFFFFFFFFFFFFFFFFFFFFFFFFFFFF82
