:020000040800F2
:10000000D881002045010008432900081D1E000872
:10001000412900082B020008112A000800000000F6
:100020000000000000000000000000006729000838
:100030002D02000800000000652900086929000859
:100040005F0100085F0100085F0100085F01000810
:100050005F0100085F0100085F0100085F01000800
:100060005F0100085F0100085F0100085F010008F0
:100070005F0100085F0100085F0100085F010008E0
:100080005F0100085F0100085F0100085F010008D0
:100090005F0100085F0100085F0100085F010008C0
:1000A0005F0100085F0100085F0100085F010008B0
:1000B0005F0100085F0100085F0100085F010008A0
:1000C0005F0100085F0100085F0100085F01000890
:1000D0005F0100085F0100085F0100085F01000880
:1000E0005F0100085F0100085F0100085F01000870
:1000F0005F0100085F0100085F0100085F01000860
:100100005F0100085F0100085F0100085F0100084F
:100110005F0100085F0100085F0100085F0100083F
:100120005F0100085F0100085F0100085F0100082F
:10013000DFF80CD000F04AF800480047656200087C
:10014000D88100200648804706480047FEE7FEE7C2
:10015000FEE7FEE7FEE7FEE7FEE7FEE7FEE7FEE777
:10016000C92900083101000810B5431A934209D289
:100170008318881803E010F8011D03F8011D521EB2
:10018000F9D210BD40EA01039B0703D009E008C97A
:10019000121F08C0042AFAD203E011F8013B00F84C
:1001A000013B521EF9D210BDD2B201E000F8012B82
:1001B000491EFBD270470022F6E710B513460A46E7
:1001C00004461946FFF7F0FF204610BD064C074DC8
:1001D00006E0E06840F0010394E807009847103417
:1001E000AC42F6D3FFF7A8FF74830008948300089D
:1001F00030B58C1810F8012B12F00F0301D110F854
:10020000013B120906D110F8012B03E010F8015B45
:1002100001F8015B5B1EF9D101E001F8013B521EC0
:10022000FBD1A142E6D3002030BDFEE77047704706
:1002300070B50C46054600F0FFF8A8682168C16259
:1002400061680163A1684163490707D5D0E90021CE
:10025000C0E90012D0E90221C0E90212A18981841B
:100260002169002903D001DC4FF00001016270BD5B
:100270002DE9F0411E4617468846054600F0DCF899
:10028000AC686822414604F58670FFF76DFF28468A
:10029000B8472846B047286980688047A062BDE813
:1002A000F081000010B5044600F0C6F8A0681149BE
:1002B000144AC0F8AC101049C0F8A8100F49C0F893
:1002C000B0100F49C0F8B8100021C0F8BC10136876
:1002D000C0F8B4300C4BC0E932315168C0F8C410DA
:1002E00030F8261F21F0030120F82A1B074941643A
:1002F00010BD00003552000835530008FD510008BC
:10030000874E00089C000020574F0008AD510008A0
:1003100010B5044600F090F8A46810480821C4F80D
:10032000E4000F48C4F8E8000E48C4F8EC000E489A
:10033000C4F8F0000D48C4F8A0000D48C4F8A400AB
:10034000D4F8C800C4F8FC00D4F8942020469047A4
:100350001020A0630748606410BD00001D3E000827
:100360004143000879030008A9040008414E000831
:10037000F7540008A47F0008F8B5846815460F46B6
:1003800094F8260080074CD5D4F8003120469847D1
:100390000646D4F804312A46394620469847D4F810
:1003A000983005461BB1002201212046984720695C
:1003B000B04201DD012000E00020A169B14201DA74
:1003C000012100E0002108436169A94201DD01210A
:1003D00000E000210843E169A94201DA012100E0BF
:1003E000002108430AD060680022401E0090236864
:1003F000D4F8A870114620465B1EB847D4F8AC303C
:100400002A46314620469847D4F8A010204688470F
:10041000D4F8983005466BB1012200212046984758
:1004200008E0D4F8AC3020469847D4F8A010204615
:10043000884705462846F8BD70B504468068002800
:1004400012D14FF4BA75284600F024FA2A4600214A
:10045000A06001F06DF8A0680221C184012104644C
:1004600001620249C0F8081170BD00007104000863
:1004700010B590B0044620220A496846FFF774FE82
:1004800008492022203108A8FFF76EFE606B5DF856
:100490002010C4F8001108A951F82000C4F8040184
:1004A00010B010BD546500082DE9F84384689846E3
:1004B000154694F826000F46800740D5D4F8003141
:1004C000204698470646D4F804312A463946204645
:1004D000984705462069B04201DD012000E0002078
:1004E000A169B14201DA012100E0002108436169FC
:1004F000A94201DD012100E000210843E169A94290
:1005000001DA012100E0002108430AD060680022DE
:10051000401E00902368D4F8A870114620465B1E48
:10052000B847D4F8AC302A46314620469847D4F82C
:10053000A42001B041462046BDE8F0431047D4F85E
:10054000AC30F2E72DE9F04FDFF828B191B04FF071
:10055000FF35DBF80030B3F922100691DE69B3F9FC
:1005600024A0F469A189814206D8E289824203D39A
:10057000471AD4F8008012E0D4E90181002970D034
:100580000A8882426DD84D8885426AD3801A82B229
:10059000486800EB8200B0F90070B0F90250781C96
:1005A0005FD0307EA27C014600FB02F9207CCDE9C1
:1005B0000710B3F92A60304601F034FFC0B20E9044
:1005C000DBF8001007FB0980A37C8A6B0127CDE9CB
:1005D0000402CDE90273C869089AC17E807ECDE924
:1005E0000001DDE90603514601F028FC681C18D023
:1005F00046F0020001F016FFDBF80000A37C05FBCB
:100600000981826BCDE90273CDE90412C069089AB1
:10061000C17E807ECDE90001DDE90603514601F08F
:100620000DFCDBF800005D46C069417E007E814222
:1006300014D9022E12D086F0040001F0F3FE2868CF
:10064000C069027EC37E857E02FB03A1437E089AB9
:100650000698534402FB050201F052FD0E9801F08A
:10066000E1FEDBF80000627C418C1144418411B052
:10067000BDE8F08F4C00002004480068C069C069E4
:1006800009B1027C0A60407C704700004C000020E9
:10069000022008807047C06982898A4202D8C289D4
:1006A0008A4210D2806880B102888A420DD843887D
:1006B0008B420AD3406800EB8100A0EB8200B0F9C6
:1006C0000000002801DB0120704700207047000077
:1006D0002DE9F0432F4C034687B020681946B0F946
:1006E0002A80C069C06900F082F800284ED04168B5
:1006F0000088181A01EBC0054046AE7801F092FE62
:10070000814620686A680123816BCDE90236CDE914
:100710000421C169CB7E8A7ECDE900230B7EB0F92E
:1007200024102A78B0F9220001F088FB2068C06903
:10073000477E067EB7421DD9C07E47434643B8F187
:10074000020F17D000F0E2FA804600F0C7FA00F07E
:1007500039FC21682A78CB69B1F92200B1F924105B
:10076000DB7E02FB0302CB19314401F0C9FC404699
:1007700000F028FC484601F055FE20686A78C369FD
:10078000B0F922109B7E02FB0311418407B0BDE843
:10079000F08300004C00002030B50E4C05460B469F
:1007A00020682946C069C06900F021F8002810D0EF
:1007B0004168008824682A1A0120E46900EBC2001D
:1007C000085CA47E6043002B03D011F83210614313
:1007D000196030BD4C00002001200880704700B532
:1007E000C06900F004F8002800D0012000BD06E038
:1007F00002888A4202D842888A4202D2806800284F
:10080000F6D17047002801D002F0B0BD704738B56E
:100810000546FFF7F7FF040009D000F093F82A46D9
:100820000021009000F084FE684600F099F8204610
:1008300038BD0000024A106021F00300506070478C
:10084000A07C002010B5002814D004460A48406B54
:1008500010F8341000290DD002290BD2042101EB2D
:10086000C4014158486802F039FD2046BDE81040F7
:1008700004F0D2BA10BD0000E07B0020002805D0B3
:10088000034AD16B016001B14860D063704700003A
:10089000E07B00202DE9F041044604F083F928486C
:1008A000E41C24F00305016C2D1DA94200D90D465E
:1008B000C46B13E054F8042CAA420ED184B1216811
:1008C00009B162684A60616809B122680A60C26B56
:1008D000A24231D12168C1632EE02468002CE9D105
:1008E0008046816BC0680F1857F8040C3E1A3068B8
:1008F00038B1002004F06EFB57F8040C3E1A306843
:10090000D0B97068A84217DB3044441B3046241D20
:1009100004F046FBD8F80C10491BC8F80C10D8F8A6
:1009200014102944C8F814107068401B02D03146D6
:1009300002F0D4FC44F8045C2046BDE8F0810000DD
:10094000E07B00200549CA69521CCA61496B01EB72
:10095000C0010A78521C0A7000F01AB8E07B00202F
:100960000A4902684B6B52F8082C03EBC202137859
:10097000022B03D3CB690BB15B1ECB611178491EEF
:10098000117000210160084670470000E07B0020E4
:10099000002806D00349042202EBC000496B085826
:1009A00008307047E07B002010B5C2B2CBB2D21A3B
:1009B00000D5524293B25B43C0F30722C1F3072430
:1009C000121B00D55242000C92B2A0EB114002FB68
:1009D000023200B2002801DA404200B280B200FBCD
:1009E000002010BD10B50021084600F0C7F943F6FD
:1009F000FF725042BDE8104013460146AFF300803D
:100A00002DE9FC4107461C4615460E46042001F020
:100A100009FD80461148C068C16C006D0F44064452
:100A20000D440444ADF80070ADF80450ADF8026018
:100A3000ADF80640684602F0DBFA07E023462A4696
:100A40003146384601F05CFB02F094FA0028F5D1FB
:100A5000404601F0E7FCBDE8FC81000040000020BA
:100A60002DE9F0411C4616460D460746022B02DBD7
:100A70000020BDE8F0811C20FFF70CFF0028F8D013
:100A80000DB105610AE0094A52F8241009B905E0E0
:100A900011460A68002AFBD10969016184618682D6
:100AA000002101604160C0E90217E2E76400002014
:100AB00070B51D46FFF7D4FF040009D000F00EF812
:100AC000E068006820B90348006800EB8500846591
:100AD000204670BD4C000020FFF7D0BE70B590B32B
:100AE0008269022A30DA1E4C54F8221019B944F8EF
:100AF000220032E019464B68002BFBD106E0CB68A0
:100B0000C5681B682D68AB4203DD09680029F6D172
:100B10001AE0C1B1CB68C6681B683668B3420CD115
:100B2000838A012B05D008E01946DB681B68AB42BD
:100B300003DB0B68002BF7D129B14B6833B1186088
:100B40004A68426004E0FFE7012070BD44F82200DB
:100B50004860884200D100210160002070BD000083
:100B6000640000200A4A816952F82130834202D190
:100B7000036842F82130416809B102680A600168DF
:100B800009B142684A60002101604160704700007D
:100B900064000020022801DB00207047054951F85D
:100BA000200004E0C16809680029F6D00068002828
:100BB000F8D17047640000202DE9FC4706005BD0A7
:100BC00000F0ACF83B4C81462068B0F9228000F080
:100BD000ADF8216807468A8CD01B888441E000BFAD
:100BE00047F6FF71304600F0BBFB824601463046B7
:100BF00000F08CFB2168054691F82C0000F0030002
:100C000001283FD0022839D000204A8C101A48848D
:100C1000ADF800006A1E1044ADF80400888CADF8F1
:100C20000200A9F101010844ADF806006A465146E8
:100C3000304600F013FB2168BDF80200888451465D
:100C4000304600F013FA064430780A281CD00D28EC
:100C50001AD0BDF80000216828444884307818B1C3
:100C6000761C30780028BBD12068818C394481847F
:100C7000818D21F003018185BDE8FC8705EBD570EE
:100C80004010C2E72846C0E7206890F82C1001F019
:100C9000030101290BD0022909D0018C418431784C
:100CA0000A29DBD1828C02EB09018184D6E7A0F806
:100CB0002280F4E74C000020024B1B6859849A8480
:100CC000FFF77ABF4C000020034951F82000C168AB
:100CD0008A6A0821104700006400002010B501F066
:100CE0003FFABDE8104001F0B1BA000002490968BE
:100CF000C9694A68002110474C000020024A126866
:100D0000D2695268104700004C00002010B501F075
:100D10002FFABDE8104001F099BA000002480068BF
:100D2000C069407E704700004C0000200A49002046
:100D3000096891F82C2002F00C02042A07D0082A36
:100D400001D00C2A02D1C869007E40087047C869EA
:100D5000007E401E704700004C000020024951F800
:100D6000200000690068704764000020024951F8C3
:100D700020000069406870476400002070B50D468F
:100D800003F094FE0446284603F098FE204370BD0D
:100D90002DE9F0411948016821F00101016018486E
:100DA000012585601749016000681749884200D015
:100DB000FEE700F039FA154E2E20307000F0A1F950
:100DC000134803F0B7FE05F0FBF8074601F004FAFC
:100DD00010B101F00BFA38B901F00EFA044601F037
:100DE00001FA214601F018FB0021084600F0FCF84A
:100DF00001F03AFF75703846BDE8F081002000E050
:100E000000300240C2A507F4CDB5E8B5400000208F
:100E1000AC7C002038B5040018D00D480068006E86
:100E2000A04201D100F0ABF82046FFF78BFD009007
:100E3000406908B100F042F900980068FFF74CFEE5
:100E40006846FFF78DFD2046FFF7FCFC38BD00002B
:100E50004C00002038B5002460B1FFF773FD00900E
:100E6000006800698068804701F08AFC0446684693
:100E7000FFF776FD204638BD38B5002808D0FFF7CB
:100E800061FD00F1180400906846FFF769FD2046F7
:100E900038BDF8B516460F46050012D0FFF752FDD3
:100EA000009044696846FFF75BFD2846FFF7D2FFD4
:100EB0000346082800DD2CB132463946284604F0A6
:100EC00053FBF8BD32463946284604F0EDFCF8BD28
:100ED00010B5002821D009B30AB3B1F90040B2F926
:100EE00000309C4200DA23460380B1F90240B2F997
:100EF00002309C4200DA23464380B1F90440B2F943
:100F000004309C4200DD23468380B1F90610B2F91B
:100F10000620914200DC1146C18010BD11460A68CE
:100F200002604968416010BD00280BD003880B4463
:100F30000380838819448180418811444180C1889D
:100F40001144C1807047B0F90220B1F906309A42CD
:100F500013DCB1F90220B0F906309A420DDCB0F989
:100F60000020B1F904309A4207DCB1F90010B0F961
:100F70000400814201DC012070470020704710B559
:100F800001F0E0F901F096FABDE8104001F042BD31
:100F900070B5094D0446022C2868467C09D22046CB
:100FA000FFF7F8FD28B128684474FFF7E8FF03480D
:100FB0000460304670BD00004C000020C4000020DA
:100FC00001F0E0B901F016BA0149886070470000ED
:100FD0004000002003490968CA6900B1C861104691
:100FE000704700004C000020094A30B41080094AC4
:100FF0001180094A1268537C084A52F82330DA6893
:10100000146A0A46A446014630BC184660470000F0
:1010100074000020760000204C00002064000020B6
:1010200002480068002800D00047704748010020AF
:1010300002498A6802B98860FFF7F2BF38010020D0
:101040002DE9F041084E04460568306801682846DD
:10105000884707463068416828468847284420600A
:101060003846BDE8F0810000500000202DE9F04135
:101070000C4606460025064F05E0386841683046B4
:10108000884706440544641EF7D22846BDE8F0812F
:10109000500000202DE9F0411E46069C1746884668
:1010A00005463A46A8687F1C3346D0F804C041463E
:1010B0002846E047641EF4D1BDE8F08138B5054606
:1010C000FFF740FC00908189491E0CB2848168467C
:1010D000FFF746FC002C02D12846FFF7B3FB38BDD2
:1010E00010B54FF4A0410448FFF7A4FBBDE8104041
:1010F0000248FFF769BF000058010020886C000813
:101100007047704710B5082A0EDC0346012A18D034
:10111000022A56D0042A76D010F8042B03F8012BAB
:10112000491EF9D1012010BD102A08DC4FEA000247
:1011300030F8043B22F8023B491EF9D1F2E70020C7
:1011400010BD10F8042BD207120E491E34D010F82F
:10115000044B491E04F0010442EA84122CD010F81A
:10116000044B491E04F0010442EA441224D010F852
:10117000044B491E04F0010442EA04121CD010F88A
:10118000044B491E04F0010442EAC40214D010F8D2
:10119000044B491E04F0010442EA84020CD010F80A
:1011A000044B491E04F0010442EA440204D010F842
:1011B000044B04F00104224303F8012B0029C0D1A1
:1011C000B0E710F8042B9207120E491E15D010F844
:1011D000044B491E04F0030442EA04120DD010F837
:1011E000044B491E04F0030442EA840205D010F8BF
:1011F000044B04F003042243491E03F8012B002989
:10120000DFD18FE7FFE710F8042B1207120E491EFB
:1012100005D010F8044B04F00F042243491E03F8D4
:10122000012B0029EFD17DE70A4810B5816900291B
:101230000ED101218161FFF753FF01F04DF90549FE
:1012400005481C310860BDE81040084600F068B948
:1012500010BD000040000020654D00087CB506462A
:1012600028480D46006868B1002001F0C1FE06E084
:101270006A462946304602F099F901F07BFE0028C3
:10128000F6D17CBD106800901F4C50680190226818
:10129000BDF8000032F84C1F0844ADF80000BDF85E
:1012A000020091880844ADF80200BDF804001188DE
:1012B0000844ADF80400BDF8060091880844ADF874
:1012C0000600684601F094FE0EE000BF2068BDF8FD
:1012D00000106A464184BDF80210818429463046D8
:1012E00002F064F901F046FE0028EFD1206830F8E2
:1012F000221F428D891A01804188C28D891A41803E
:101300007CBD0000700000204C00002073B5124A24
:1013100001A900981268904700240090C8B10F49B5
:1013200000250968C969496959B10A684AB1019932
:1013300090477CBD6846FFF783FE0546FFF7D6FC65
:1013400004440198401E0190F4D5284600F024F88A
:10135000044420467CBD0000340100204C000020E5
:1013600073B50D460098002490B10A490968C9690F
:10137000496959B14A684AB1294690477CBD6846D7
:10138000FFF75EFE20B10A2802D0641CAC42F6DBF7
:1013900020467CBD4C00002038B5002469460094EE
:1013A000FFF7ACFC0099814200DD0C1A204638BDE5
:1013B000B0F90030B1F90020934200DA0280B0F9B0
:1013C0000230B1F90220934200DA4280B0F90430D1
:1013D000B1F90420934200DD8280B0F90620B1F912
:1013E00006108A4200DDC180704770B5B1F9004037
:1013F000B2F900309C4200DD23460380B1F902506F
:10140000B2F90240A54200DD2C464480B1F90460E7
:10141000B2F90450AE4200DA35468580B1F90610C3
:10142000B2F90620914200DB1146C1809D4201DBEA
:10143000A14201DA002070BD012070BD01460248C2
:101440000068407C00F002B84C0000202DE9F84311
:1014500001268946044602285DDA304F7A6802B1D7
:1014600090472E4D5FEA090005F1100532D00128A2
:1014700003D0B9F1020F4ED118E055F8240088B915
:101480002046FFF787FB009018B3C0680D21426A21
:101490006846904702003ED049460098904755F86C
:1014A00024000026401C45F8240034E02046FFF7C5
:1014B00071FB009068B1C0680D21426A6846904790
:1014C000040028D0386800B1804749460098A047FA
:1014D000002620E055F82400A846012812D1204615
:1014E000FFF758FB009068B1C0680D21426A68465A
:1014F0009047050006D0386800B1804749460098FB
:10150000A847002658F8241009B1012200E0002263
:10151000891A48F824103046BDE8F8831C010020E1
:1015200002494A694260486170470000400000205B
:1015300010B502E000F8011B521E0AB18307F9D171
:10154000930818D001EB014402F0030204EB0424D9
:1015500006E010C01B1F10C040F8084B40F8044CB8
:10156000042BF6DA01E010C05B1E002BFBD102E079
:1015700000F8011B521E002AFAD110BD10B58307D6
:1015800002D520F8021B521E530811D001EB014472
:10159000042B09DB10C01B1F10C0042B40F8084BA4
:1015A00040F8044CF6DA01E010C05B1E002BFBD1C2
:1015B000D20700D0018010BD10B5040002D06079C0
:1015C00010B106E0012010BD00202071204600F07F
:1015D00005F801206071002010BD000008B500680A
:1015E0000649884208D10648416941F040014161FD
:1015F000406900F04000009008BD0000003002404B
:10160000001002402DE9F84FDFF8B8A100220AF1DE
:10161000040B144601274FF00F090BF1040E00BF15
:101620000B6807FA04F52B40AB4274D1DFF898C180
:101630004E68A6EB0C0866452BD00DDC032E34D08B
:1016400005DC36B3012E19D0022E2FD11BE0112E4E
:1016500016D0122E2AD119E0B8F5881F19D006DC51
:10166000B8F5803F15D0B8F5801F1FD111E0B8F54F
:10167000001F0ED0B8F5041F18D10AE0CA6815E0A3
:10168000CA68121D12E0CA6808320FE0CA680C323C
:101690000CE08A682AB1012A4FF0080203D04561A4
:1016A00004E0042202E0056100E00022FF2B01D8E3
:1016B000064601E000F104064FEA840501D9A5F1D0
:1016C0002005D6F800C009FA05F82CEA080C02FA41
:1016D00005F54CEA050CC6F800C04D68ED006AD56A
:1016E0003A4DAE6946F00106AE61AD6924F00306DD
:1016F00005F001050095364D06EB050CDCF80850A9
:10170000A6074FEA167809FA08F6B543314EB042FB
:1017100002D100261AE04EE02F4EB04201D1012640
:1017200014E02E4EB04201D102260FE02C4EB04202
:1017300001D103260AE02B4EB04201D1042605E078
:10174000294EB04201D1052600E0062606FA08F629
:101750002E43CCF808604D68DAF80060ED0355467A
:1017600001D51E4300E09E432E604D68AD0305D5B4
:10177000DBF800601E43CBF8006004E0DBF80050AB
:101780009D43CBF800504D68DEF80060ED027546D1
:1017900001D51E4300E09E432E604D68AD0205D585
:1017A000084D0C352E681E432E6004E0054E0C36A5
:1017B00035689D433560641C102CFFF431AFBDE8E3
:1017C000F88F0000000401400000111000100240DA
:1017D0000000014000080140000C014000100140E1
:1017E0000014014000180140001C01400AB10161D1
:1017F00070470904FBE7000001488068704700005B
:101800000800002002488168027811448160704716
:1018100008000020074810B5016841F01001016080
:10182000032000F067F8002000F006F800F024F82C
:10183000002010BD0020024070B50D4D04464FF44D
:101840007A712878B1FBF0F00A490968B1FBF0F031
:1018500000F0D0FA48B9102C07D200222146501EC1
:1018600000F028F800206C6070BD012070BD000001
:1018700008000020140000200C4808B5816941F0E0
:1018800001018161816901F001010091C16941F0AB
:101890008051C161C06900F08050009004484168E7
:1018A00021F0E06141F00071416008BD001002408C
:1018B00000000140F0B40E4B1B680C46C3F302233A
:1018C000C3F10705042D00D90425191D072901D2EC
:1018D000002300E0DB1E012606FA05F1491E214027
:1018E00099409E40761E16403143F0BC01F02AB864
:1018F0000CED00E0064900F0070208684FF6FF0310
:10190000184040EA0220034A104308607047000074
:101910000CED00E00000FA052DE9F047DFF85481F6
:1019200005460E46D8F8000000F00700B0420CD281
:10193000D8F8001021F007013143C8F80010D8F89A
:10194000000000F00700B0426FD128684A4C8107C0
:1019500012D5400703D5606840F4E06060602878E5
:10196000000703D5606840F4605060606068A96853
:1019700020F0F000084360602878C00744D0686811
:10198000012816D02168022816D0890700294CDAD0
:10199000616821F0030101436160FFF72DFF696871
:1019A000074641F2883001290ED00229814618D01D
:1019B00026E021688903E9E78901E7E7FFF71CFFD3
:1019C000C11B494501D918E081466068C0F3810018
:1019D0000128F3D118E000BFFFF70EFFC11B4945F6
:1019E0000BD86068C0F381000228F5D10CE000BF7D
:1019F000FFF702FFC11B494502D90320BDE8F0876C
:101A0000606810F00C0FF3D1D8F80010404601F0D8
:101A10000701B1420BD9016821F007013143016090
:101A2000006800F00700B04201D00120E6E7287806
:101A3000400705D56068E96820F4E060084360600D
:101A40002878000706D56068296920F4605040EACC
:101A5000C100606000F016F86168084AC1F3031124
:101A6000515CC840064908600020FFF7E5FE0020F1
:101A7000C4E700000020024000100240D6640008C5
:101A80001400002012A185B00FC98DE80F0014A02A
:101A9000144A006804905168134801F00C03042BA9
:101AA00010D0082B0ED1C1F38343C9031DF80300E6
:101AB0000AD5516804AAC1F34041515C0A4A504317
:101AC000B0FBF1F005B0704708494843FAE7000061
:101AD00002030405060708090A0B0C0D0E0F10106F
:101AE000010200000010024000127A0000093D00CF
:101AF0002DE9F84F04460078B94DC00748D0686812
:101B0000C0F38100012807D06868C0F38100022873
:101B100009D16868C00306D52868800338D5606895
:101B200000286FD034E06068B0F5803F0BD010B172
:101B3000B0F5A02F11D0286820F4803028602868E4
:101B400020F4802002E0286840F48030286060683B
:101B500088B1FFF751FE064609E0286840F480206E
:101B60002860F0E7FFF748FE801B642875D82868D6
:101B70008003F7D50CE0FFF73FFE064605E000BF07
:101B8000FFF73AFE801B6428F0D828688003F7D45A
:101B90002078944E80074FF001094FF000083BD5A4
:101BA000686810F00C0F07D06868C0F38100022845
:101BB00009D16868C00306D42868800714D5206955
:101BC00001281FD110E02069B0B1C6F80090FFF7DE
:101BD00013FE074605E000BFFFF70EFEC01B0228FC
:101BE000C4D828688007F7D52868616920F0F80014
:101BF00040EAC10028600FE0C6F80080FFF7FCFD56
:101C0000074606E0E9E000BFFFF7F6FDC01B02282B
:101C100023D828688007F7D4207800072CD572488D
:101C2000A169D9B1C0F80090FFF7E6FD074604E0CE
:101C3000FFF7E2FDC01B02280FD8686A8007F7D5BE
:101C40006A484FF4FA510068B0FBF1F0009000BF11
:101C50000098411E0091FAD20EE080E0C0F80080AA
:101C6000FFF7CAFD074604E0FFF7C6FDC01B0228C8
:101C700075D8686A8007F7D42078400760D5E8698E
:101C80000027C00008D4E86940F08050E861E869A6
:101C9000012700F08050009055480168C90513D411
:101CA0000168834641F480710160FFF7A5FD82461B
:101CB00006E000BFFFF7A0FDA0EB0A0064284ED8A5
:101CC000DBF80000C005F5D5E06801280AD008B1AE
:101CD000052813D0286A20F001002862286A20F025
:101CE000040002E0286A40F001002862E06841F246
:101CF000883B98B1FFF780FD82460BE0286A40F0F0
:101D000004002862EEE700BFFFF776FDA0EB0A01B2
:101D100059455AD8286A8007F6D50CE0FFF76CFDC4
:101D2000824605E0FFF768FDA0EB0A0159454CD853
:101D3000286A8007F6D41FB1E86920F08050E86176
:101D4000E06988B36968C1F38101022945D002289E
:101D5000C6F8608004D0FFF74FFD044638E034E059
:101D6000FFF74AFD074604E0FFF746FDC01B0228C7
:101D70002BD828688001F7D4206AB0F5803F05D1C0
:101D80006868A16820F4003008436860D4E908015D
:101D90000843696821F4741108436860C6F86090CC
:101DA000FFF72AFD044606E015E000BFFFF724FD1B
:101DB000001B022809D828688001F7D50BE000BF76
:101DC000FFF71AFD001B022802D90320BDE8F88F97
:101DD00028688001F4D40020F8E70120F6E700002D
:101DE00000100240000042428004424214000020E1
:101DF0000070004010B5401EB0F1807F01D301207B
:101E000010BD4FF0E02460610F21601700F09AFDD3
:101E10000020A06107202061002010BDFEE7000027
:101E20000449054A0968497C52F821100969096882
:101E3000084700004C000020640000202DE9F04F0E
:101E400005468DB07B48DDF860901A9C00681E4600
:101E500017464FF0000A78B11B9B199ACDF80890ED
:101E60000593CDE90324DDE91623CDE900230468B9
:101E700033463A46284680E0DDE9160201EB0608C3
:101E800005EB070C1043A8F10108ACF1010C012887
:101E900006D0C9F108000590002002910990C6E023
:101EA00065480268B2F90A30581A002806DD361A69
:101EB000002E63DD1946199B00FB0344B2F90E00A6
:101EC000A8EB0000002802DD361A002E56DDB2F91C
:101ED0000C00ACEB0000002800DD3F1AB2F908301E
:101EE0000020AB4235DD581B3F1A4B46B9F1080FB5
:101EF00026D006DC012B0BD0022B11D0042B28D1CD
:101F000016E0102B1ED0182B1FD0202B21D11CE047
:101F100020F0070304EBE0041D4400F0070018E084
:101F200020F0030304EBA0041D4400F0030010E0C4
:101F300020F0010304EB60041D4400F0010008E000
:101F4000044404E004EB400401E004EB8004054495
:101F50000020002F12DD1B9BDDF864C0CDE90403D7
:101F6000CDE90069CDE902C4527C34483B4650F8C3
:101F70002200C26854680A462946A0470DB0BDE851
:101F8000F08F1799029808440C902B49401E00903E
:101F90000A68B2F90A30834241DCB2F90E100298A5
:101FA00081423CDB4FF0000BD84603950A9434E0A5
:101FB000BBF1000F05D10A984FF0080B10F801ABE8
:101FC0000A900599ABEB090B3AFA01F00AFA09F10C
:101FD00001F0FF0A04D118490968097C890716D461
:101FE00015490968C96B0A680B921B9A0AB152F825
:101FF0002000086016990398009B4218521E02990F
:1020000000F07EF80C490B980968C96B08600399C9
:10201000169808F1010808440390B845C8DB0998F0
:10202000401C09900C980290199804440998B042F9
:10203000A7DBA3E7700000204C0000206400002014
:10204000F0B40C4612490968B1F90A30A3421CDC0D
:10205000B1F90E30A34218DBB1F90830834200DD3C
:102060001846B1F90C30934200DA1A4682420CDB72
:102070004B7C084951F8235013462246E9688E6884
:1020800001462846B446F0BC6047F0BC70470000EB
:102090004C000020640000200A46174930B409684B
:1020A000B1F90A30934225DCB1F90E30934221DBBD
:1020B000B1F9083083421DDCB1F90C30834219DBE1
:1020C0000B7C0E4CDB0709D0497C54F82130D968D1
:1020D000CC690146A44630BC18466047CB6B497CAE
:1020E0001B6854F82140E1688D6901462046AC46E2
:1020F00030BC604730BC70474C00002064000020BA
:1021000038B5134C2468B4F90850854200DD2846E0
:10211000B4F90C50954200DA2A46824217DBB4F932
:102120000A508D4200DD2946B4F90E509D4200DA76
:102130002B468B420BDB0093647C064B53F8244008
:10214000E3681D6913460A4601462046A84738BD84
:102150004C00002064000020082102F0E5BB0000D4
:1021600002480068806B0068704700004C00002047
:1021700002480068C06B0068704700004C000020F7
:10218000024809210068407C02F0CEBB4C000020D0
:10219000092102F0C9BB70B500252C462046FEF788
:1021A000F9FC00B16D1C641C022CF7DB284670BDE5
:1021B00002480068407C00F003B800004C0000209A
:1021C00010B5FEF7E7FC002805D0C168CA6ABDE873
:1021D00010400221104710BD014800687047000000
:1021E00078000020012002F015BC00000148406882
:1021F0007047000078000020022002F00BBC00F0C5
:1022000001B800002DE9F041002809D0876837B1F6
:102210000D4E716819B10468B4F5807F02DD0020AD
:10222000BDE8F0813068844200DD0446002507E007
:1022300057F82500FFF7F4FD716841F825006D1C83
:10224000A542F5DB7068EBE7A80000200449054AC9
:102250000968497C52F8211009694968084700005B
:102260004C0000206400002010B5084A084B00F024
:102270001F01C0F34514C0F3C420515C1B5D105C0A
:1022800001EB032101EB004010BD0000D87F0008E6
:10229000F87F000810B50A4C606860B920688000BB
:1022A000FEF7F8FA606040B104F1080105480860E3
:1022B0000846FFF735F9002010BD012010BD0000D1
:1022C000A8000020914D00082DE9F047FFF763FFBB
:1022D00007460024DFF860802AE02046FEF75AFC1B
:1022E00028B3D8F8000090F8119044742046FFF706
:1022F00033FF082817DC1148114950F82400006901
:10230000884210D02046FFF743FF0646002508E02C
:10231000E8B2FFF79BFF0246E9B2204600F088F8DA
:102320006D1CB542F4DBD8F8001081F81190641CE4
:10233000BC42D2DBBDE8F0874C00002064000020E6
:102340005C83000810B50D4C0D492068407C51F8A5
:10235000200048B1C16811B10968042901D00068A2
:10236000F7E708B1FEF7FEFB20680021016600F1E7
:1023700008014161BDE8104000F02EB84C0000207B
:10238000640000200149096849680847A40000204A
:10239000044909680A7C520701D5C96B00E0896BC2
:1023A000086070474C0000207CB5094C0546206849
:1023B000417C084850F82100C1680A6B6946904783
:1023C00020686A4629460830FFF70FF87CBD0000F8
:1023D0004C000020640000200448016804484A7C46
:1023E000083150F82200C268126B10474C000020E0
:1023F000640000200149096809680847A40000201A
:10240000044909680A7C520701D5896B00E0C96B51
:10241000086070474C000020014AC2E90001704783
:10242000780000200149096889680847A400002055
:10243000F8B515460E460124FEF7ACFB009058B1E6
:10244000C0681021426A68469047030004D02A46BB
:1024500031460098984700242046F8BDF8B5154647
:102460000E460124FEF796FB009058B1C0680B2180
:10247000426A68469047030004D02A4631460098D5
:10248000984700242046F8BDF8B515460E460124AD
:10249000FEF780FB009058B1C0680A21426A684686
:1024A0009047030004D02A463146009898470024FC
:1024B0002046F8BD10B5074C2068006BFFF7B0FC54
:1024C000FFF79EFF2068406BFFF7AAFCBDE81040B5
:1024D000FFF75EBF4C00002010B5A0B014211AA871
:1024E000FDF769FE68216846FDF765FE00231A4680
:1024F00012491348FEF7DCFA0446A022802100208E
:10250000FFF7ACFFA02280210020FFF7BDFF0620CF
:102510001C901AA92046FDF78BFE0A4800900A4835
:1025200001900A4803900A4807900A4B0A4A6946F4
:102530002046FDF79DFE20B010BD00000865000894
:1025400020650008D3270008B9270008BD27000828
:10255000B327000811030008A502000810B50129DF
:1025600002D04FF0FF3010BD03F0DAFB002010BDA9
:102570002DE9FF4F8DB01746674ADDF870901E9E1B
:10258000209812681D4600248AB11D9B1F98CDE932
:102590000293CDE90460DDE91A03CDE90003146874
:1025A0002B463A460D98A04711B0BDE8F08F0D9A22
:1025B00001EB050802EB070CDDE91A231A43A8F129
:1025C0000108ACF1010C012A06D0C9F108004FF056
:1025D000000B029105909CE0504A1268B2F90A4043
:1025E000631A002B06DDED1A002DDDDD21461D9C52
:1025F00003FB0466B2F90E30A8EB0303002B02DDE7
:10260000ED1A002DD0DDB2F90C30ACEB0303002B3A
:1026100000DDFF1A0D9B1C1AB2F90830A3420DDD34
:10262000A3EB040C0CEB0003181A20F00700044481
:10263000A7EB0C0706EBE30603F00700002FB3DD62
:10264000DDF874C01F9BCDE902C6CDE90403CDE9D6
:102650000059527C32483B4650F82200C268556807
:102660000A462146A8479FE71B99029808440C9008
:102670002A49401E00900A68B2F90A30834242DCBF
:10268000B2F90E10029881423DDB4FF0000A0D981E
:102690000A96D046039034E0BAF1000F05D10A98AB
:1026A0004FF0080A10F8014B0A900599AAEB090AA5
:1026B00034FA01F004FA09F4E4B204D117490968C4
:1026C000097C890717D415490968C96B0A680B92F8
:1026D0001F9A0AB152F82000086003991A98009BCB
:1026E0000A18DDE90210521EFFF70AFD0B490B988C
:1026F0000968C96B086003991A9808F10108084431
:102700000390B845C8DB0C9802901D980BF1010BA3
:102710000644AB45A8DB47E7700000204C000020D2
:1027200064000020002818D0410817D0810817D075
:10273000C10817D0010917D0410917D0010A17D0D5
:10274000410A17D0010B15D0C10B13D0010C11D0C9
:10275000810C11D0000E11D020207047012070474D
:1027600002207047032070470420704705207047FF
:1027700008207047102070471220704718207047BB
:1027800000B50022FFF7CEFF012804D0811E0629E4
:1027900003D808220BE0012209E0A0F10901072972
:1027A00001D8102203E011380F2800D8202210464B
:1027B00000BD491EFDD2704703F036BD70B50C4612
:1027C000051903E0281B007803F02EFD641EF9D2E2
:1027D00070BD03F0E1BC0000074910B50548086072
:1027E0000846FEF7E9FE002803D0BDE81040FDF7DB
:1027F0001EBD10BD00300240000000202DE9F04F4A
:1028000085B000244848009401940294039481699F
:1028100041F040018161816901F0400104918169C9
:1028200041F010018161816901F010010491816919
:1028300041F004018161816901F004010491816921
:1028400041F008018161816901F008010491816909
:1028500041F02001816180694FF6FD7500F0200094
:102860000490002229463148FEF7C0FFDFF8C0A0DF
:102870004FF44178002241465046FEF7B7FFDFF89B
:10288000B4B04FF48059002249465846FEF7AEFFD7
:102890000127CDE90057022569462448CDE90245C4
:1028A000FEF7B0FE4FF6FF700326CDE9000669463D
:1028B0002148FEF7A7FE49F6FF70CDE900066946FC
:1028C0001E48FEF79FFE4FF6F940CDE90006694627
:1028D0005046FEF797FECDE90054694650460294F3
:1028E000FEF790FECDE9008769465046CDE90245E6
:1028F000FEF788FE4EF6FF70CDE9000669465846A1
:10290000FEF780FECDE9009769465846CDE90245BD
:10291000FEF778FECDE9005669460448FEF772FEE0
:1029200005B0BDE8F08F0000001002400018014023
:10293000000C01400014014000100140000801405B
:10294000FEE770470907090E002806DA00F00F00BD
:1029500000F1E02080F8141D704700F1E02080F8BD
:10296000001470477047704702480168491C0160B5
:10297000FEF748BF1800002030B58FB02821684608
:10298000FDF719FC14210AA8FDF715FC0121080424
:10299000CDE900100024029402250491CDE90750EE
:1029A0004FF4E01009906846FFF7A2F80F20CDE938
:1029B0000A056802CDE90C4002210AA80E94FEF730
:1029C000ABFF0FB030BD00000D48016841F00101C0
:1029D000016041680B4A1140416001680A4A114098
:1029E0000160016821F480210160416821F4FE0149
:1029F00041604FF41F0181600449C00308607047C3
:102A0000001002400000FFF8FFFFF6FE08ED00E0B6
:102A1000FEE7000002490120096881F85400704770
:102A20004C0000202DE9F0418AB0040036D0FDF7BB
:102A300089FF0190D0E90012CDE90412876A056A86
:102A400001A8FDF78DFF204600F0B4FA060025D05E
:102A5000204600F002F98046B80704D52A464146D0
:102A600004A800F0F8FB2046FDF76CFF01904046FB
:102A7000FDF768FF06903046FDF764FF039005629E
:102A80000698019AC1691162C46101A8FDF768FF47
:102A900006A8FDF765FF03A8FDF762FF0AB0BDE8D1
:102AA000F08100002DE9FC5FDFF834A10746DDE985
:102AB0000C54DAF81800DDF83CB0984691460E4602
:102AC00004434DB9BAF8020048B346480AF144013C
:102AD0000068407C51F82050681C0ED0FDB128469B
:102AE000FDF730FF0190B0F90010B0F902200F445B
:102AF0001644B9F1000F02D006E000250FE0B0F94E
:102B00000430591A01F10109B8F1000F04D1B0F9EC
:102B10000600801A00F1010801A8FDF721FF0BF162
:102B20002C00FDF774FE5FEA000B56D0BAF80200E5
:102B3000401CAAF802005846FDF704FF00900780E9
:102B400007EB09014680491E818006EB0801491EFA
:102B5000C1800E990161244A816A22401143816239
:102B60006846FDF7FDFEDAF810005E4650B1FDF74D
:102B70000FFF07463046FDF70BFF014678694861B5
:102B80007E6101E0CAF810B02946584600F0A8FA64
:102B9000A00602D5584600F03FF9E00704D0DAF865
:102BA0002410491CCAF82410600602D55846FFF7C5
:102BB00039FFA0070DD55846FDF7C4FE0090816A85
:102BC00041F0020181626846FDF7CAFE584600F0F6
:102BD000F0F80121584600F079FB5846BDE8FC9F0B
:102BE000B80000204C0000209F3F3F0010B5044675
:102BF000C168D4E90020172A0DD004DC0E2A0CD0BD
:102C0000142A07D104E0222A0CD0282A02D10CE091
:102C100000F08BF90020E06010BD2146BDE81040B7
:102C200000F018B96FF07040F5E7BDE8104000F013
:102C3000C0B80000034804490068407C51F82000F7
:102C4000704700004C000020FC00002010B5002858
:102C500002D0FDF79DFEC06910BD10B5002802D05E
:102C6000FDF796FE806910BD2DE9FF5F2C4D687859
:102C7000002853D100272B482F616F630068DFF8CD
:102C8000A8903C464764AF806F804FF0020A4FF037
:102C9000FF3B43F6FF7805F144062046FDF77AFF37
:102CA00098B1CDE90297CDE900BA002142464346EA
:102CB0000846FFF7F7FE1A4A46F824004C326FF038
:102CC000704142F8241000F074F8641C022CE4DB1C
:102CD000164FDFF85C80DFF85C90002407EBC4003F
:102CE00000F0ECF808EBC40000F0E8F809EBC400D1
:102CF00000F0E4F8641C022CF0DB306800F08CF883
:102D0000FFF788FE0120064968703C310A480860D8
:102D100004B00846BDE8F05FFEF702BCBDE8FF9FC7
:102D2000B80000204C000020D15C0008A47D0020E9
:102D3000B47D0020C47D0020A54D000870B586B08C
:102D40000D4606002CD0FDF7FDFD0090846AA1071A
:102D500023D5D0E90010CDE90110E00302D53046BB
:102D600000F014FA5DB1286803906868049003A924
:102D7000009800F0ABF803A901A8FEF719FB314653
:102D800001A800F0ABF840B140F601000440012C6E
:102D900008D001A9304600F0F5F96846FDF7E0FDDE
:102DA00006B070BD0098026A816901A800F053FA6C
:102DB000F3E70021FFF7C2BFFEB515460E4604003B
:102DC0001CD0FDF7BFFD0246009090F82800800758
:102DD00011D5314601A8FEF708FB60B16846FDF742
:102DE000BFFD2A4601A9204601F030FF2046FFF72B
:102DF0002DFF04460CE06846FDF7B2FDFEBD2A46F5
:102E000001A92046FFF7D8FF2046FDF7C1FD046A5F
:102E1000002CF4D1FEBD000070B50C4D04002868F4
:102E2000866C01D10A490C698464204600F026FAB8
:102E3000FFF7D2FA2046FDF7ABFD2968B0F9002074
:102E4000CA64B0F902000865304670BD4C0000202D
:102E5000B800002070B50C00054609D0FFF7FDFE54
:102E6000002805D02146A560BDE8704000F010BAEA
:102E700070BD00000EB50E48006890F8541009B1FE
:102E80000C4811E0806CFDF75DFD0090D0E900106A
:102E9000CDE901106846FDF763FD0748816A11B16D
:102EA00001A800F01BF801A802F0F4F80EBD000024
:102EB0004C000020247D0020B800002002490A6850
:102EC0000260086070470000CC0000200B46B0F99B
:102ED0000220B0F900101846FEF726B838B50C46A7
:102EE00005462046FDF72EFD0146009090F828008B
:102EF000800703D46846FDF733FD12E02846FEF74D
:102F000057FA0098806920B104466846FDF728FD0D
:102F1000E7E76846FDF724FD204600F037FB002870
:102F200001DA002038BD012038BD38B50C46002834
:102F30000AD0002C08D0FDF705FD2146009000F0D6
:102F400004F86846FDF70CFD38BD00224A800A806F
:102F500082880388D21A8A80C2884088101AC88062
:102F6000704710B5FFF779FE002802D0FDF710FD7D
:102F7000C06910BD0D4810B5006890F854000028D5
:102F800006D00B4C6069012803DD401E6061002003
:102F900010BD2069401C206101F0A8FA18B1FFF7AC
:102FA00069FF012010BD6069EFE700004C000020C0
:102FB0001C7D002070B50546FFF7D3FF08E0AC424A
:102FC00001D1002406E0FDF7E3FC006AA84201D02D
:102FD0000400F4D1204670BD10B50446FDF7D8FCBE
:102FE00080690028F9D12046BDE8104000F0CEBA33
:102FF000F0B5384E074687B0306890F8541041B1AC
:10300000354C6169491C6161012905DD012007B06A
:10301000F0BDFFF72FFFF9E7806CFDF793FC2F4D14
:103020004FF0FF3100902161297821B18168029130
:10303000C068039007E090F8281089073CD5D0E9D4
:103040000010CDE902101FB1394602A8FEF7B0F911
:103050003068406C78B3009804903068406C016828
:10306000059140680690A86A30B104A8FDF778FC85
:10307000A86AFDF767FC049005A90498FFF726FFEE
:1030800005A902A8FEF794F90DF11000FDF768FC00
:10309000A96A19B102A8FFF721FFB0B13068816CAD
:1030A00002A8FFF71BFF80B1DDE90201C4E90001BE
:1030B000FFF760FFABE706E06069401E60616846AD
:1030C000FDF74EFC04E06846E0E76069401E606181
:1030D00000209CE74C0000201C7D0020B800002050
:1030E000FEB50D00044647D0FDF72CFC00900021F2
:1030F000856101622846FDF725FC00990290C569AB
:1031000091F8281001F008062DB12846FDF71AFCA9
:10311000019036B115E0C4616846FDF721FC02A8B4
:1031200028E090F8280000070BD500980562029867
:10313000C4616846FDF714FC02A8FDF711FC01A864
:1031400018E002A8FDF70CFC01A8FDF709FC2846D1
:10315000FDF71EFC11E004620BE02846FDF718FCA9
:103160005EB990F82810090707D501980462009805
:1031700005626846FDF7F4FBFEBD0190056A002D6F
:10318000EBD1E8E7202201F061BD000038B5040072
:1031900022D0FDF7D7FB009090F82810890718D5AA
:1031A000406A40B10D49C96AA14204D0FDF732FE20
:1031B0000099002048622046FFF748FD044606E0DB
:1031C0002046FFF7E3FF2046FDF7E2FB046A002CF0
:1031D000F6D16846FDF7C4FB38BD0000B8000020FA
:1031E0002DE9FF419846164607460D0031D00846A6
:1031F000FDF7A8FB0090846A0246A00726D5394651
:1032000001A8FEF7F2F808B340F601000440012CD3
:1032100007D0424601A9284601F018FD0098C4696C
:1032200012E000984346026A816901A8FFF7D8FFBF
:10323000F4E7B4420AD0424601A92046FFF7BCFD9C
:103240002046FDF7A5FB046A002CF2D16846FDF785
:1032500087FBBDE8FF812023FFF7C2BFB0F9001054
:10326000B0F90420914205DCB0F90210B0F9060073
:10327000814201DD002070470120704710B5FFF743
:10328000ABFE002803DBBDE81040FDF781BE10BD9A
:1032900070B50D4C06460D46206814280DDA3046F0
:1032A000FDF776FB01696E6041B12068401C20602B
:1032B000284688472068401E206070BD2846BDE82B
:1032C0007040FFF793BC0000540100201FB5CDE90A
:1032D00000106946FFF7DCFF1FBD00002DE9F0413B
:1032E000214D0C460646E968A86B0844A119401E0A
:1032F000814206D80846096819B941680E4401F0B0
:103300004FFEA86BA0420AD254F8040C271A386862
:1033100028B978680644384601F042FE3C463046FB
:1033200001F088FB10281CD205EBC00732460021B3
:1033300020467B6C02F010F957F8440F083400B1B6
:1033400044602060002060603C6028683044286051
:1033500095F8291029B9E968081AA968814200D2AC
:10336000A8603046BDE8F081E07B00202DE9F04107
:10337000054601F017FC2A48046CAC4202D8ED1C4B
:1033800025F00304804600680C34A04202D20020DD
:10339000BDE8F08101F020FD071EF9D0204601F0C4
:1033A00049FB414630E000BF01EBC002526C52B312
:1033B000956845B36B68A34206D2AA681AB39568AC
:1033C0000DB36B68A342F8D3D8F84000191B0C303A
:1033D0001E46814200D23446284601F0E1FD042118
:1033E000D8F8340001EBC701002345502246394686
:1033F000284602F0B1F8A64203DD2919301BFFF779
:103400006DFF3846C4E7401C1028CDD3204601F09C
:10341000E1FD0028C2D0384601F0FEFCB7E700000D
:10342000E07B002001207047F0B50B4DDFF82CC089
:1034300010C8521EE6B2C4F30727C4F30744AE5DBA
:103440001CF807702C5D06EB471606EBC4240C80B5
:103450001944EDD1F0BD0000388000083881000823
:103460002DE9F0478146FEF78BFE4FF00008074636
:103470006FF07F444546FEF79BFE060018D000BF64
:1034800056F82510494502D12846BDE8F0876D1C45
:10349000BD42F5DB5FF00005484656F82510FDF704
:1034A00083FAA04201D20446A8466D1CBD42F3DB5C
:1034B0004046EAE710B5074A074BC1B2C0F30724FC
:1034C000C0F30740515C1B5D105C01EB431101EB45
:1034D000C02010BD38800008388100082DE9F05F59
:1034E0009A46DDE90A8791460C4605468B46164604
:1034F00035F8020B41468847B84701C4761EF7D11C
:103500005046BAF1200F06D2024649465846BDE859
:10351000F05FFDF7F7BDBDE8F09F2DE9F05F9A463B
:10352000DDE90A8791460C4605468B46164615F896
:10353000010B41468847B84701C4761EF7D1504673
:10354000BAF1200F06D2024649465846BDE8F05F60
:10355000FDF7D8BDBDE8F09F41884FF4FC63C1F38F
:10356000C402007803EA51110A4300F0F80042EA6D
:103570000020704781784278C9089208007841EAB3
:103580004211C00841EAC020704700000146064AC7
:10359000002000BF52F820308B4204D0401C02288B
:1035A000F8DB4FF0FF307047FC000020F7B5154600
:1035B000184A01A9009812689047174C009020689B
:1035C000406920B12946FDF7BEFC002821D001202A
:1035D000FDF734FF2068C069406920B18268DDE9E9
:1035E0000001904712E00D4D0CE06846FDF728FD04
:1035F00006462068C069016830468847296809B1D5
:10360000304688470198401E0190EED50020FDF716
:1036100015FFFEBD340100204C0000206C0000208E
:103620002DE9FF4F85B08346DDE91370129DD0E987
:1036300000A0DBF80890039047484C191E4600682C
:103640004FF08008007C10F0030006D0012865D000
:10365000022818D0032813D160E0307828FA05F149
:10366000084201D0039800E0504681B2484602F07B
:10367000BDFA6D1C082D01D10025761C7F1EECD1F2
:1036800009B0BDE8F08F4FF0000ACDF808A0D9F8D6
:103690006CB00194317828FA05F0014202980BD001
:1036A00020B90120CDE90140D9F86CB003982BF87E
:1036B000020B0AF1010013E0012812D1631E002061
:1036C000029007980090D9F8A8C04846079A019937
:1036D000E04748465246D9F86C1001F00FFF002031
:1036E0008246641C6D1C082D01D10025761C7F1EAE
:1036F000D0D1BAF1000FC3D00798631E0090D9F85B
:10370000A8404846079A0199A047D9F86C1009B01B
:1037100048465246BDE8F04F01F0F0BE317828FA35
:1037200005F001420ED0D9F8EC3021465846079AF0
:103730009847D9F82830D9F8F0C043402146584678
:10374000079AE047641C6D1C082D01D10025761CEA
:103750007F1EE3D194E700004C0000202DE9FF5FBD
:103760009046DDE90E924D4B99F80050C2F10804E5
:103770008A465D5DDDE91071D540494A139E1268A5
:10378000127C12F0030226D0012A03D0022A37D07D
:10379000032A72D10069806880471FFA80FBBC420F
:1037A00000D93C463F1BBAF1000F68D0E8070AD0A9
:1037B000DAF808004146039A036850469847318872
:1037C00081EA0B0131806D0808F10108641E06F1E1
:1037D0000206EBD15EE0314ABC4200D93C463F1BB9
:1037E00005F001006D0831F8200026F8020B641E78
:1037F000F6D1002F50D019F8010F0824155CEBE723
:1038000088881FFA80FBBC4200D93C463F1BBAF1B6
:10381000000F17D095B1E80708D0DAF80800414644
:10382000039A036850469847A6F800B008F10108CB
:10383000641E06F1020612D06D08EBE706EB4406A3
:10384000A0440CE04DB1E80701D0A6F800B0641E1A
:1038500006F1020603D06D08F4E706EB4406002FDC
:103860001AD019F8011F0D480824455CCBE719F858
:10387000011F0A480824455C91E70DE0FFE7E807CF
:1038800003D0308880EA0B0030806D08641E06F19A
:103890000206F4D1002FEAD1BDE8FF9F5482000850
:1038A0004C0000202DE9FF4F85B0D0F80890DDE9ED
:1038B000125714989B46002839D041489BF8006065
:1038C0004C1900684FF0C008007C10F0030016D0BF
:1038D00002282CD14FF0000ACDF80CA0D9F86C00CA
:1038E000CDE90140C5F103004100C1F1060228FA0B
:1038F00002F03040C8402ED00399D9B120E0C5F184
:1039000003004100C1F1060228FA02F03040C8402D
:10391000149931F8200081B2484602F067F96D1C15
:10392000042D02D11BF8016F00257F1EE7D109B0DD
:10393000BDE8F08F012101940391D9F86C10029138
:10394000149931F82000029908800298801C029096
:103950000AF1010014E00398012812D1631E00202F
:10396000039007980090D9F8A8C04846079A019993
:10397000E04748465246D9F86C1001F0BFFD0020E0
:103980008246641C6D1C042D02D11BF8016F0025BA
:103990007F1EA7D1BAF1000FC9D00798631E00900F
:1039A000D9F8A8404846079A0199A047D9F86C1061
:1039B00009B048465246BDE8F04F01F09FBD0000F7
:1039C0004C0000202DE9FF5F8B460FA9DDF8388001
:1039D00091E82104C0F10401CCB298F80010400035
:1039E00081402F48129F91460068CEB2007C10F0B3
:1039F000030004D001283AD002284FD114E0AC4291
:103A000000DDECB22D1BB1093AF8210027F8020BBA
:103A1000B006060E641E14F0FF04F4D1002D3DD054
:103A2000042418F8016FEAE7AC4200DDECB22D1B6C
:103A3000B0090DD0B109BBF1000F3AF82100388070
:103A400006D0DBF808004946039A036858469847B1
:103A5000B006060E641EBF1C09F1010914F0FF0434
:103A6000E6D1002D1AD0042418F8016FDCE7AC422F
:103A700000DDECB22D1BB00903D0388880F0FF00C8
:103A80003880B006060E641EBF1C14F0FF04F2D18D
:103A9000002D03D0042418F8016FE8E7BDE8FF9F6C
:103AA0004C0000202DE9FF4F85B0D0F80890DDE9EB
:103AB000125714989B46002839D041489BF8006063
:103AC0004C1900684FF0F008007C10F0030016D08D
:103AD00002282CD14FF0000ACDF80CA0D9F86C00C8
:103AE000CDE90140C5F101008100C1F1040228FACD
:103AF00002F03040C8402ED00399D9B120E0C5F182
:103B000001008100C1F1040228FA02F03040C840EF
:103B1000149931F8200081B2484602F067F86D1C14
:103B2000022D02D11BF8016F00257F1EE7D109B0DD
:103B3000BDE8F08F012101940391D9F86C10029136
:103B4000149931F82000029908800298801C029094
:103B50000AF1010014E00398012812D1631E00202D
:103B6000039007980090D9F8A8C04846079A019991
:103B7000E04748465246D9F86C1001F0BFFC0020DF
:103B80008246641C6D1C022D02D11BF8016F0025BA
:103B90007F1EA7D1BAF1000FC9D00798631E00900D
:103BA000D9F8A8404846079A0199A047D9F86C105F
:103BB00009B048465246BDE8F04F01F09FBC0000F6
:103BC0004C0000202DE9F05F92460BAA894692E84E
:103BD00042010A9F9B468B003A78C1F102009A404D
:103BE000D5B24F4A0E9CC0B21268127C12F003028A
:103BF0001BD0012A7CD0022A3AD1D9B328090DD092
:103C00002909B9F1000F38F82100208006D0D9F831
:103C100008005A465146036848469847A41C0AF1D2
:103C2000010A17F8015F761E4CE039B12909761EAA
:103C300038F8210024F8020B17F8015F022E11DB7F
:103C4000701006F001062A09401E38F8221005F00F
:103C50000F0224F8021B38F8221024F8021B17F870
:103C6000015FF0D1002E03D0290938F8210020800F
:103C7000BDE8F09F26E028090DD02909B9F1000F11
:103C800038F82100208006D0D9F808005A4651465D
:103C900003684846984715F00F000DD038F820000B
:103CA0006080B9F1000F07D0D9F808005A460AF130
:103CB000010103684846984717F8015F241D0AF17F
:103CC000020AB61E022ED6DA002ED1D02809CFD095
:103CD00038F820002080B9F1000FC9D0D9F80800C9
:103CE0005A46514603684846BDE8F05F1847FFE76B
:103CF000B04200DDF0B2361AA90903D0218881F064
:103D0000FF01218029070D0E401EA41C10F0FF00AA
:103D1000F2D1002EACD0022017F8015FE8E70000D6
:103D20004C0000202DE9FF4F83B08568DDE9107B52
:103D30001E460C465FEA0B0020D02E480068007C2F
:103D400010F0030018D0022818D14FF00008D5F861
:103D50006C90C246CDF8044016F8010BE8B1BAF1F8
:103D6000000F0ED012E030783BF8200081B22846D8
:103D700001F03CFF761C7F1E002FF4DC07B0BDE88D
:103D8000F08F0194D5F86C904FF0010A3BF82000B9
:103D900029F8020B08F1010013E0BAF1010F11D16B
:103DA000059800900246D5F8A8C0631E4FF0000A9F
:103DB00028460199E04742462846E96E01F09EFBFD
:103DC00000208046641C7F1EC6D1B8F1000FD5D0FC
:103DD0000598631E00900246D5F8A8402846019930
:103DE000A047E96E07B042462846BDE8F04F01F013
:103DF00085BB00004C0000202DE9F04387B08946C8
:103E00000EA991E8F01181688DE8F011D1F8E44035
:103E10004946A04707B0BDE8F08300002DE9FF4FF9
:103E200083B099460398DDE91075DDE9136BD0F88E
:103E300008809246012D05D0022D03D0042D01D01B
:103E4000082D06D131480068007C00F003000228EC
:103E50000ED00AEB0700401E00900498D8F8A84046
:103E600000EB0B0101EB0903404652465B1EA047E5
:103E7000002446E0042D24D004DC012D07D0022DBF
:103E80003CD111E0082D29D0102D37D131E0159803
:103E9000CDF800B0CDE90190DDE9030104EB0A02A1
:103EA0003346FFF7BDFB29E01598CDF800B0CDE90A
:103EB0000190DDE9030104EB0A023346FFF7F2FC4F
:103EC0001CE01598CDF800B0CDE90190DDE90301C3
:103ED00004EB0A023346FFF7E5FD0FE0159804EB0B
:103EE0000A02CDE90090DDE903013346FFF71AFF2E
:103EF00004E04A463146404601F000FB1298641C3B
:103F00000644BC42B6DB07B0BDE8F08F4C00002091
:103F10002DE9FF4F8FB0A448DDE91F860068DDE979
:103F20001C970C46006EFCF70DFD0790406908B128
:103F3000FCF708FD0A900798C0680C9007A8FCF7EA
:103F40000FFDA01910900A9858B197490968097C8B
:103F5000890706D110ACCDF8009094E80E00FDF76B
:103F600099F8DDE9100101F049FE0446102F03D055
:103F7000182F5DDB002057E000251EE0DDE910B0C2
:103F80002844DDF828A00190129E5FEA080120462F
:103F90000ED068B17200FCF7E7F8BAF1000F07D055
:103FA000DAF808003346594647685046019AB84740
:103FB0001E990C98884404446D1C4D45DEDBEAE0F4
:103FC0000A980390DDE910B10698DDF848A008448E
:103FD00001905FEA0805264620D0FEB1039830B173
:103FE0008068534659464768019A0398B8470F9925
:103FF00028680969096888473080039828B1806873
:104000005946019A0368039898472D1DAAF10100AB
:10401000B61C0BF1010B5FEA000AE8D10C981E995F
:10402000044406988844401C06904845C8DBB2E02A
:10403000082F02D02198C0B365E000205DE02198F0
:10404000129F00280A980290DDE910A058444546C6
:1040500000902BD021980490534826460068007C9D
:1040600010F0030002D0022841D109E015F8011B2D
:1040700004987F1E30F8210026F8020BF6D136E0B6
:10408000287858B1049931F820003080029828B17E
:1040900080685146009A0368029898476D1CB61CC8
:1040A0000AF1010A7F1EEBD121E02AE03E482646B4
:1040B0000068007C10F0030002D0022817D105E050
:1040C0003A4641462046FCF74FF810E0287840B1C8
:1040D0003080029828B180685146009A036802989F
:1040E00098476D1CB61C0AF1010A7F1EEED10C9890
:1040F0001E99044488440BF10100834648459EDB29
:1041000049E02A482190002543E03846012F04D099
:1041100002281CD0042F37D128E023480068006E05
:10412000FCF710FCCDF800800790219A12990594B5
:10413000CDE90320CDE9016111980A992B18DDE939
:104140000F02FFF70BFB07A8FCF70AFC1CE0219805
:104150001299CDE90210CDE90086119804942B182C
:10416000DDE90F020A99FFF72DFC0DE02198129965
:10417000CDE90210CDE90086119804942B18DDE9F1
:104180000F020A99FFF71EFD1E986D1C80440C98C3
:1041900004444D45B9DB0A98002802D00AA8FCF770
:1041A000DFFB13B0BDE8F08F4C000020647F0008F7
:1041B00038B584680092D4F8E840A04738BD08B507
:1041C000009200F03DF908BD38B5846800930B46B5
:1041D000D4F8E840A04738BD2DE9FC47DFF8AC80B3
:1041E00081461E46D8F8000015468A46006EFCF748
:1041F000A9FB0190406908B1FCF7A4FB0090294697
:10420000504601F0FBFC04460198C768D8F800004E
:10421000017CC90715D0D9F810008068804787B2A3
:10422000009820B181682A460B685146984720883B
:104230006D1C784020800198B542C0680444EFDDD1
:1042400019E0C06B0168009870B11FFA81F80098FE
:104250002A4681680B6851469847A4F800806D1C77
:104260003C44B542F3DD06E0701B89B2401C21805E
:104270003C44401EFBD101A8FCF772FB00980028CB
:1042800002D06846FCF76CFBBDE8FC874C000020C0
:1042900001700120704700002DE9F047234C0427EE
:1042A000E06AD8B1206907EBD0014518E800FFF7B4
:1042B0005DF8060037D0616B07EBC600B9460F58B2
:1042C00020690837C2003846D4F82C80FBF74CFF31
:1042D0006763E66249466A1E20690EE01348C030F3
:1042E000D0E901100830B1FBF0F5AD1CDEE7666BDC
:1042F000431C01EBC007401CF3519042F7D3636BA2
:1043000009EBC00000221A50206960626168281A17
:10431000084425616060B8F1000001D0FCF792FA12
:104320000020BDE8F0870120FBE70000E07B0020D3
:1043300038B58468049D0095D4F8E840A04738BD9E
:104340002DE9FF4F83B03D4F039816468B46846896
:104350003868DDF840809946007CA3EB0B0AC20761
:1043600034D138E0D4F8C870E56E3FB1CDE90065CE
:104370004B46324659460398B8470DE05F4608E081
:10438000D4F8EC30324639460398984725F8020BAA
:104390007F1C4F45F4DDE56E0AF1010005E0298838
:1043A000228D514025F8021B401E0028F7D10096AF
:1043B000D4F8A8504B46324659462046A8470AF141
:1043C00001022046E16E01F099F8761C4645C9DDF0
:1043D00007B0BDE8F08FA8EB06000AF10105401C0C
:1043E000CDF800804543D4F8A8C04B46324620465D
:1043F000E04738680127D4F868A0C06B0088C0F394
:10440000072900F0FF0816E02E46F92D00D9F926FD
:1044100057B10AF101000027314603E000F8019B83
:1044200000F8018B491EF9D2D4F8182171000AF165
:1044300001009047AD1B002DE6D1C9E74C000020DC
:104440002DE9FF4FDFF8A0A00C4685B0DAF8000098
:10445000DDF848801F46C16B154609680391006E60
:10446000FCF770FA01902946204601F0C7FB06468A
:104470000198391B01F1010BD0F80C90406950B341
:10448000FCF760FAA8EB0501491C00915B462A463F
:1044900002902146FCF7FEFD02A8FCF761FA1AE043
:1044A000DAF80000007CC0070DD005985F4634465E
:1044B00000698068804780B22188414024F8021B4F
:1044C0007F1EF9D105E003985A4681B23046FDF7C8
:1044D00055F84E446D1C4545E2DD01A8FCF740FA55
:1044E00009B0BDE8F08F00004C000020FEB54F4C35
:1044F000D4E90201CDE90001206970B3A089401C14
:1045000000B2ADF800006189ADF80210B4F90410F2
:10451000884207DD2088ADF80000E08910F1010035
:10452000ADF80200BDF90200B4F90610884274DC4F
:104530003F4D2868806CFCF705FA0290BDF9000039
:10454000B4F90010884220D1E088ADF80600A088B8
:10455000ADF804002868806C0FE0FFE72088ADF814
:1045600000006088DCE700BFFCF712FA0646006A2C
:104570000022694600F0D5F8B0690028F4D102980D
:1045800000226946C06900F0CCF8BDF80000ADF823
:1045900004002868806C0AE0FCF7FAF90646006A15
:1045A0000022694600F046F80028EED1B0690028E4
:1045B000F2D1029800226946C06900F03BF8002859
:1045C000E3D1B4F90400BDF90010ADF8040088424D
:1045D00007DADDE90001C4E9020102A8FCF7C0F92D
:1045E00098E72868806C08E0FCF7D2F90546006A75
:1045F0000022694600F05CF8A8690028F4D102980E
:1046000000226946C06900F053F802A8FCF7A8F937
:10461000206944F62061884201DD0020FEBDDDE90D
:104620000001C4E902010120FEBD00001C7D002044
:104630004C000020FEB517460E460546002433E028
:104640002846FCF77FF90090856A0146A80726D521
:1046500027B13A4601A8FCF7C8FE03E0D1E9000102
:10466000CDE9010101A93046FCF76DFCB8B1E807BE
:1046700002D00098C56910E0BDF80800401C3080E9
:1046800001240CE001AA31462846FFF7D3FF00B110
:1046900001242846FCF77CF9056A002DF2D1009828
:1046A000056A6846FCF75CF9002DC9D12046FEBDBD
:1046B000FEB516460D46044630E02046FCF742F9AA
:1046C0000090846A0146A00723D526B1324601A88E
:1046D000FCF78BFE03E0D1E90001CDE9010101A95E
:1046E0002846FCF730FCA0B1E00702D00098C4696E
:1046F0000DE0BDF80400401EA8800AE001AA29468A
:104700002046FFF7D5FF2046FCF742F9046A002C4B
:10471000F4D10098046A6846FCF722F9002CCCD149
:10472000FEBDFEB516460D4604464AE02046FCF79F
:1047300009F90090846A0146A0073DD526B13246AA
:1047400001A8FCF752FE03E0D1E90001CDE9010127
:1047500001A92846FCF7F7FB10B3E00702D0009848
:10476000C46927E000983EB1B0F90210B6F9020022
:10477000814203DD084601E0B0F90200B5F90210FC
:10478000814207DABDF90600B5F90610401E05E0C2
:10479000E88011E0BDF90A00B5F906108842F7DBA0
:1047A0000AE001AA29462046FFF7BBFF2046FCF796
:1047B000EFF8046A002CF4D10098046A6846FCF70C
:1047C000CFF8002CB2D1FEBD0078704701207047B1
:1047D0008068012901D000207047406C70470000BC
:1047E000012901D00020704700487047A47F0008CD
:1047F0000D291CD008DC012914D00A290CD00B2962
:104800000CD00C2906D10BE016291AD0172913D089
:10481000182918D0002070470C4870470C48704782
:104820000C48704700688068D0F8FC00704700684A
:104830008068D0F8F400704700688068D0F8F8000D
:104840007047054870470548704700001549000843
:10485000014900087148000801510008C1480008DA
:10486000162901D00020704700487047930E0008B9
:1048700070B50546FBF7E0FD4FF4FA70AC68FCF745
:1048800009F8A066A16B2068C91DC9104843FCF750
:1048900001F8E06600220121A869FDF75FFE0546E8
:1048A000D4F8081120468847D4F8B010204688472D
:1048B000002D01DD012070BD002070BD704700009B
:1048C000F8B50D4DDDE906678468286867B10028F2
:1048D00009D10096D4F8A8602046B04754F8A80F34
:1048E000286006482060F8BD0028FCD0C4F8A80065
:1048F00000202860F8BD000080000020BD480008AE
:1049000070B515460C460646FBF796FDB068C0E943
:10491000004570BD70B515460C460646FBF78CFD8C
:10492000B068C0E9024570BD70B500240D4602288C
:1049300007DAFCF72FF920B1C1688A6A2946904747
:104940000446204670BD80680F292CD2DFE801F0B4
:104950002B080A0C0E2B2B2B10121414161D2400DE
:10496000006870474068704780687047C06870474B
:10497000806B704700207047012070470028FCD0F2
:1049800090F8340000F0010070470028FCD090F847
:104990003400C0F3400070470028FCD090F8340089
:1049A000C0F3800070474FF0FF307047006810B1CF
:1049B000C268926A10474FF0FF30704710B5FDF79C
:1049C000DFFBB0F5807F03D0802803D307211AE0F6
:1049D000082118E0402801D3062114E0202801D343
:1049E000052110E0102801D304210CE0082801D390
:1049F000032108E0042801D3022104E0022801D3A6
:104A0000012100E0002101208840401E10BD4FF62A
:104A1000FF70704770B500240646012531462846D0
:104A2000FFF782FF844200DA04466D1EF6D5204669
:104A300070BD00000146054A0F2000BF02EBC00315
:104A40001B6C8B4201D9401EF8D57047E07B0020DB
:104A50008368D3F8EC30184710B50846114601F0CA
:104A6000CDF8008810BD806800220A804A80028844
:104A7000521E8A808088401EC880704738B50C4618
:104A80008068FBF75FFF009081882180C18861808A
:104A9000818802891144491EA180C1884089084447
:104AA000401EE0806846FBF75BFF38BD024909689D
:104AB00048840020704700004C000020024909682B
:104AC00088840020704700004C000020F0B5541E80
:104AD00004FB030401EB82000C4DDFF834C0001F1F
:104AE0002188E41A01F01F06C1F3451705EBD12117
:104AF000AE5D1CF80770097806EB072606EB01414E
:104B000040F80419521EEBD1F0BD0000D87F000818
:104B1000F87F000870B50446FDF732FB0546FDF747
:104B200047FBAC4201D3002070BD0028FCD050F8F8
:104B3000240070BD70B5184D0446E868011DC0E939
:104B40000E010064091D6161417C05F1240050F8EB
:104B50002100C1680A6B04F1080190470F486066A4
:104B6000A868E061E8680830606101202076FEF7FF
:104B700061F8A064032084F868006FF0704020633F
:104B800060630020FDF7FEFB6FF07F40FDF732FC15
:104B90000348286170BD0000400000200065000847
:104BA0003882000870B5264C94F82800002846D1B9
:104BB000012604F1C00584F8286069684FF420508C
:104BC000814200D90146286800F020FCA86810B98D
:104BD00068688008A8601C491A4808600846FCF705
:104BE0009FFC5A20206200205FF0100101FA00F2C1
:104BF00004EBC003401C1A641028F7D3D5E9001257
:104C000088181438C4E90D01022300200421C4E9E6
:104C1000032305E0636B421C01EBC005401C5A51A5
:104C20002269521E8242F5D866622069401E606089
:104C3000A16BE068FEF752FBFFF72EFB266370BD09
:104C4000E07B0020314D000838000020FEB51446FE
:104C50000D460646FBF79CFE0090836A980731D507
:104C60002846FEF7FBFA00282CD040F6010003404E
:104C7000012B27D03046FBF765FE024600902946FF
:104C800001A8FCF7B2FB01A8FEF7E8FAB8B1009959
:104C900044F22002886A104205D0083101AA084671
:104CA000FCF716F90BE0DDE9012320438862C1E936
:104CB000022305498888401C8880FCF7B1F96846C2
:104CC000FBF74EFEFEBD0000B8000020084670470E
:104CD0001046704708467047104670470068401AF3
:104CE000401E70474068801A401E70470068401A96
:104CF000401E70474068801A401E7047104670473B
:104D0000084670474068801A401E70470068401A85
:104D1000401E704710467047084670474068801A2A
:104D2000401E70470068401A401E704770470000E0
:104D30000B4910B5002081F8280001460848802260
:104D40004030FCF7F5FBC02200210548FCF7F0FBE2
:104D500003480C220021BDE81040C030FCF7E8BB3E
:104D6000E07B0020084910B50020886101467022D0
:104D70000648FCF7DDFB044808220021BDE810408E
:104D80002430FCF7D5BB000040000020AC7C0020A4
:104D900010B5034C6068FBF771FD0020606010BD2A
:104DA000A80000200B4A10B50021517091630846FD
:104DB00002F15C0402F15403C2F8141044F820100C
:104DC00043F82010401C0228F8D35162916291618F
:104DD000116210BDB800002010B50E4C6168206B48
:104DE000814209D8401E2063FFF756FA216B491C07
:104DF000216308B1002010BD60680422401E60607D
:104E0000606A616B02EBC0028A586262012201F89B
:104E1000302010BDE07B0020084910B54A6804240A
:104E2000521C4A604B6B04EBC0044A6A1A514B6B2C
:104E3000002203F83020486210BD0000E07B002013
:104E4000D0F8B8100847016CD0F8D420896908461A
:104E50001047016CD0F8D8208969084610471FB563
:104E60000446D0F82C112E208847216AD4F8482116
:104E70006846891C9047206A694601EB4000FEF7AE
:104E80006BFB04B010BD1CB50446D0F80C112E20ED
:104E90008847216AD4F828216846C91C9047206AAF
:104EA00069460844FEF766FB1CBDF8B55D1ADDE9EE
:104EB0000667B41A641C6D1C65438468009620461E
:104EC000D4F8A860B047206CD4F8DC302A4680695A
:104ED00001B03946BDE8F0401847F8B55D1ADDE984
:104EE0000667B41A641C6D1C6543846800962046EE
:104EF000D4F8A860B047206CD4F8E0302A46806926
:104F000001B03946BDE8F0401847F0B585B0846877
:104F1000DDE90A76B81A5D1A401C6D1C00974543FE
:104F2000D4F8A8702046B847D4F82C112E20884712
:104F3000D4F8482101A8216A9047D4F848210221D9
:104F400001A8904701A8FEF707FB26F8020B6D1E8B
:104F5000F3D105B0F0BDFEB58468DDE90876B81A76
:104F60005D1A401C6D1C00974543D4F8A87020467C
:104F7000B847D4F80C112E208847D4F8282101A86E
:104F8000216A9047D4F82821032101A8904701A85D
:104F9000FEF7F0FA26F8020B6D1EF3D1FEBD0000FD
:104FA00010B504464068FFF745FD10280DD20849AA
:104FB00063680A68D21A0A6001EBC002D4E90201F0
:104FC000443200B1416009B1086010BD106010BDED
:104FD000E07B00202DE9F05FDFF894808346D8F86D
:104FE0003840D8F80C10601E0F182046D0E9001584
:104FF000B9BB6619BE4236D2D6E9001989B3D8F8D2
:10500000343013F83130012B2DD1D8F82C209142B7
:1050100001D1012100E000218A46FFF7C1FF30687D
:10502000D8F83410042202EBC0004A460C50314636
:105030002046FBF799F8BAF1000F05D0D8F83410E4
:10504000321B891AC8F8341004EB09012846FEF710
:1050500045F9BBF1000F05D0834503D80020BDE81A
:10506000F09F00E04D462C44BC42BED30120F6E741
:10507000E07B0020064910B509684A6B824206D0E1
:105080004863FCF7CDFEBDE81040FDF781B910BDC7
:105090004C0000201FB504460F480168486C38B129
:1050A00002680292406803900C48806A18B901E0D7
:1050B00020460EE0886CFBF745FC02A90090FDF746
:1050C00005FF6846FBF74CFC214602A8FCF770F987
:1050D00002A8FDF769F91FBD4C000020B8000020B0
:1050E000064910B509680A6B824206D00863FCF7CE
:1050F00097FEBDE81040FDF783B910BD4C000020BD
:1051000070B514460D460646FBF796F9B0680028C0
:1051100010D0262D0FD0272D0CD1826B0021102A04
:105120001CD0122A06D114B11149C0F8E04040F851
:10513000CC1F416070BD816B102907D01229F9D1B5
:105140000C49C0F8D84040F8BC1FF2E70A49C0F843
:10515000B810C0F8D440C0F8B41070BD14B10749FD
:10516000C0F8DC40C0F8C810C0F8C41070BD000022
:10517000DB4E0008534E0008474E0008AB4E0008B7
:1051800030B509490B681A7C82EA0004640707D528
:105190009C6BDB6B25681B6823600B68DB6B1D60F9
:1051A00009680874104630BD4C000020082907D05B
:1051B000102904D1054940F88C1F0549416070470A
:1051C000044940F88C1F0449F8E70000E95300083F
:1051D00047550008F15300084F5500081CB5CDE9AC
:1051E000001280696A460321FDF7B8F91CBD00680A
:1051F000002802D0C3681B6A184770471CB50BA172
:105200000446D1E90001CDE90001D4F88C20362113
:1052100020469047A08CD4F8902020F0E001606BED
:105220001DF800000143204690471CBD004080C08F
:105230002060A0E070B515460E46D0F88C200446DC
:105240002A219047E06AD4F890203044C0F30F211F
:105250002046904794F82C00D4F890203044C1B2F6
:1052600020469047E06AD4F890203044C0F30F21E4
:105270002046904794F82C00D4F890203044C1B2D6
:1052800020469047D4F88C202B2120469047206B55
:10529000D4F890202844C0F30F212046904794F87A
:1052A0003000D4F890202844C1B220469047206BAB
:1052B000D4F890202844C0F30F212046904794F85A
:1052C0003000D4F890202844C1B2204690472046B0
:1052D000D4F88C20BDE870402C21104730B484688D
:1052E000D4F8F040A44630BC604700007CB51048BC
:1052F0001C46154600680E46006EFBF723FB019026
:105300002946304600F07AFC04800198406950B18B
:10531000FBF718FB009081682A460B6831469847D6
:105320006846FBF71DFB01A8FBF71AFB7CBD0000DC
:105330004C0000202DE9F04116460F46D0F88C2095
:105340001D460446DDF818802A219047E06AD4F80B
:1053500090203844C0F30F212046904794F82C0049
:10536000D4F890203844C1B220469047E06AD4F87F
:1053700090202844C0F30F212046904794F82C0039
:10538000D4F890202844C1B220469047D4F88C200D
:105390002B2120469047206BD4F890203044C0F356
:1053A0000F212046904794F83000D4F890203044E4
:1053B000C1B220469047216BD4F8902001EB080041
:1053C000C0F30F212046904794F83010D4F8902075
:1053D00001EB0800C1B2204690472046D4F88C204B
:1053E000BDE8F0412C211047D0F82C210846104789
:1053F00070B505460C46080AD5F80C118847E0B28E
:10540000D5F80C11BDE8704008470000F0B58E08D3
:105410000023FF220546002406E0E718B7FBF2FC54
:1054200002FB1C7780C5641CB442F6D305460024F9
:105430000BE004EB030CBCFBF2FE80CD02FB1ECCA8
:10544000BC4501D00320F0BD641CB442F1D35B1C09
:10545000022BDFD34E0800230546002407E0E7189F
:10546000B7FBF2FC02FB1C7725F8027B641CB442FC
:10547000F5D3054600240CE004EB030CBCFBF2FE64
:1054800035F8027B02FB1ECCBC4501D00220F0BDEA
:10549000641CB442F0D35B1C022BDDD30023054611
:1054A000002407E0E618B6FBF2F702FB176605F8E2
:1054B000016B641C8C42F5D3054600240CE000BF50
:1054C000E718B7FBF2FC15F8016B02FB1C77B7423B
:1054D00001D00120F0BD641C8C42F1D35B1C022B77
:1054E000DDD30022134602E000F8013B521C8A4241
:1054F000FAD30020F0BD89B200F078BB70B5154634
:105500000E4604460020A36E0AE000BF36F8021BD8
:10551000401C0A0A03F8012BFA2803F8011B0AD0E1
:105520006D1EF3D200280DD04100D4F81821A06ED2
:10553000BDE870401047D4F818214FF4FA71A06EFE
:105540009047DFE770BDD0F830210846104702468B
:10555000C8B2D2F810110847006180E80E0010446C
:1055600040F8042C704700002DE9F74FCC489EB05E
:105570009246D0E90010CDE91B101E98FBF7E2F926
:105580001390D0E90445B0F90810D0F80C800E91C2
:10559000B0F90A1015910068C24E00694068179072
:1055A0003068407CFBF790FB11903068407CFBF743
:1055B000DDFB814613A8FBF7D3F9082C01D80120A5
:1055C00004E0102C01D8022000E004208346012CC6
:1055D0001BD000271798484575D03068407CFBF7F2
:1055E000BDFB18900E988000FBF70CF9199000286D
:1055F0006AD01E98FBF740FC8146002D79D02846E2
:10560000FBF7A0F900261A909AE01BAFE2E7002012
:1056100009901A98324681684B6909A998470E99F2
:105620000546884227D11998FBF78CF91690DDE9D9
:105630001712CDE900120146119B082C2A46484654
:1056400002D9FDF74BFF01E0FDF767FF03AB002038
:10565000169A119983E8850001200090CDE9010197
:1056600003460AEB06010E9A1F98FCF7E7FB16A803
:10567000FBF776F962E0012C22D05DE00998C217B1
:1056800000EB527309EBE30200F007010492CDE94D
:105690000571012101AB009183E812011F9A0AEB09
:1056A0000601104401232A46FCF762FF099832469E
:1056B000284409901A9881684B6909A998470546BA
:1056C000002DDBD13AE055E051E01998FBF73AF9AB
:1056D0001690099A844602FB0B90DDE91712CDE97A
:1056E0000012119B082C2A46614603D9FDF7F6FEED
:1056F00002E02DE0FDF711FF03AB0020169A11998F
:1057000083E8850001200090CDE90101099A1F98E6
:105710000AEB0601104401232A46FCF78FFB16A86A
:10572000FBF71EF909983246284409901A988168B7
:105730004B6909A998470546002DC6D1C144761C7E
:1057400015988642FFF663AF1AA8FBF709F90BE03C
:10575000012001A90597009081E811035146159B8E
:105760000E9A1F98FCF76AFB1998FBF76BF821B0AB
:10577000BDE8F08F1E98FBF77FFB8146002D7DD0A2
:105780002846FBF7DFF800251A9073E00020099007
:105790001A982A4681684B6909A998470E990646C6
:1057A00088421DD1119500E06D1C1A986A1C816811
:1057B0004B6909A99847B042F6D0012001A9059785
:1057C000009081E8110311980E9A2E1A0AEB00013D
:1057D000731C1F98FCF732FB761C06FB089047E011
:1057E000012C22D040E00998C11700EB517309EB5E
:1057F000E301CDE9041700F00702012101AB069295
:10580000009183E812011F9A0AEB0501104401235D
:105810003246FCF7ADFE09982A46304409901A98A2
:1058200081684B6909A998470646002EDBD11DE027
:10583000099A01AB02FB0B90CDE90407012000900F
:1058400083E811011F980AEB050110440123324639
:10585000FCF7F4FA09982A46304409901A988168AE
:105860004B6909A998470646002EE1D109EB0800CB
:1058700081466D1C1598854288DB00E003E01AA87C
:10588000FBF76EF873E7012001A90597009081E806
:1058900011035146159B0E9A1F98FCF7CFFA66E745
:1058A000548300084C0000202DE9FF4F97B01C46A0
:1058B00015461798FBF746F80F90B0F908A0B0F915
:1058C0000A90C168019100F1180100910068D0F8B8
:1058D00010B00FA8FBF744F8DBF804001190C148A2
:1058E000C1490068407C51F820100F69D7F800804A
:1058F000FBF7EAF9082801D8012604E0102801D8AE
:10590000022600E00426BB4512D1DDE90002002199
:10591000CDE904010120CDE90242009001904B46FF
:10592000524629461898FCF789FA1BB0BDE8F08F5B
:10593000202C2ED0102CF8D106FB0AF0FAF762FFCB
:1059400014900028F1D0FAF7FDFF13901798FAF79A
:10595000F9FF0F90396900F11804002972D0DBF8C3
:1059600014100029FAD0B0F908008000FAF74AFFB5
:105970000C90002867D0FAF7E5FF0A90002848D07D
:105980004FEAC608012E7DD0022E7CD0042E7BD19A
:10599000D0E006FB0AF0FAF735FF14900028C4D0D7
:1059A000FAF7D0FF13901798FAF7CCFF00F118041C
:1059B0000F90386998B34FF0010B4FEAC608012EDB
:1059C00004D0022E07D0042E0ED123E01399012318
:1059D000D7F810C003E01399D7F810C0022352463D
:1059E0002046E04704EB8A04139A0020CDE9030225
:1059F000CDF800B00590CDE901B829466D1C012312
:105A000052461898FCF71AFAA9F101005FEA00095A
:105A1000D5D146E013990423D7F810C0DFE7FFE79C
:105A20005746012E04D0022E0ED0042E1FD115E0B1
:105A3000DDF84CB001CC414688470BF8010B7F1EC6
:105A4000F8D114E086E036E0DDF84CB001CC4146F8
:105A500088472BF8020B7F1EF8D108E0DDF84CB028
:105A600001CC414688474BF8040B7F1EF8D100203B
:105A7000F100139ACDE90210CDE904200120009035
:105A8000294602E01AE026E037E0034601906D1C4B
:105A900052461898FCF7D2F9A9F101005FEA000913
:105AA000BED10FA8FAF75CFF13A8FAF759FF1498B4
:105AB000FAF7C8FE39E700200A90F2E71398019040
:105AC000DBF814C00223524620460A99E04701231E
:105AD000D7F810C00BE013980190DBF814C0022334
