:020000040800F2
:1000000038B10020450100081F240008F918000835
:100010001D24000847020008ED240008000000002D
:100020000000000000000000000000004324000861
:10003000490200080000000041240008452400088F
:100040005F0100085F0100085F0100085F01000810
:100050005F0100085F0100085F0100085F01000800
:100060005F0100085F0100085F0100085F010008F0
:100070005F0100085F0100085F0100085F010008E0
:100080005F0100085F0100085F0100085F010008D0
:100090005F0100085F0100085F0100085F010008C0
:1000A0005F0100085F0100085F0100085F010008B0
:1000B0005F0100085F0100085F0100085F010008A0
:1000C0005F0100085F0100085F0100085F01000890
:1000D0005F0100085F0100085F0100085F01000880
:1000E0005F0100085F0100085F0100085F01000870
:1000F0005F0100085F0100085F0100085F01000860
:100100005F0100085F0100085F0100085F0100084F
:100110005F0100085F0100085F0100085F0100083F
:100120005F0100085F0100085F0100085F0100082F
:10013000DFF80CD000F04AF800480047E95C0008FE
:1001400038B100200648804706480047FEE7FEE732
:10015000FEE7FEE7FEE7FEE7FEE7FEE7FEE7FEE777
:10016000A52400083101000810B5431A934209D2B2
:100170008318881803E010F8011D03F8011D521EB2
:10018000F9D210BD40EA01039B0703D009E008C97A
:10019000121F08C0042AFAD203E011F8013B00F84C
:1001A000013B521EF9D210BDD2B201E000F8012B82
:1001B000491EFBD270470022F6E710B513460A46E7
:1001C00004461946FFF7F0FF204610BD064C074DC8
:1001D00006E0E06840F0010394E807009847103417
:1001E000AC42F6D3FFF7A8FF0C6C00082C6C00089B
:1001F00070B58C1810F8015B15F0070301D110F8E9
:10020000013B2A1106D110F8012B03E010F8016B15
:1002100001F8016B5B1EF9D12B0705D40023521E98
:100220000DD401F8013BFAE710F8013BCB1A921C00
:1002300003E013F8015B01F8015B521EF9D5A142FE
:10024000D8D3002070BDFEE77047704770B50C46EC
:10025000054600F0FFF8A8682168C1626168016383
:10026000A1684163490707D5D0E90021C0E9001220
:10027000D0E90221C0E90212A18981842169002903
:1002800003D001DC4FF00001016270BD2DE9F041A7
:100290001E4617468846054600F0DCF8AC68682222
:1002A000414604F58670FFF75FFF2846B8472846A9
:1002B000B047286980688047A062BDE8F0810000EF
:1002C00010B5044600F0C6F8A0681149144AC0F8F9
:1002D000AC101049C0F8A8100F49C0F8B0100F4971
:1002E000C0F8B8100021C0F8BC101368C0F8B430D2
:1002F0000C4BC0E932315168C0F8C41030F8261FE9
:1003000021F0030120F82A1B0749416410BD0000B9
:10031000B94C0008B94D0008814C00080B49000891
:10032000A0000020DB490008314C000810B504464D
:1003300000F090F8A46810480821C4F8E4000F48C1
:10034000C4F8E8000E48C4F8EC000E48C4F8F00009
:100350000D48C4F8A0000D48C4F8A400D4F8C800A3
:10036000C4F8FC00D4F89420204690471020A063E5
:100370000748606410BD000095380008B93D0008CA
:1003800095030008C5040008C54800087B4F000815
:10039000B86A0008F8B5846815460F4694F8260038
:1003A00080074CD5D4F80031204698470646D4F84B
:1003B00004312A46394620469847D4F898300546F5
:1003C0001BB100220121204698472069B04201DD7F
:1003D000012000E00020A169B14201DA012100E022
:1003E000002108436169A94201DD012100E00021EB
:1003F0000843E169A94201DA012100E00021084334
:100400000AD060680022401E00902368D4F8A870CB
:10041000114620465B1EB847D4F8AC302A46314618
:1004200020469847D4F8A01020468847D4F8983042
:1004300005466BB1012200212046984708E0D4F818
:10044000AC3020469847D4F8A0102046884705468F
:100450002846F8BD70B504468068002812D14FF4D4
:10046000BA75284600F088F92A460021A06000F0FD
:10047000C9FDA0680221C18401210464016202490E
:10048000C0F8081170BD00008D04000810B590B0D0
:10049000044620220A496846FFF766FE08492022E2
:1004A000203108A8FFF760FE606B5DF82010C4F8EB
:1004B000001108A951F82000C4F8040110B010BDC3
:1004C000A46000082DE9F84384689846154694F81E
:1004D00026000F46800740D5D4F8003120469847C3
:1004E0000646D4F804312A46394620469847054640
:1004F0002069B04201DD012000E00020A169B14285
:1005000001DA012100E0002108436169A94201DD0F
:10051000012100E000210843E169A94201DA01213B
:1005200000E0002108430AD060680022401E0090CD
:100530002368D4F8A870114620465B1EB847D4F84B
:10054000AC302A46314620469847D4F8A42001B062
:1005500041462046BDE8F0431047D4F8AC30F2E7FE
:100560002DE9F04FDFF828B191B04FF0FF35DBF8FF
:100570000030B3F922100691DE69B3F924A0F469C2
:10058000A189814206D8E289824203D3471AD4F86E
:10059000008012E0D4E90181002970D00A888242EB
:1005A0006DD84D8885426AD3801A82B2486800EBC4
:1005B0008200B0F90070B0F90250781C5FD0307E34
:1005C000A27C014600FB02F9207CCDE90710B3F9BB
:1005D0002A60304601F084FCC0B20E90DBF80010B7
:1005E00007FB0980A37C8A6B0127CDE90402CDE9D2
:1005F0000273C869089AC17E807ECDE90001DDE9F9
:100600000603514601F088F9681C18D046F0020034
:1006100001F066FCDBF80000A37C05FB0981826B1E
:10062000CDE90273CDE90412C069089AC17E807ECB
:10063000CDE90001DDE90603514601F06DF9DBF873
:1006400000005D46C069417E007E814214D9022EC1
:1006500012D086F0040001F043FC2868C069027ED5
:10066000C37E857E02FB03A1437E089A069853440D
:1006700002FB050201F0B2FA0E9801F031FCDBF842
:100680000000627C418C1144418411B0BDE8F08FC0
:100690004C00002004480068C069C06909B1027CB0
:1006A0000A60407C704700004C0000200220088057
:1006B0007047C06982898A4202D8C2898A4210D2B0
:1006C000806880B102888A420DD843888B420AD361
:1006D000406800EB8100A0EB8200B0F90000002828
:1006E00001DB0120704700207047002801D002F094
:1006F000ABBB704738B50546FFF7F7FF040009D0DC
:1007000000F092F82A460021009000F07BFC684639
:1007100000F0A6F8204638BD024A106021F0030020
:100720005060704700AC002010B5002814D004467B
:100730000A48406B10F8341000290DD002290BD262
:10074000042101EBC4014158486802F035FB204602
:10075000BDE8104004F0A2B810BD000040AB00207E
:10076000002805D0034AD16B016001B14860D06315
:100770007047000040AB00202DE9F041044603F033
:1007800055FF2848E41C24F00305016C2D1DA942E7
:1007900000D90D46C46B13E054F8042CAA420ED1C4
:1007A00084B1216809B162684A60616809B1226850
:1007B0000A60C26BA24231D12168C1632EE0246875
:1007C000002CE9D18046816BC0680F1857F8040CE3
:1007D0003E1A306838B1002004F03EF957F8040C96
:1007E0003E1A3068D0B97068A84217DB3044441B09
:1007F0003046241D04F016F9D8F80C10491BC8F82F
:100800000C10D8F814102944C8F814107068401B54
:1008100002D0314602F0D0FA44F8045C2046BDE82C
:10082000F081000040AB00200549CA69521CCA6132
:10083000496B01EBC0010A78521C0A7000F028B81D
:1008400040AB00200549102805D94A68B0EB520F8B
:1008500002D3500800E010208860704700AC0020F0
:100860000A4902684B6B52F8082C03EBC20213785A
:10087000022B03D3CB690BB15B1ECB611178491EF0
:1008800011700021016008467047000040AB002055
:10089000002806D00349042202EBC000496B085827
:1008A0000830704740AB002010B5C2B2CBB2D21AAC
:1008B00000D5524293B25B43C0F30722C1F3072431
:1008C000121B00D55242000C92B2A0EB114002FB69
:1008D000023200B2002801DA404200B280B200FBCE
:1008E000002010BD10B50021084600F0FFF843F6C7
:1008F000FF725042BDE8104013460146AFF300803E
:100900002DE9FC4107461C4615460E46042001F021
:10091000E7FA80461148C068C16C006D0F44064478
:100920000D440444ADF80070ADF80450ADF8026019
:10093000ADF80640684602F0C9F807E023462A46AB
:100940003146384601F04AF902F082F80028F5D124
:10095000404601F0C5FABDE8FC81000040000020DF
:100960002DE9F0411C4616460D460746022B02DBD8
:100970000020BDE8F0811C20FFF7FEFE0028F8D023
:100980000DB105610AE0094A52F8241009B905E0E1
:1009900011460A68002AFBD10969016184618682D7
:1009A000002101604160C0E90217E2E76400002015
:1009B00070B51D46FFF7D4FF040009D000F00EF813
:1009C000E068006820B90348006800EB8500846592
:1009D000204670BD4C000020FFF7C2BE70B590B33A
:1009E0008269022A30DA1E4C54F8221019B944F8F0
:1009F000220032E019464B68002BFBD106E0CB68A1
:100A0000C5681B682D68AB4203DD09680029F6D173
:100A10001AE0C1B1CB68C6681B683668B3420CD116
:100A2000838A012B05D008E01946DB681B68AB42BE
:100A300003DB0B68002BF7D129B14B6833B1186089
:100A40004A68426004E0FFE7012070BD44F82200DC
:100A50004860884200D100210160002070BD000084
:100A6000640000200A4A816952F82130834202D191
:100A7000036842F82130416809B102680A600168E0
:100A800009B142684A60002101604160704700007E
:100A900064000020022801DB00207047054951F85E
:100AA000200004E0C16809680029F6D00068002829
:100AB000F8D1704764000020034951F82000C16854
:100AC0008A6A08211047000064000020024951F89A
:100AD000200000690068704764000020024951F856
:100AE00020000069406870476400002070B50D4622
:100AF00003F018FD0446284603F01CFD204370BD9A
:100B00002DE9F0411948016821F001010160184800
:100B1000012585601749016000681749884200D0A7
:100B2000FEE700F007FA154E2E20307000F06FF946
:100B3000134803F043FD04F085FF074601F0AAF8CF
:100B400010B101F0B1F838B901F0B4F8044601F081
:100B5000A7F8214601F0BEF90021084600F0F0F8A0
:100B600001F0F0FD75703846BDE8F081002000E02E
:100B700000300240C2A507F4CDB5E8B54000002022
:100B80000CAC002038B5040018D00D480068006E89
:100B9000A04201D100F0ABF82046FFF745FE0090DF
:100BA000406908B100F00CF900980068FFF714FFE5
:100BB0006846FFF755FE2046FFF7B6FD38BD00003A
:100BC0004C00002038B5002460B1FFF72DFE0090E6
:100BD000006800698068804701F030FB0446684681
:100BE000FFF73EFE204638BD38B5002808D0FFF795
:100BF0001BFE00F1180400906846FFF731FE204606
:100C000038BDF8B516460F46050012D0FFF70CFEAA
:100C1000009044696846FFF723FE2846FFF7D2FF9D
:100C20000346082800DD2CB132463946284604F038
:100C3000DDF9F8BD32463946284604F077FBF8BDA9
:100C400010B5002821D009B30AB3B1F90040B2F9B8
:100C500000309C4200DA23460380B1F90240B2F929
:100C600002309C4200DA23464380B1F90440B2F9D5
:100C700004309C4200DD23468380B1F90610B2F9AE
:100C80000620914200DC1146C18010BD11460A6861
:100C900002604968416010BD00280BD003880B44F6
:100CA0000380838819448180418811444180C18830
:100CB0001144C1807047B0F90220B1F906309A4260
:100CC00013DCB1F90220B0F906309A420DDCB0F91C
:100CD0000020B1F904309A4207DCB1F90010B0F9F4
:100CE0000400814201DC012070470020704710B5EC
:100CF00001F086F801F03CF9BDE8104001F0F8BBC6
:100D000070B5094D0446022C2868467C09D220465D
:100D1000FFF7C0FE28B128684474FFF7E8FF0348D6
:100D20000460304670BD00004C000020B40000207C
:100D300001F086B80149886070470000400000203B
:100D4000094A30B41080094A1180094A1268537C5C
:100D5000084A52F82330DA68146A0A46A446014663
:100D600030BC184660470000700000207200002070
:100D70004C0000206400002002480068002800D0D9
:100D8000004770471C01002002498A6802B9886048
:100D9000FFF7F2BF0C0100202DE9F0411E46069C32
:100DA0001746884605463A46A8687F1C3346D0F861
:100DB00004C041462846E047641EF4D1BDE8F081F6
:100DC00038B50546FFF730FD00908189491E0CB209
:100DD00084816846FFF744FD002C02D12846FFF7C6
:100DE000A3FC38BD10B54FF4F0442146002005F0B7
:100DF00047F82146FFF790FC8020FFF723FDBDE870
:100E000010400148FFF796BFD86700087047704749
:100E100010B5082A0EDC0346012A18D0022A56D043
:100E2000042A76D010F8042B03F8012B491EF9D1BF
:100E3000012010BD102A08DC4FEA000230F8043B04
:100E400022F8023B491EF9D1F2E7002010BD10F84C
:100E5000042BD207120E491E34D010F8044B491E41
:100E600004F0010442EA84122CD010F8044B491E0D
:100E700004F0010442EA441224D010F8044B491E45
:100E800004F0010442EA04121CD010F8044B491E7D
:100E900004F0010442EAC40214D010F8044B491EC5
:100EA00004F0010442EA84020CD010F8044B491EFD
:100EB00004F0010442EA440204D010F8044B04F0A8
:100EC0000104224303F8012B0029C0D1B0E710F838
:100ED000042B9207120E491E15D010F8044B491E20
:100EE00004F0030442EA04120DD010F8044B491E2A
:100EF00004F0030442EA840205D010F8044B04F025
:100F000003042243491E03F8012B0029DFD18FE798
:100F1000FFE710F8042B1207120E491E05D010F837
:100F2000044B04F00F042243491E03F8012B00294F
:100F3000EFD17DE70A4810B5816900290ED1012162
:100F40008161FFF74FFF01F025F8054905481C3185
:100F50000860BDE81040084600F04CB810BD000025
:100F600040000020E9470008B0F90030B1F9002046
:100F7000934200DA0280B0F90230B1F902209342C4
:100F800000DA4280B0F90430B1F90420934200DD68
:100F90008280B0F90620B1F906108A4200DDC180D6
:100FA000704770B5B1F90040B2F900309C4200DDE5
:100FB00023460380B1F90250B2F90240A54200DD98
:100FC0002C464480B1F90460B2F90450AE4200DA14
:100FD00035468580B1F90610B2F90620914200DB52
:100FE0001146C1809D4201DBA14201DA002070BDA3
:100FF000012070BD02494A694260486170470000A3
:101000004000002010B502E000F8011B521E0AB19A
:101010008307F9D1930818D001EB014402F00302D1
:1010200004EB042406E010C01B1F10C040F8084B5E
:1010300040F8044C042BF6DA01E010C05B1E002BD4
:10104000FBD102E000F8011B521E002AFAD110BDAC
:1010500010B5830702D520F8021B521E530811D089
:1010600001EB0144042B09DB10C01B1F10C0042B33
:1010700040F8084B40F8044CF6DA01E010C05B1E63
:10108000002BFBD1D20700D0018010BD10B50400A9
:1010900002D0607910B106E0012010BD002020715F
:1010A000204600F005F801206071002010BD00000E
:1010B00008B500680649884208D10648416941F0F0
:1010C00040014161406900F04000009008BD00000F
:1010D00000300240001002402DE9F84FDFF8B8A1BF
:1010E00000220AF1040B144601274FF00F090BF1FF
:1010F000040E00BF0B6807FA04F52B40AB4274D115
:10110000DFF898C14E68A6EB0C0866452BD00DDCC5
:10111000032E34D005DC36B3012E19D0022E2FD188
:101120001BE0112E16D0122E2AD119E0B8F5881F17
:1011300019D006DCB8F5803F15D0B8F5801F1FD157
:1011400011E0B8F5001F0ED0B8F5041F18D10AE061
:10115000CA6815E0CA68121D12E0CA6808320FE0BA
:10116000CA680C320CE08A682AB1012A4FF00802E2
:1011700003D0456104E0042202E0056100E00022A2
:10118000FF2B01D8064601E000F104064FEA840572
:1011900001D9A5F12005D6F800C009FA05F82CEA16
:1011A000080C02FA05F54CEA050CC6F800C04D68BB
:1011B000ED006AD53A4DAE6946F00106AE61AD6903
:1011C00024F0030605F001050095364D06EB050CED
:1011D000DCF80850A6074FEA167809FA08F6B54376
:1011E000314EB04202D100261AE04EE02F4EB042FE
:1011F00001D1012614E02E4EB04201D102260FE0AB
:101200002C4EB04201D103260AE02B4EB04201D150
:10121000042605E0294EB04201D1052600E006264D
:1012200006FA08F62E43CCF808604D68DAF800603C
:10123000ED03554601D51E4300E09E432E604D68E8
:10124000AD0305D5DBF800601E43CBF8006004E079
:10125000DBF800509D43CBF800504D68DEF800608D
:10126000ED02754601D51E4300E09E432E604D6899
:10127000AD0205D5084D0C352E681E432E6004E0E6
:10128000054E0C3635689D433560641C102CFFF408
:1012900031AFBDE8F88F00000004014000001110DC
:1012A000001002400000014000080140000C014015
:1012B000001001400014014000180140001C0140D2
:1012C0008068084000D0012070470AB10161704772
:1012D0000904FBE70148806870470000080000200F
:1012E000024881680278114481607047080000203C
:1012F000074810B5016841F010010160032000F0BB
:1013000067F8002000F006F800F024F8002010BD77
:101310000020024070B50D4D04464FF47A712878D4
:10132000B1FBF0F00A490968B1FBF0F000F0D0FA27
:1013300048B9102C07D200222146501E00F028F890
:1013400000206C6070BD012070BD0000080000200E
:10135000140000200C4808B5816941F00101816149
:10136000816901F001010091C16941F08051C161C1
:10137000C06900F0805000900448416821F0E061AD
:1013800041F00071416008BD0010024000000140C2
:10139000F0B40E4B1B680C46C3F30223C3F10705E0
:1013A000042D00D90425191D072901D2002300E0CE
:1013B000DB1E012606FA05F1491E214099409E4098
:1013C000761E16403143F0BC01F02AB80CED00E067
:1013D000064900F0070208684FF6FF03184040EA8C
:1013E0000220034A10430860704700000CED00E043
:1013F0000000FA052DE9F047DFF8548105460E4656
:10140000D8F8000000F00700B0420CD2D8F8001065
:1014100021F007013143C8F80010D8F8000000F0AF
:101420000700B0426FD128684A4C810712D54007A7
:1014300003D5606840F4E06060602878000703D559
:10144000606840F4605060606068A96820F0F00057
:10145000084360602878C00744D06868012816D027
:101460002168022816D0890700294CDA616821F02A
:10147000030101436160FFF72DFF6968074641F2F0
:10148000883001290ED00229814618D026E0216833
:101490008903E9E78901E7E7FFF71CFFC11B49451D
:1014A00001D918E081466068C0F381000128F3D1BA
:1014B00018E000BFFFF70EFFC11B49450BD860685D
:1014C000C0F381000228F5D10CE000BFFFF702FF56
:1014D000C11B494502D90320BDE8F087606810F0C0
:1014E0000C0FF3D1D8F80010404601F00701B142CB
:1014F0000BD9016821F0070131430160006800F059
:101500000700B04201D00120E6E72878400705D562
:101510006068E96820F4E0600843606028780007AC
:1015200006D56068296920F4605040EAC100606017
:1015300000F016F86168084AC1F30311515CC84015
:10154000064908600020FFF7E5FE0020C4E7000020
:101550000020024000100240286000081400002013
:1015600012A185B00FC98DE80F0014A0144A0068BD
:1015700004905168134801F00C03042B10D0082B81
:101580000ED1C1F38343C9031DF803000AD5516886
:1015900004AAC1F34041515C0A4A5043B0FBF1F048
:1015A00005B0704708494843FAE700000203040504
:1015B000060708090A0B0C0D0E0F1010010200009F
:1015C0000010024000127A0000093D002DE9F84F9A
:1015D00004460078B94DC00748D06868C0F3810060
:1015E000012807D06868C0F38100022809D1686823
:1015F000C00306D52868800338D5606800286FD0FE
:1016000034E06068B0F5803F0BD010B1B0F5A02F8A
:1016100011D0286820F480302860286820F48020C9
:1016200002E0286840F480302860606888B1FFF7E5
:1016300051FE064609E0286840F480202860F0E763
:10164000FFF748FE801B642875D828688003F7D50B
:101650000CE0FFF73FFE064605E000BFFFF73AFE4D
:10166000801B6428F0D828688003F7D42078944E33
:1016700080074FF001094FF000083BD5686810F073
:101680000C0F07D06868C0F38100022809D1686890
:10169000C00306D42868800714D5206901281FD10B
:1016A00010E02069B0B1C6F80090FFF713FE0746BE
:1016B00005E000BFFFF70EFEC01B0228C4D8286853
:1016C0008007F7D52868616920F0F80040EAC1007A
:1016D00028600FE0C6F80080FFF7FCFD074606E033
:1016E000E9E000BFFFF7F6FDC01B022823D82868F9
:1016F0008007F7D4207800072CD57248A169D9B1AA
:10170000C0F80090FFF7E6FD074604E0FFF7E2FDB2
:10171000C01B02280FD8686A8007F7D56A484FF4C3
:10172000FA510068B0FBF1F0009000BF0098411E34
:101730000091FAD20EE080E0C0F80080FFF7CAFD09
:10174000074604E0FFF7C6FDC01B022875D8686A8B
:101750008007F7D42078400760D5E8690027C000EB
:1017600008D4E86940F08050E861E869012700F09A
:101770008050009055480168C90513D4016883461C
:1017800041F480710160FFF7A5FD824606E000BFCD
:10179000FFF7A0FDA0EB0A0064284ED8DBF800009C
:1017A000C005F5D5E06801280AD008B1052813D096
:1017B000286A20F001002862286A20F0040002E074
:1017C000286A40F001002862E06841F2883B98B145
:1017D000FFF780FD82460BE0286A40F00400286293
:1017E000EEE700BFFFF776FDA0EB0A0159455AD896
:1017F000286A8007F6D50CE0FFF76CFD824605E00D
:10180000FFF768FDA0EB0A0159454CD8286A80070C
:10181000F6D41FB1E86920F08050E861E06988B330
:101820006968C1F38101022945D00228C6F86080A9
:1018300004D0FFF74FFD044638E034E0FFF74AFDDF
:10184000074604E0FFF746FDC01B02282BD8286896
:101850008001F7D4206AB0F5803F05D16868A1689F
:1018600020F4003008436860D4E90801084369683F
:1018700021F4741108436860C6F86090FFF72AFDF0
:10188000044606E015E000BFFFF724FD001B022818
:1018900009D828688001F7D50BE000BFFFF71AFDD3
:1018A000001B022802D90320BDE8F88F28688001B8
:1018B000F4D40020F8E70120F6E700000010024011
:1018C00000004242800442421400002000700040A8
:1018D00010B5401EB0F1807F01D3012010BD4FF044
:1018E000E02460610F21601700F09AFD0020A061E4
:1018F00007202061002010BDFEE700000449054AD2
:101900000968497C52F821100969096808470000F4
:101910004C000020640000202DE9F04F05468DB0FA
:101920007B48DDF860901A9C00681E4617464FF011
:10193000000A78B11B9B199ACDF808900593CDE960
:101940000324DDE91623CDE90023046833463A4633
:10195000284680E0DDE9160201EB060805EB070CDE
:101960001043A8F10108ACF1010C012806D0C9F11F
:1019700008000590002002910990C6E065480268C1
:10198000B2F90A30581A002806DD361A002E63DD37
:101990001946199B00FB0344B2F90E00A8EB0000A6
:1019A000002802DD361A002E56DDB2F90C00ACEB31
:1019B0000000002800DD3F1AB2F908300020AB42D9
:1019C00035DD581B3F1A4B46B9F1080F26D006DC0F
:1019D000012B0BD0022B11D0042B28D116E0102B99
:1019E0001ED0182B1FD0202B21D11CE020F0070384
:1019F00004EBE0041D4400F0070018E020F00303AE
:101A000004EBA0041D4400F0030010E020F00103EB
:101A100004EB60041D4400F0010008E0044404E00D
:101A200004EB400401E004EB800405440020002F97
:101A300012DD1B9BDDF864C0CDE90403CDE900692C
:101A4000CDE902C4527C34483B4650F82200C268BB
:101A500054680A462946A0470DB0BDE8F08F179993
:101A6000029808440C902B49401E00900A68B2F975
:101A70000A30834241DCB2F90E10029881423CDB0D
:101A80004FF0000BD84603950A9434E0BBF1000FE9
:101A900005D10A984FF0080B10F801AB0A90059990
:101AA000ABEB090B3AFA01F00AFA09F101F0FF0A6F
:101AB00004D118490968097C890716D415490968B1
:101AC000C96B0A680B921B9A0AB152F82000086091
:101AD00016990398009B4218521E029900F07EF856
:101AE0000C490B980968C96B08600399169808F1AE
:101AF000010808440390B845C8DB0998401C0990C8
:101B00000C980290199804440998B042A7DBA3E707
:101B10006C0000204C00002064000020F0B40C4653
:101B200012490968B1F90A30A3421CDCB1F90E3040
:101B3000A34218DBB1F90830834200DD1846B1F941
:101B40000C30934200DA1A4682420CDB4B7C084987
:101B500051F8235013462246E9688E68014628460C
:101B6000B446F0BC6047F0BC704700004C00002059
:101B7000640000200A46174930B40968B1F90A30F8
:101B8000934225DCB1F90E30934221DBB1F90830E4
:101B900083421DDCB1F90C30834219DB0B7C0E4C07
:101BA000DB0709D0497C54F82130D968CC6901465B
:101BB000A44630BC18466047CB6B497C1B6854F880
:101BC0002140E1688D6901462046AC4630BC604743
:101BD00030BC70474C0000206400002038B5134C26
:101BE0002468B4F90850854200DD2846B4F90C5049
:101BF000954200DA2A46824217DBB4F90A508D4238
:101C000000DD2946B4F90E509D4200DA2B468B4286
:101C10000BDB0093647C064B53F82440E3681D699A
:101C200013460A4601462046A84738BD4C0000200E
:101C300064000020082102F0B3BB00000248092123
:101C40000068407C02F0ACBB4C000020092102F08F
:101C5000A7BB70B500252C462046FEF71BFF00B140
:101C60006D1C641C022CF7DB284670BD024800681E
:101C7000407C00F003B800004C00002010B5FEF7D7
:101C800009FF002805D0C168CA6ABDE810400221DA
:101C9000104710BD01480068704700007C0000201C
:101CA000012002F0F3BB00000148406870470000CB
:101CB0007C000020022002F0E9BB00F001B8000027
:101CC0002DE9F041002809D0876837B10D4E7168C1
:101CD00019B10468B4F5807F02DD0020BDE8F08111
:101CE0003068844200DD0446002507E057F82500EF
:101CF000FFF704FE716841F825006D1CA542F5DB75
:101D00007068EBE72C0100200449054A0968497C0A
:101D100052F8211009694968084700004C0000206A
:101D20006400002010B500F01F01074A074BC0F304
:101D30004514C0F3C4201B5D105C515C00EB032014
:101D400000EB014010BD0000FC6700081C680008A3
:101D500010B50A4C606860B920688000FEF70CFD81
:101D6000606040B104F10801054808600846FFF7CB
:101D700041F9002010BD012010BD00002C01002001
:101D8000494800082DE9F047FFF763FF07460024A4
:101D9000DFF860802AE02046FEF77CFE28B3D8F802
:101DA000000090F8119044742046FFF743FF082884
:101DB00017DC1148114950F824000069884210D0FE
:101DC0002046FFF743FF0646002508E0E8B2FFF78C
:101DD0009BFF0246E9B2204600F088F86D1CB54230
:101DE000F4DBD8F8001081F81190641CBC42D2DBFF
:101DF000BDE8F0874C00002064000020EC6A000879
:101E000010B50D4C0D492068407C51F8200048B1B8
:101E1000C16811B10968042901D00068F7E708B169
:101E2000FEF720FE20680021016600F108014161F3
:101E3000BDE8104000F02EB84C00002064000020E7
:101E400001490968496808472801002004490968D0
:101E50000A7C520701D5C96B00E0896B08607047A6
:101E60004C0000207CB5094C05462068417C0848A0
:101E700050F82100C1680A6B6946904720686A469D
:101E800029460830FFF78DF87CBD00004C0000208B
:101E9000640000200448016804484A7C083150F876
:101EA0002200C268126B10474C0000206400002022
:101EB00001490968096808472801002004490968A0
:101EC0000A7C520701D5896B00E0C96B0860704736
:101ED0004C000020014AC2E9000170477C0000204C
:101EE000014909688968084728010020F8B51546A6
:101EF0000E460124FEF7CEFD009058B1C0681021B7
:101F0000426A68469047030004D02A46314600984A
:101F1000984700242046F8BDF8B515460E46012422
:101F2000FEF7B8FD009058B1C0680B21426A6846C0
:101F30009047030004D02A46314600989847002471
:101F40002046F8BDF8B515460E460124FEF7A2FD61
:101F5000009058B1C0680A21426A68469047030061
:101F600004D02A4631460098984700242046F8BD00
:101F700010B5074C2068006BFFF7C0FCFFF79EFF11
:101F80002068406BFFF7BAFCBDE81040FFF75EBF6A
:101F90004C00002010B5A0B014211AA8FEF70BF9D0
:101FA00068216846FEF707F900231A4612491348CC
:101FB000FEF7FEFC0446A02280210020FFF7ACFFC4
:101FC000A02280210020FFF7BDFF05201C901AA948
:101FD0002046FEF73BF90A4800900A4801900A485B
:101FE00003900A4807900A4B0A4A69462046FEF7C2
:101FF0004DF920B010BD0000586000087060000866
:102000009122000875220008792200086F2200083A
:102010002D030008C102000810B5012902D04FF0BD
:10202000FF3010BD03F0BEFB002010BD2DE9FF4FB7
:102030008DB01746674ADDF870901E9E2098126892
:102040001D4600248AB11D9B1F98CDE90293CDE95E
:102050000460DDE91A03CDE9000314682B463A4613
:102060000D98A04711B0BDE8F08F0D9A01EB05085F
:1020700002EB070CDDE91A231A43A8F10108ACF1C1
:10208000010C012A06D0C9F108004FF0000B0291A3
:1020900005909CE0504A1268B2F90A40631A002B7E
:1020A00006DDED1A002DDDDD21461D9C03FB0466D7
:1020B000B2F90E30A8EB0303002B02DDED1A002D60
:1020C000D0DDB2F90C30ACEB0303002B00DDFF1ABE
:1020D0000D9B1C1AB2F90830A3420DDDA3EB040CD2
:1020E0000CEB0003181A20F007000444A7EB0C07C0
:1020F00006EBE30603F00700002FB3DDDDF874C044
:102100001F9BCDE902C6CDE90403CDE90059527CFD
:1021100032483B4650F82200C26855680A462146BC
:10212000A8479FE71B99029808440C902A49401E33
:1021300000900A68B2F90A30834242DCB2F90E100C
:10214000029881423DDB4FF0000A0D980A96D04676
:10215000039034E0BAF1000F05D10A984FF0080A55
:1021600010F8014B0A900599AAEB090A34FA01F01C
:1021700004FA09F4E4B204D117490968097C890713
:1021800017D415490968C96B0A680B921F9A0AB1DE
:1021900052F82000086003991A98009B0A18DDE99C
:1021A0000210521EFFF71AFD0B490B980968C96B04
:1021B000086003991A9808F1010808440390B8458B
:1021C000C8DB0C9802901D980BF1010B0644AB453F
:1021D000A8DB47E76C0000204C00002064000020D2
:1021E000002818D0410817D0810817D0C10817D08F
:1021F000010917D0410917D0010A17D0410A17D099
:10220000010B15D0C10B13D0010C11D0810C11D0D2
:10221000000E11D020207047012070470220704727
:10222000032070470420704705207047082070473E
:1022300010207047122070471820704700B5002208
:10224000FFF7CEFF012804D0811E062903D80822FB
:102250000BE0012209E0A0F10901072901D81022B1
:1022600003E011380F2800D82022104600BD491E77
:10227000FDD2704703F01ABD70B50C46051904E095
:10228000281B10F8010C03F011FD641EF8D270BD7C
:1022900003F0C4BC074910B5054808600846FEF7BE
:1022A000F5FE002803D0BDE81040FDF7CEBF10BDFD
:1022B00000300240000000202DE9F04F85B00024DE
:1022C00050480094019402940394816941F04001C4
:1022D0008161816901F040010491816941F010013F
:1022E0008161816901F010010491816941F004016B
:1022F0008161816901F004010491816941F0080163
:102300008161816901F008010491816941F0200136
:10231000816180694FF6FD7500F020000490002275
:1023200029463948FEF7D1FFDFF8E0A04FF44178A5
:10233000002241465046FEF7C8FF4FF48059002264
:1023400049463348FEF7C1FF009502260125039652
:10235000CDE9015469462C48FEF7BEFE4FF6FF70EA
:102360000327CDE9000769462A48FEF7B5FE49F282
:10237000FF70CDE90007DFF8A0B069465846FEF7C8
:10238000ABFE4FF6F940CDE9000769465046FEF72F
:10239000A3FECDE90064694650460294FEF79CFE18
:1023A000CDF800800396CDE9015469465046FEF70A
:1023B00093FE4EF6E770CDE9000769461448FEF734
:1023C0008BFECDF800900396CDE901546946104884
:1023D000FEF782FEE8028DE8310069465846FEF7B6
:1023E0007BFE18208DE8310069460948FEF774FE2F
:1023F00069460548CDE90067FEF76EFE05B0BDE809
:10240000F08F00000010024000180140000C014055
:10241000001401400010014000080140FEE7704731
:102420000907090E002806DA00F00F0000F1E0208D
:1024300080F8141D704700F1E02080F80014704708
:102440007047704702480168491C0160FEF748BFA9
:102450001800002030B58FB028216846FDF7ABFE8C
:1024600014210AA8FDF7A7FE01210804CDE90010F8
:102470000024029402250491CDE907504FF4E010A6
:1024800009906846FFF7A2F80F20CDE90A05680217
:10249000CDE90C4002210AA80E94FEF7ABFF0FB065
:1024A00030BD00000D48016841F001010160416844
:1024B0000B4A1140416001680A4A114001600168FD
:1024C00021F480210160416821F4FE0141604FF454
:1024D0001F0181600449C00308607047001002407A
:1024E0000000FFF8FFFFF6FE08ED00E0FEE7000049
:1024F00002490120096881F8540070474C0000200F
:102500002DE9F0418AB0040036D0FEF78DF9019034
:10251000D0E90012CDE90412876A056A01A8FEF726
:102520009FF9204600F0B4FA060025D0204600F0BE
:1025300002F98046B80704D52A46414604A800F0AF
:10254000F8FB2046FEF770F901904046FEF76CF963
:1025500006903046FEF768F9039005620698019AE6
:10256000C1691162C46101A8FEF77AF906A8FEF7F5
:1025700077F903A8FEF774F90AB0BDE8F08100000E
:102580002DE9FC5FDFF834A10746DDE90C54DAF8E9
:102590001800DDF83CB0984691460E4604434DB90C
:1025A000BAF8020048B346480AF144010068407C8A
:1025B00051F82050681C0ED0FDB12846FEF734F9C2
:1025C0000190B0F90010B0F902200F441644B9F19F
:1025D000000F02D006E000250FE0B0F90430591AD0
:1025E00001F10109B8F1000F04D1B0F90600801A19
:1025F00000F1010801A8FEF733F90BF12C00FEF7FA
:1026000079F85FEA000B56D0BAF80200401CAAF82D
:1026100002005846FEF708F90090078007EB090111
:102620004680491E818006EB0801491EC1800E9933
:102630000161244A816A2240114381626846FEF7A3
:102640000FF9DAF810005E4650B1FEF721F907469F
:102650003046FEF71DF90146786948617E6101E068
:10266000CAF810B02946584600F0A8FAA00602D5CC
:10267000584600F03FF9E00704D0DAF82410491C6E
:10268000CAF82410600602D55846FFF739FFA007A4
:102690000DD55846FEF7C8F80090816A41F0020156
:1026A00081626846FEF7DCF8584600F0F0F8012138
:1026B000584600F079FB5846BDE8FC9FA800002072
:1026C0004C0000209F3F3F0010B50446C168D4E98C
:1026D0000020172A0DD004DC0E2A0CD0142A07D1B2
:1026E00004E0222A0CD0282A02D10CE000F08BF959
:1026F0000020E06010BD2146BDE8104000F018B990
:102700006FF07040F5E7BDE8104000F0C0B8000081
:10271000034804490068407C51F8200070470000DD
:102720004C000020EC00002010B5002802D0FEF77D
:10273000AFF8C06910BD10B5002802D0FEF7A8F8A8
:10274000806910BD2DE9FF5F2C4D6878002853D1BA
:1027500000272B482F616F630068DFF8A8903C4684
:102760004764AF806F804FF0020A4FF0FF3B43F6A3
:10277000FF7805F144062046FEF78CF998B1CDE9C3
:102780000297CDE900BA0021424643460846FFF7CA
:10279000F7FE1A4A46F824004C326FF0704142F8B6
:1027A000241000F074F8641C022CE4DB164FDFF8F0
:1027B0005C80DFF85C90002407EBC40000F0ECF8CC
:1027C00008EBC40000F0E8F809EBC40000F0E4F8FE
:1027D000641C022CF0DB306800F08CF8FFF788FEF8
:1027E0000120064968703C310A48086004B0084678
:1027F000BDE8F05FFEF7FEBBBDE8FF9FA80000202C
:102800004C0000205557000804AD002014AD0020F6
:1028100024AD00201548000870B586B00D460600AE
:102820002CD0FEF701F80090846AA10723D5D0E9E7
:102830000010CDE90110E00302D5304600F014FA93
:102840005DB1286803906868049003A9009800F0BF
:10285000ABF803A901A8FEF787FB314601A800F0F9
:10286000ABF840B140F601000440012C08D001A9AA
:10287000304600F0F5F96846FDF7F2FF06B070BD8E
:102880000098026A816901A800F053FAF3E7002179
:10289000FFF7C2BFFEB515460E4604001CD0FDF77B
:1028A000C3FF0246009090F82800800711D53146FA
:1028B00001A8FEF776FB60B16846FDF7D1FF2A4616
:1028C00001A9204601F006FF2046FFF72DFF044630
:1028D0000CE06846FDF7C4FFFEBD2A4601A920466C
:1028E000FFF7D8FF2046FDF7D3FF046A002CF4D190
:1028F000FEBD000070B50C4D04002868866C01D147
:102900000A490C698464204600F026FAFFF7C2FAEF
:102910002046FDF7BDFF2968B0F90020CA64B0F970
:1029200002000865304670BD4C000020A800002061
:1029300070B50C00054609D0FFF7FDFE002805D054
:102940002146A560BDE8704000F010BA70BD0000DF
:102950000EB50E48006890F8541009B10C4811E00B
:10296000806CFDF761FF0090D0E90010CDE9011007
:102970006846FDF775FF0748816A11B101A800F0AC
:102980001BF801A802F0C8F80EBD00004C000020A2
:1029900084AC0020A800002002490A680260086098
:1029A00070470000BC0000200B46B0F90220B0F9CF
:1029B00000101846FEF770B938B50C46054620469B
:1029C000FDF732FF0146009090F82800800703D4FD
:1029D0006846FDF745FF12E02846FEF7C5FA009865
:1029E000806920B104466846FDF73AFFE7E768468C
:1029F000FDF736FF204600F03FFB002801DA0020FB
:102A000038BD012038BD38B50C4600280AD0002C4E
:102A100008D0FDF709FF2146009000F004F8684651
:102A2000FDF71EFF38BD00224A800A808288038895
:102A3000D21A8A80C2884088101AC880704710B5A0
:102A4000FFF779FE002802D0FDF722FFC06910BD14
:102A50000D4810B5006890F85400002806D00B4CC3
:102A60006069012803DD401E6061002010BD2069FF
:102A7000401C206101F076FA18B1FFF769FF0120D0
:102A800010BD6069EFE700004C0000207CAC002026
:102A900070B50546FFF7D3FF08E0AC4201D1002432
:102AA00006E0FDF7F5FE006AA84201D00400F4D16B
:102AB000204670BD10B50446FDF7EAFE8069002887
:102AC000F9D12046BDE8104000F0D6BAF0B5384E36
:102AD000074687B0306890F8541041B1354C6169B1
:102AE000491C6161012905DD012007B0F0BDFFF738
:102AF0002FFFF9E7806CFDF797FE2F4D4FF0FF3168
:102B000000902161297821B181680291C068039009
:102B100007E090F8281089073CD5D0E90010CDE9EE
:102B200002101FB1394602A8FEF71EFA3068406C49
:102B300078B3009804903068406C01680591406853
:102B40000690A86A30B104A8FDF78AFEA86AFDF7CE
:102B50006BFE049005A90498FFF726FF05A902A8BB
:102B6000FEF702FA0DF11000FDF77AFEA96A19B11D
:102B700002A8FFF721FFB0B13068816C02A8FFF70F
:102B80001BFF80B1DDE90201C4E90001FFF760FF2E
:102B9000ABE706E06069401E60616846FDF760FED5
:102BA00004E06846E0E76069401E606100209CE741
:102BB0004C0000207CAC0020A8000020FEB50D00D9
:102BC000044647D0FDF730FE009000218561016288
:102BD0002846FDF729FE00990290C56991F8281052
:102BE00001F008062DB12846FDF71EFE019036B112
:102BF00015E0C4616846FDF733FE02A828E090F8AE
:102C0000280000070BD5009805620298C461684649
:102C1000FDF726FE02A8FDF723FE01A818E002A892
:102C2000FDF71EFE01A8FDF71BFE2846FDF730FE4E
:102C300011E004620BE02846FDF72AFE5EB990F829
:102C40002810090707D501980462009805626846B4
:102C5000FDF706FEFEBD0190056A002DEBD1E8E709
:102C6000202201F037BD000038B5040022D0FDF766
:102C7000DBFD009090F82810890718D5406A40B114
:102C80000D49C96AA14204D0FDF77CFF00990020DC
:102C900048622046FFF748FD044606E02046FFF75D
:102CA000E3FF2046FDF7F4FD046A002CF6D16846E8
:102CB000FDF7D6FD38BD0000A80000202DE9FF413A
:102CC0009846164607460D0031D00846FDF7ACFD84
:102CD0000090846A0246A00726D5394601A8FEF76F
:102CE00060F908B340F601000440012C07D04246C9
:102CF00001A9284601F0EEFC0098C46912E0009892
:102D00004346026A816901A8FFF7D8FFF4E7B4429D
:102D10000AD0424601A92046FFF7BCFD2046FDF738
:102D2000B7FD046A002CF2D16846FDF799FDBDE8B5
:102D3000FF812023FFF7C2BFB0F90010B0F90420D3
:102D4000914205DCB0F90210B0F90600814201DDC4
:102D5000002070470120704710B5FFF7ABFE002838
:102D600003DBBDE81040FDF7CBBF10BD70B50D4CC7
:102D700006460D46206814280DDA3046FDF788FD1A
:102D800001696E6041B12068401C20602846884778
:102D90002068401E206070BD2846BDE87040FFF7E7
:102DA00093BC00003C0100201FB5CDE9001069462E
:102DB000FFF7DCFF1FBD00002DE9F041214D0C465F
:102DC0000646E968A86B0844A119401E814206D84E
:102DD0000846096819B941680E4401F023FEA86B42
:102DE000A0420AD254F8040C271A386828B9786827
:102DF0000644384601F016FE3C46304601F056FBCC
:102E000010281CD205EBC0073246002120467B6CFF
:102E100002F0E4F857F8440F083400B14460206031
:102E2000002060603C6028683044286095F82910D4
:102E300029B9E968081AA968814200D2A860304619
:102E4000BDE8F08140AB00202DE9F041054601F0DE
:102E5000EDFB2A48046CAC4202D8ED1C25F00304BB
:102E6000804600680C34A04202D20020BDE8F08108
:102E700001F0F4FC071EF9D0204601F017FB414693
:102E800030E000BF01EBC002526C52B3956845B30D
:102E90006B68A34206D2AA681AB395680DB36B6833
:102EA000A342F8D3D8F84000191B0C301E468142CB
:102EB00000D23446284601F0B5FD0421D8F834008C
:102EC00001EBC7010023455022463946284602F04F
:102ED00085F8A64203DD2919301BFFF76DFF384640
:102EE000C4E7401C1028CDD3204601F0B5FD0028D2
:102EF000C2D0384601F0D2FCB7E7000040AB00205A
:102F000001207047F0B40E4C246814B1A446F0BC04
:102F100060470C4DDFF830C010C8521EE6B2AF5DFE
:102F2000C4F30726C4F307441CF806602C5D04EBC9
:102F3000461404EBC7240C801944EDD1F0BC704753
:102F4000740000205C6800085C6900082DE9F04707
:102F50008146FEF773FE4FF0000807466FF07F448E
:102F60004546FEF783FE060018D000BF56F8251030
:102F7000494502D12846BDE8F0876D1CBD42F5DB0E
:102F80005FF00005484656F82510FDF78DFCA0427D
:102F900001D20446A8466D1CBD42F3DB4046EAE779
:102FA00010B5C1B2064A074BC0F30724C0F307406F
:102FB0001B5D105C515C00EB431000EBC12010BDA9
:102FC0005C6800085C6900082DE9F05F9A46DDE95D
:102FD0000A8791460C4605468B46164635F8020B85
:102FE00041468847B84701C4761EF7D15046BAF12A
:102FF000200F06D2024649465846BDE8F05FFDF76D
:1030000007BFBDE8F09F2DE9F05F9A46DDE90A872A
:1030100091460C4605468B46164615F8010B41466F
:103020008847B84701C4761EF7D15046BAF1200F41
:1030300006D2024649465846BDE8F05FFDF7E8BEB5
:10304000BDE8F09F41884FF4FC63C1F3C4020078EF
:1030500003EA51110A4300F0F80042EA00207047E9
:1030600081784278C9089208007841EA4211C00884
:1030700041EAC020704700000146064A002000BF18
:1030800052F820308B4204D0401C0228F8DB4FF06D
:10309000FF307047EC0000202DE9FF4F85B08346DC
:1030A000DDE91370129DD0E900A0DBF808900390D1
:1030B00047484C191E4600684FF08008007C10F00D
:1030C000030006D0012865D0022818D0032813D1A8
:1030D00060E0307828FA05F1084201D0039800E05A
:1030E000504681B2484602F0C3FA6D1C082D01D14A
:1030F0000025761C7F1EECD109B0BDE8F08F4FF0A3
:10310000000ACDF808A0D9F86CB00194317828FAFB
:1031100005F0014202980BD020B90120CDE9014011
:10312000D9F86CB003982BF8020B0AF1010013E0F8
:10313000012812D1631E0020029007980090D9F850
:10314000A8C04846079A0199E04748465246D9F830
:103150006C1001F015FF00208246641C6D1C082DC8
:1031600001D10025761C7F1ED0D1BAF1000FC3D04B
:103170000798631E0090D9F8A8404846079A01991D
:10318000A047D9F86C1009B048465246BDE8F04F48
:1031900001F0F6BE317828FA05F001420ED0D9F8D8
:1031A000EC3021465846079A9847D9F82830D9F884
:1031B000F0C0434021465846079AE047641C6D1C06
:1031C000082D01D10025761C7F1EE3D194E7000075
:1031D0004C0000202DE9FF5F9046DDE90E924D4B3B
:1031E00099F80050C2F108048A465D5DDDE910716E
:1031F000D540494A139E1268127C12F0030226D071
:10320000012A03D0022A37D0032A72D100698068CC
:1032100080471FFA80FBBC4200D93C463F1BBAF1F5
:10322000000F68D0E8070AD0DAF808004146039A90
:10323000036850469847318881EA0B0131806D0858
:1032400008F10108641E06F10206EBD15EE0314A86
:10325000BC4200D93C463F1B05F001006D0831F827
:10326000200026F8020B641EF6D1002F50D019F86A
:10327000010F0824155CEBE788881FFA80FBBC422D
:1032800000D93C463F1BBAF1000F17D095B1E807B3
:1032900008D0DAF808004146039A03685046984778
:1032A000A6F800B008F10108641E06F1020612D06B
:1032B0006D08EBE706EB4406A0440CE04DB1E807CF
:1032C00001D0A6F800B0641E06F1020603D06D0816
:1032D000F4E706EB4406002F1AD019F8011F0D4839
:1032E0000824455CCBE719F8011F0A480824455C0F
:1032F00091E70DE0FFE7E80703D0308880EA0B0094
:1033000030806D08641E06F10206F4D1002FEAD168
:10331000BDE8FF9F046B00084C0000202DE9FF4F23
:1033200085B0D0F80890DDE9125714989B46002824
:1033300039D041489BF800604C1900684FF0C00834
:10334000007C10F0030016D002282CD14FF0000AA8
:10335000CDF80CA0D9F86C00CDE90140C5F103000F
:103360004100C1F1060228FA02F03040C8402ED0D8
:103370000399D9B120E0C5F103004100C1F1060273
:1033800028FA02F03040C840149931F8200081B288
:10339000484602F06DF96D1C042D02D11BF8016F37
:1033A00000257F1EE7D109B0BDE8F08F012101940F
:1033B0000391D9F86C100291149931F82000029908
:1033C00008800298801C02900AF1010014E0039822
:1033D000012812D1631E0020039007980090D9F8AD
:1033E000A8C04846079A0199E04748465246D9F88E
:1033F0006C1001F0C5FD00208246641C6D1C042D7C
:1034000002D11BF8016F00257F1EA7D1BAF1000F72
:10341000C9D00798631E0090D9F8A8404846079A7B
:103420000199A047D9F86C1009B048465246BDE84A
:10343000F04F01F0A5BD00004C0000202DE9FF5F1A
:103440008B460FA9DDF8388091E82104C0F1040112
:10345000CCB298F80010400081402F48129F91464E
:103460000068CEB2007C10F0030004D001283AD0EE
:1034700002284FD114E0AC4200DDECB22D1BB109A3
:103480003AF8210027F8020BB006060E641E14F06D
:10349000FF04F4D1002D3DD0042418F8016FEAE7B1
:1034A000AC4200DDECB22D1BB0090DD0B109BBF16F
:1034B000000F3AF82100388006D0DBF808004946B2
:1034C000039A036858469847B006060E641EBF1C50
:1034D00009F1010914F0FF04E6D1002D1AD00424EB
:1034E00018F8016FDCE7AC4200DDECB22D1BB0092F
:1034F00003D0388880F0FF003880B006060E641EC6
:10350000BF1C14F0FF04F2D1002D03D0042418F8DE
:10351000016FE8E7BDE8FF9F4C0000202DE9FF4F59
:1035200085B0D0F80890DDE9125714989B46002822
:1035300039D041489BF800604C1900684FF0F00802
:10354000007C10F0030016D002282CD14FF0000AA6
:10355000CDF80CA0D9F86C00CDE90140C5F101000F
:103560008100C1F1040228FA02F03040C8402ED098
:103570000399D9B120E0C5F101008100C1F1040235
:1035800028FA02F03040C840149931F8200081B286
:10359000484602F06DF86D1C022D02D11BF8016F38
:1035A00000257F1EE7D109B0BDE8F08F012101940D
:1035B0000391D9F86C100291149931F82000029906
:1035C00008800298801C02900AF1010014E0039820
:1035D000012812D1631E0020039007980090D9F8AB
:1035E000A8C04846079A0199E04748465246D9F88C
:1035F0006C1001F0C5FC00208246641C6D1C022D7D
:1036000002D11BF8016F00257F1EA7D1BAF1000F70
:10361000C9D00798631E0090D9F8A8404846079A79
:103620000199A047D9F86C1009B048465246BDE848
:10363000F04F01F0A5BC00004C0000202DE9F05F28
:1036400092460BAA894692E842010A9F9B468B004C
:103650003A78C1F102009A40D5B24F4A0E9CC0B2EE
:103660001268127C12F003021BD0012A7CD0022ABD
:103670003AD1D9B328090DD02909B9F1000F38F88A
:103680002100208006D0D9F808005A465146036828
:1036900048469847A41C0AF1010A17F8015F761EF4
:1036A0004CE039B12909761E38F8210024F8020BC4
:1036B00017F8015F022E11DB701006F001062A09CF
:1036C000401E38F8221005F00F0224F8021B38F8CB
:1036D000221024F8021B17F8015FF0D1002E03D04E
:1036E000290938F821002080BDE8F09F26E028094C
:1036F0000DD02909B9F1000F38F82100208006D03B
:10370000D9F808005A46514603684846984715F0CC
:103710000F000DD038F820006080B9F1000F07D0FD
:10372000D9F808005A460AF101010368484698474B
:1037300017F8015F241D0AF1020AB61E022ED6DA1E
:10374000002ED1D02809CFD038F820002080B9F140
:10375000000FC9D0D9F808005A46514603684846B8
:10376000BDE8F05F1847FFE7B04200DDF0B2361A5F
:10377000A90903D0218881F0FF01218029070D0EBE
:10378000401EA41C10F0FF00F2D1002EACD002208D
:1037900017F8015FE8E700004C0000202DE9FF4F1B
:1037A00083B08568DDE9107B1E460C465FEA0B009E
:1037B00020D02E480068007C10F0030018D00228AA
:1037C00018D14FF00008D5F86C90C246CDF80440EF
:1037D00016F8010BE8B1BAF1000F0ED012E0307804
:1037E0003BF8200081B2284601F042FF761C7F1E84
:1037F000002FF4DC07B0BDE8F08F0194D5F86C9091
:103800004FF0010A3BF8200029F8020B08F10100F3
:1038100013E0BAF1010F11D1059800900246D5F8D6
:10382000A8C0631E4FF0000A28460199E0474246AF
:103830002846E96E01F0A4FB00208046641C7F1E30
:10384000C6D1B8F1000FD5D00598631E009002468E
:10385000D5F8A84028460199A047E96E07B042462E
:103860002846BDE8F04F01F08BBB00004C00002063
:103870002DE9F04387B089460EA991E8F0118168DF
:103880008DE8F011D1F8E4404946A04707B0BDE803
:10389000F08300002DE9FF4F83B099460398DDE9DE
:1038A0001075DDE9136BD0F808809246012D05D024
:1038B000022D03D0042D01D0082D06D13148006817
:1038C000007C00F0030002280ED00AEB0700401E27
:1038D00000900498D8F8A84000EB0B0101EB090315
:1038E000404652465B1EA047002446E0042D24D0EB
:1038F00004DC012D07D0022D3CD111E0082D29D088
:10390000102D37D131E01598CDF800B0CDE90190F8
:10391000DDE9030104EB0A023346FFF7BDFB29E0B2
:103920001598CDF800B0CDE90190DDE9030104EB75
:103930000A023346FFF7F2FC1CE01598CDF800B000
:10394000CDE90190DDE9030104EB0A023346FFF7FC
:10395000E5FD0FE0159804EB0A02CDE90090DDE9E2
:1039600003013346FFF71AFF04E04A46314640465A
:1039700001F006FB1298641C0644BC42B6DB07B09B
:10398000BDE8F08F4C0000202DE9FF4F8FB0A44818
:10399000DDE91F860068DDE91C970C46006EFCF728
:1039A00043FF0790406908B1FCF73EFF0A90079873
:1039B000C0680C9007A8FCF753FFA01910900A9854
:1039C00058B197490968097C890706D110ACCDF830
:1039D000009094E80E00FDF7DFF9DDE9100101F039
:1039E0004FFE0446102F03D0182F5DDB002057E058
:1039F00000251EE0DDE910B02844DDF828A0019084
:103A0000129E5FEA080120460ED068B17200FCF7F2
:103A1000ABFBBAF1000F07D0DAF80800334659467D
:103A200047685046019AB8471E990C988844044448
:103A30006D1C4D45DEDBEAE00A980390DDE910B12C
:103A40000698DDF848A0084401905FEA080526467C
:103A500020D0FEB1039830B180685346594647687C
:103A6000019A0398B8470F99286809690968884737
:103A70003080039828B180685946019A03680398FA
:103A800098472D1DAAF10100B61C0BF1010B5FEA4E
:103A9000000AE8D10C981E99044406988844401CFA
:103AA00006904845C8DBB2E0082F02D02198C0B389
:103AB00065E000205DE02198129F00280A9802909E
:103AC000DDE910A05844454600902BD02198049081
:103AD000534826460068007C10F0030002D00228FC
:103AE00041D109E015F8011B04987F1E30F8210030
:103AF00026F8020BF6D136E0287858B1049931F84F
:103B000020003080029828B180685146009A0368EE
:103B1000029898476D1CB61C0AF1010A7F1EEBD172
:103B200021E02AE03E4826460068007C10F00300B1
:103B300002D0022817D105E03A4641462046FCF75C
:103B400013FB10E0287840B13080029828B18068DB
:103B50005146009A0368029898476D1CB61C0AF1FA
:103B6000010A7F1EEED10C981E99044488440BF183
:103B70000100834648459EDB49E02A482190002504
:103B800043E03846012F04D002281CD0042F37D13F
:103B900028E023480068006EFCF746FECDF8008060
:103BA0000790219A12990594CDE90320CDE901618E
:103BB00011980A992B18DDE90F02FFF70BFB07A8F4
:103BC000FCF74EFE1CE021981299CDE90210CDE9D8
:103BD0000086119804942B18DDE90F020A99FFF76B
:103BE0002DFC0DE021981299CDE90210CDE9008657
:103BF000119804942B18DDE90F020A99FFF71EFDB6
:103C00001E986D1C80440C9804444D45B9DB0A98FD
:103C1000002802D00AA8FCF723FE13B0BDE8F08FFD
:103C20004C000020786A000838B584680092D4F807
:103C3000E840A04738BD08B5009200F03DF908BD46
:103C400038B5846800930B46D4F8E840A04738BDE7
:103C50002DE9FC47DFF8AC8081461E46D8F800000D
:103C600015468A46006EFCF7DFFD0190406908B1F9
:103C7000FCF7DAFD00902946504601F001FD0446AC
:103C80000198C768D8F80000017CC90715D0D9F899
:103C900010008068804787B2009820B181682A466A
:103CA0000B685146984720886D1C78402080019809
:103CB000B542C0680444EFDD19E0C06B01680098AC
:103CC00070B11FFA81F800982A4681680B68514646
:103CD0009847A4F800806D1C3C44B542F3DD06E033
:103CE000701B89B2401C21803C44401EFBD101A8BE
:103CF000FCF7B6FD0098002802D06846FCF7B0FD3E
:103D0000BDE8FC874C0000200170012070470000D6
:103D10002DE9F047234C0427E06AD8B1206907EB6E
:103D2000D0014518E800FFF78FF8060037D0616B27
:103D300007EBC600B9460F5820690837C20038465D
:103D4000D4F82C80FCF710FA6763E66249466A1ED5
:103D500020690EE01348C030D0E901100830B1FBF3
:103D6000F0F5AD1CDEE7666B431C01EBC007401CA1
:103D7000F3519042F7D3636B09EBC00000221A5055
:103D8000206960626168281A084425616060B8F1A2
:103D9000000001D0FCF7C8FC0020BDE8F08701203E
:103DA000FBE7000040AB002038B58468049D009517
:103DB000D4F8E840A04738BD2DE9FF4F83B03D4F10
:103DC000039816468B4684683868DDF8408099462B
:103DD000007CA3EB0B0AC20734D138E0D4F8C870DA
:103DE000E56E3FB1CDE900654B4632465946039832
:103DF000B8470DE05F4608E0D4F8EC30324639466B
:103E00000398984725F8020B7F1C4F45F4DDE56EBB
:103E10000AF1010005E02988228D514025F8021B96
:103E2000401E0028F7D10096D4F8A8504B463246E1
:103E300059462046A8470AF101022046E16E01F0EA
:103E40009FF8761C4645C9DD07B0BDE8F08FA8EBAA
:103E500006000AF10105401CCDF800804543D4F866
:103E6000A8C04B4632462046E04738680127D4F8C0
:103E700068A0C06B0088C0F3072900F0FF0816E0B7
:103E80002E46F92D00D9F92657B10AF10100002775
:103E9000314603E000F8019B00F8018B491EF9D27E
:103EA000D4F8182171000AF101009047AD1B002DD4
:103EB000E6D1C9E74C0000202DE9FF4FDFF8A0A0B4
:103EC0000C4685B0DAF80000DDF848801F46C16B6B
:103ED000154609680391006EFCF7A6FC019029467F
:103EE000204601F0CDFB06460198391B01F1010B7C
:103EF000D0F80C90406950B3FCF796FCA8EB050194
:103F0000491C00915B462A4602902146FCF744FF7B
:103F100002A8FCF7A5FC1AE0DAF80000007CC00754
:103F20000DD005985F46344600698068804780B2AE
:103F30002188414024F8021B7F1EF9D105E0039837
:103F40005A4681B23046FDF783F84E446D1C454514
:103F5000E2DD01A8FCF784FC09B0BDE8F08F0000A9
:103F60004C000020FEB54F4CD4E90201CDE9000120
:103F7000206970B3A089401C00B2ADF800006189CF
:103F8000ADF80210B4F90410884207DD2088ADF8BE
:103F90000000E08910F10100ADF80200BDF9020057
:103FA000B4F90610884274DC3F4D2868806CFCF739
:103FB0003BFC0290BDF90000B4F90010884220D10A
:103FC000E088ADF80600A088ADF804002868806C91
:103FD0000FE0FFE72088ADF800006088DCE700BF55
:103FE000FCF756FC0646006A0022694600F0D5F848
:103FF000B0690028F4D1029800226946C06900F037
:10400000CCF8BDF80000ADF804002868806C0AE028
:10401000FCF73EFC0646006A0022694600F046F8BE
:104020000028EED1B0690028F2D10298002269463A
:10403000C06900F03BF80028E3D1B4F90400BDF9F1
:104040000010ADF80400884207DADDE90001C4E998
:10405000020102A8FCF704FC98E72868806C08E0DD
:10406000FCF716FC0546006A0022694600F05CF881
:10407000A8690028F4D1029800226946C06900F0BE
:1040800053F802A8FCF7ECFB206944F62061884253
:1040900001DD0020FEBDDDE90001C4E902010120CF
:1040A000FEBD00007CAC00204C000020FEB5174691
:1040B0000E460546002433E02846FCF7B5FB009089
:1040C000856A0146A80726D527B13A4601A8FCF71C
:1040D00068FF03E0D1E90001CDE9010101A9304603
:1040E000FCF7E9FDB8B1E80702D00098C56910E017
:1040F000BDF80800401C308001240CE001AA3146C4
:104100002846FFF7D3FF00B101242846FCF7C0FB87
:10411000056A002DF2D10098056A6846FCF7A0FBFD
:10412000002DC9D12046FEBDFEB516460D460446FB
:1041300030E02046FCF778FB0090846A0146A00737
:1041400023D526B1324601A8FCF72BFF03E0D1E9C5
:104150000001CDE9010101A92846FCF7ACFDA0B1A1
:10416000E00702D00098C4690DE0BDF80400401ECD
:10417000A8800AE001AA29462046FFF7D5FF20467D
:10418000FCF786FB046A002CF4D10098046A6846A8
:10419000FCF766FB002CCCD1FEBDFEB516460D46E5
:1041A00004464AE02046FCF73FFB0090846A014643
:1041B000A0073DD526B1324601A8FCF7F2FE03E088
:1041C000D1E90001CDE9010101A92846FCF773FD01
:1041D00010B3E00702D00098C46927E000983EB110
:1041E000B0F90210B6F90200814203DD084601E091
:1041F000B0F90200B5F90210814207DABDF90600F4
:10420000B5F90610401E05E0E88011E0BDF90A008E
:10421000B5F906108842F7DB0AE001AA29462046D4
:10422000FFF7BBFF2046FCF733FB046A002CF4D1F8
:104230000098046A6846FCF713FB002CB2D1FEBD5F
:1042400000787047012070478068012901D0002064
:104250007047406C70470000012901D00020704772
:1042600000487047B86A00080D291CD008DC0129F5
:1042700014D00A290CD00B290CD00C2906D10BE044
:1042800016291AD0172913D0182918D000207047E2
:104290000C4870470C4870470C48704700688068AD
:1042A000D0F8FC00704700688068D0F8F4007047D0
:1042B00000688068D0F8F8007047054870470548E6
:1042C000704700008D43000879430008E942000868
:1042D000854B000839430008162901D0002070479B
:1042E00000487047030C000870B50546FCF7B2F8AB
:1042F0004FF4FA70AC68FCF73FFAA066A16B206837
:10430000C91DC9104843FCF737FAE06600220121B5
:10431000A869FDF781FE0546D4F8081120468847B4
:10432000D4F8B01020468847002D01DD012070BD73
:10433000002070BD70470000F8B50D4DDDE906673F
:104340008468286867B1002809D10096D4F8A8606D
:104350002046B04754F8A80F286006482060F8BDF2
:104360000028FCD0C4F8A80000202860F8BD000098
:10437000840000203543000870B515460C460646FB
:10438000FCF768F8B068C0E9004570BD70B5154627
:104390000C460646FCF75EF8B068C0E9024570BD01
:1043A00070B500240D46022807DAFCF773FB20B134
:1043B000C1688A6A294690470446204670BD8068D5
:1043C0000F292CD2DFE801F02B080A0C0E2B2B2B27
:1043D00010121414161D24000068704740687047BE
:1043E00080687047C0687047806B704700207047D6
:1043F000012070470028FCD090F8340000F0010044
:1044000070470028FCD090F83400C0F3400070479B
:104410000028FCD090F83400C0F3800070474FF0C3
:10442000FF307047006810B1C268926A10474FF0C1
:10443000FF30704710B5FDF701FCB0F5807F03D069
:10444000802803D307211AE0082118E0402801D36F
:10445000062114E0202801D3052110E0102801D303
:1044600004210CE0082801D3032108E0042801D32B
:10447000022104E0022801D3012100E000210120F3
:104480008840401E10BD4FF6FF70704770B5002485
:104490000646012531462846FFF782FF844200DAAE
:1044A00004466D1EF6D5204670BD00000146054A43
:1044B0000F2000BF02EBC0031B6C8B4201D9401ED2
:1044C000F8D5704740AB00208368D3F8EC3018472C
:1044D00010B50846114601F0D3F8008810BD806879
:1044E00000220A804A800288521E8A808088401EEC
:1044F000C880704738B50C468068FCF795F9009085
:1045000081882180C1886180818802891144491E87
:10451000A180C18840890844401EE0806846FCF7BD
:104520009FF938BD0249096848840020704700009F
:104530004C00002002490968888400207047000070
:104540004C000020F0B4124C646814B1A446F0BCD6
:104550006047541E04FB030401EB82000D4DDFF89D
:1045600038C0001F2188E41A01F01F06521EAF5DFB
:10457000C1F3451605EBD1211CF80660097801EB63
:10458000062101EB074140F80419EBD1F0BC70475C
:1045900074000020FC6700081C68000870B5044621
:1045A000FDF74CFB0546FDF761FBAC4201D3002053
:1045B00070BD0028FCD050F8240070BD70B5184DB7
:1045C0000446E868011DC0E90E010064091D61612F
:1045D000417C05F1240050F82100C1680A6B04F108
:1045E000080190470F486066A868E061E8680830F5
:1045F000606101202076FEF78BF8A064032084F828
:1046000068006FF07040206360630020FDF718FCC5
:104610006FF07F40FDF74CFC0348286170BD00003F
:1046200040000020506000085C6A000870B5264C0D
:1046300094F82800002846D1012604F1C00584F82A
:10464000286069684FF42050814200D901462868EB
:1046500000F01EFCA86810B968688008A8601C49B2
:104660001A4808600846FCF7C5FC5A202062002062
:104670005FF0100101FA00F204EBC003401C1A6461
:104680001028F7D3D5E9001288181438C4E90D01B1
:10469000022300200421C4E9032305E0636B421CCC
:1046A00001EBC005401C5A512269521E8242F5D8C6
:1046B00066622069401E6060A16BE068FEF77CFBCB
:1046C000FFF726FB266370BD40AB0020B54700080E
:1046D00038000020FEB514460D460646FCF7D8F813
:1046E0000090836A980731D52846FEF725FB0028FD
:1046F0002CD040F601000340012B27D03046FCF7B8
:1047000093F802460090294601A8FCF74AFC01A84C
:10471000FEF712FBB8B1009944F22002886A1042F9
:1047200005D0083101AA0846FCF78AFA0BE0DDE95A
:10473000012320438862C1E9022305498888401C7F
:104740008880FCF719FB6846FCF78AF8FEBD00007C
:10475000A80000200846704710467047084670477A
:10476000104670470068401A401E70474068801A23
:10477000401E70470068401A401E70474068801A0B
:10478000401E704710467047084670474068801AC0
:10479000401E70470068401A401E70471046704720
:1047A000084670474068801A401E70470068401AEB
:1047B000401E70470B4910B5002081F828000146C3
:1047C000084880224030FCF71DFCC022002105482B
:1047D000FCF718FC03480C220021BDE81040C03053
:1047E000FCF710BC40AB0020084910B500208861E0
:1047F000014670220648FCF705FC04480822002107
:10480000BDE810402430FCF7FDBB00004000002054
:104810000CAC00200B4A10B5002151709163084682
:1048200002F15C0402F15403C2F8141044F82010A1
:1048300043F82010401C0228F8D351629162916124
:10484000116210BDA800002010B5034C6068FBF792
:1048500087FF0020606010BD2C01002010B50E4CB9
:104860006168206B814209D8401E2063FFF750FA2F
:10487000216B491C216308B1002010BD606804222F
:10488000401E6060606A616B02EBC0028A5862621F
:10489000012201F8302010BD40AB0020084910B5BE
:1048A0004A680424521C4A604B6B04EBC0044A6AF9
:1048B0001A514B6B002203F83020486210BD0000F3
:1048C00040AB0020D0F8B8100847016CD0F8D420D5
:1048D000896908461047016CD0F8D82089690846D4
:1048E00010471FB50446D0F82C112E208847216AA6
:1048F000D4F848216846891C9047206A694601EB34
:104900004000FEF79FFB04B010BD1CB50446D0F874
:104910000C112E208847216AD4F828216846C91C2A
:104920009047206A69460844FEF79AFB1CBDF8B51B
:104930005D1ADDE90667B41A641C6D1C6543846862
:1049400000962046D4F8A860B047206CD4F8DC303C
:104950002A46806901B03946BDE8F0401847F8B5ED
:104960005D1ADDE90667B41A641C6D1C6543846832
:1049700000962046D4F8A860B047206CD4F8E03008
:104980002A46806901B03946BDE8F0401847F0B5C5
:1049900085B08468DDE90A76B81A5D1A401C6D1C82
:1049A00000974543D4F8A8702046B847D4F82C1196
:1049B0002E208847D4F8482101A8216A9047D4F8CE
:1049C0004821022101A8904701A8FEF73BFB26F8E9
:1049D000020B6D1EF3D105B0F0BDFEB58468DDE9B4
:1049E0000876B81A5D1A401C6D1C00974543D4F830
:1049F000A8702046B847D4F80C112E208847D4F868
:104A0000282101A8216A9047D4F82821032101A870
:104A1000904701A8FEF724FB26F8020B6D1EF3D188
:104A2000FEBD000010B504464068FFF73FFD1028AA
:104A30000DD2084963680A68D21A0A6001EBC00205
:104A4000D4E90201443200B1416009B1086010BDEF
:104A5000106010BD40AB00202DE9F05FDFF89480BE
:104A60008346D8F83840D8F80C10601E0F1820463E
:104A7000D0E90015B9BB6619BE4236D2D6E9001995
:104A800089B3D8F8343013F83130012B2DD1D8F850
:104A90002C20914201D1012100E000218A46FFF73C
:104AA000C1FF3068D8F83410042202EBC0004A4637
:104AB0000C5031462046FBF757FBBAF1000F05D0EA
:104AC000D8F83410321B891AC8F8341004EB0901E5
:104AD0002846FEF771F9BBF1000F05D0834503D8D6
:104AE0000020BDE8F09F00E04D462C44BC42BED300
:104AF0000120F6E740AB0020064910B509684A6B73
:104B0000824206D04863FCF7F9FEBDE81040FDF78D
:104B10009DB910BD4C0000201FB504460F48016828
:104B2000486C38B102680292406803900C48806A71
:104B300018B901E020460EE0886CFBF775FE02A96B
:104B40000090FDF731FF6846FBF78AFE214602A878
:104B5000FCF70AFA02A8FDF785F91FBD4C000020FA
:104B6000A8000020064910B509680A6B824206D0E9
:104B70000863FCF7C3FEBDE81040FDF79FB910BD08
:104B80004C00002070B514460D460646FBF762FC4B
:104B9000B068002810D0262D0FD0272D0CD1826BA5
:104BA0000021102A1CD0122A06D114B11149C0F8D4
:104BB000E04040F8CC1F416070BD816B102907D0E8
:104BC0001229F9D10C49C0F8D84040F8BC1FF2E7CF
:104BD0000A49C0F8B810C0F8D440C0F8B41070BD8D
:104BE00014B10749C0F8DC40C0F8C810C0F8C410C0
:104BF00070BD00005F490008D7480008CB48000896
:104C00002F49000830B509490B681A7C82EA000474
:104C1000640707D59C6BDB6B25681B6823600B68FA
:104C2000DB6B1D6009680874104630BD4C00002025
:104C3000082907D0102904D1054940F88C1F0549DF
:104C400041607047044940F88C1F0449F8E70000B0
:104C50006D4E0008CB4F0008754E0008D34F00087A
:104C60001CB5CDE9001280696A460321FDF7D4F92D
:104C70001CBD0068002802D0C3681B6A1847704733
:104C80001CB50BA10446D1E90001CDE90001D4F81F
:104C90008C20362120469047A08CD4F8902020F01C
:104CA000E001606B1DF800000143204690471CBDE9
:104CB000004080C02060A0E070B515460E46D0F8D8
:104CC0008C2004462A219047E06AD4F89020304492
:104CD000C0F30F212046904794F82C00D4F8902080
:104CE0003044C1B220469047E06AD4F89020304466
:104CF000C0F30F212046904794F82C00D4F8902060
:104D00003044C1B220469047D4F88C202B21204655
:104D10009047206BD4F890202844C0F30F21204600
:104D2000904794F83000D4F890202844C1B220462F
:104D30009047206BD4F890202844C0F30F212046E0
:104D4000904794F83000D4F890202844C1B220460F
:104D500090472046D4F88C20BDE870402C211047A5
:104D600030B48468D4F8F040A44630BC60470000FA
:104D70007CB510481C46154600680E46006EFBF7D1
:104D800053FD01902946304600F07AFC04800198DA
:104D9000406950B1FBF748FD009081682A460B68D6
:104DA000314698476846FBF75BFD01A8FBF758FDC5
:104DB0007CBD00004C0000202DE9F04116460F4656
:104DC000D0F88C201D460446DDF818802A21904733
:104DD000E06AD4F890203844C0F30F212046904771
:104DE00094F82C00D4F890203844C1B22046904763
:104DF000E06AD4F890202844C0F30F212046904761
:104E000094F82C00D4F890202844C1B22046904752
:104E1000D4F88C202B2120469047206BD4F890208A
:104E20003044C0F30F212046904794F83000D4F866
:104E300090203044C1B220469047216BD4F8902096
:104E400001EB0800C0F30F212046904794F8301082
:104E5000D4F8902001EB0800C1B2204690472046CC
:104E6000D4F88C20BDE8F0412C211047D0F82C213B
:104E70000846104770B505460C46080AD5F80C11CF
:104E80008847E0B2D5F80C11BDE870400847000033
:104E9000F0B58E080023FF220546002406E0E7183F
:104EA000B7FBF2FC02FB1C7780C5641CB442F6D34E
:104EB000054600240BE004EB030CBCFBF2FE80CDA6
:104EC00002FB1ECCBC4501D00320F0BD641CB442E3
:104ED000F1D35B1C022BDFD34E08002305460024D0
:104EE00007E0E718B7FBF2FC02FB1C7725F8027B12
:104EF000641CB442F5D3054600240CE004EB030C1B
:104F0000BCFBF2FE35F8027B02FB1ECCBC4501D097
:104F10000220F0BD641CB442F0D35B1C022BDDD335
:104F200000230546002407E0E618B6FBF2F702FB73
:104F3000176605F8016B641C8C42F5D30546002406
:104F40000CE000BFE718B7FBF2FC15F8016B02FBA1
:104F50001C77B74201D00120F0BD641C8C42F1D314
:104F60005B1C022BDDD30022134602E000F8013B5C
:104F7000521C8A42FAD30020F0BD89B200F078BBFF
:104F800070B515460E4604460020A36E0AE000BF29
:104F900036F8021B401C0A0A03F8012BFA2803F812
:104FA000011B0AD06D1EF3D200280DD04100D4F8A9
:104FB0001821A06EBDE870401047D4F818214FF4B6
:104FC000FA71A06E9047DFE770BDD0F83021084637
:104FD00010470246C8B2D2F810110847006180E8B5
:104FE0000E00104440F8042C704700002DE9F74FE4
:104FF000CC489EB09246D0E90010CDE91B101E9817
:10500000FBF712FC1390D0E90445B0F90810D0F872
:105010000C800E91B0F90A1015910068C24E00691B
:10502000406817903068407CFBF746FD119030686F
:10503000407CFBF753FD814613A8FBF711FC082CBD
:1050400001D8012004E0102C01D8022000E0042047
:105050008346012C1BD000271798484575D030682F
:10506000407CFBF733FD18900E988000FBF73DFB6A
:10507000199000286AD01E98FBF7B6FD8146002DD6
:1050800079D02846FBF7D0FB00261A909AE01BAF98
:10509000E2E7002009901A98324681684B6909A915
:1050A00098470E990546884227D11998FBF7BCFB13
:1050B0001690DDE91712CDE900120146119B082C6C
:1050C0002A46484602D9FDF77FFF01E0FDF79BFF26
:1050D00003AB0020169A119983E885000120009007
:1050E000CDE9010103460AEB06010E9A1F98FCF771
:1050F00013FC16A8FBF7B4FB62E0012C22D05DE0A4
:105100000998C21700EB527309EBE30200F00701A4
:105110000492CDE90571012101AB009183E81201F0
:105120001F9A0AEB0601104401232A46FCF77EFF72
:1051300009983246284409901A9881684B6909A950
:1051400098470546002DDBD13AE055E051E019982B
:10515000FBF76AFB1690099A844602FB0B90DDE987
:105160001712CDE90012119B082C2A46614603D97B
:10517000FDF72AFF02E02DE0FDF745FF03AB00201D
:10518000169A119983E8850001200090CDE901016C
:10519000099A1F980AEB0601104401232A46FCF7DE
:1051A000BBFB16A8FBF75CFB099832462844099024
:1051B0001A9881684B6909A998470546002DC6D100
:1051C000C144761C15988642FFF663AF1AA8FBF718
:1051D00047FB0BE0012001A90597009081E811032E
:1051E0005146159B0E9A1F98FCF796FB1998FBF7F2
:1051F0009BFA21B0BDE8F08F1E98FBF7F5FC8146C5
:10520000002D7DD02846FBF70FFB00251A9073E098
:10521000002009901A982A4681684B6909A9984785
:105220000E99064688421DD1119500E06D1C1A9812
:105230006A1C81684B6909A99847B042F6D00120E1
:1052400001A90597009081E8110311980E9A2E1A72
:105250000AEB0001731C1F98FCF75EFB761C06FB33
:10526000089047E0012C22D040E00998C11700EBDC
:10527000517309EBE301CDE9041700F007020121A6
:1052800001AB0692009183E812011F9A0AEB050117
:10529000104401233246FCF7C9FE09982A463044DF
:1052A00009901A9881684B6909A998470646002E0B
:1052B000DBD11DE0099A01AB02FB0B90CDE904079D
:1052C0000120009083E811011F980AEB05011044AA
:1052D00001233246FCF720FB09982A463044099006
:1052E0001A9881684B6909A998470646002EE1D1B2
:1052F00009EB080081466D1C1598854288DB00E0AB
:1053000003E01AA8FBF7ACFA73E7012001A905979F
:10531000009081E811035146159B0E9A1F98FCF7E7
:10532000FBFA66E7046C00084C0000202DE9FF4FF3
:1053300097B01C4615461798FBF776FA0F90B0F910
:1053400008A0B0F90A90C168019100F1180100911C
:105350000068D0F810B00FA8FBF782FADBF8040061
:105360001190C148C1490068407C51F820100F6974
:10537000D7F80080FBF7A0FB082801D8012604E03D
:10538000102801D8022600E00426BB4512D1DDE931
:1053900000020021CDE904010120CDE90242009084
:1053A00001904B46524629461898FCF7B5FA1BB0B7
:1053B000BDE8F08F202C2ED0102CF8D106FB0AF07F
:1053C000FBF793F914900028F1D0FBF72DFA139016
:1053D0001798FBF729FA0F90396900F11804002992
:1053E00072D0DBF814100029FAD0B0F90800800060
:1053F000FBF77BF90C90002867D0FBF715FA0A90B1
:10540000002848D04FEAC608012E7DD0022E7CD05D
:10541000042E7BD1D0E006FB0AF0FBF766F914906E
:105420000028C4D0FBF700FA13901798FBF7FCF99B
:1054300000F118040F90386998B34FF0010B4FEA50
:10544000C608012E04D0022E07D0042E0ED123E070
:1054500013990123D7F810C003E01399D7F810C0AF
:10546000022352462046E04704EB8A04139A0020A8
:10547000CDE90302CDF800B00590CDE901B8294689
:105480006D1C012352461898FCF746FAA9F1010059
:105490005FEA0009D5D146E013990423D7F810C07C
:1054A000DFE7FFE75746012E04D0022E0ED0042E70
:1054B0001FD115E0DDF84CB001CC414688470BF810
:1054C000010B7F1EF8D114E086E036E0DDF84CB029
:1054D00001CC414688472BF8020B7F1EF8D108E02B
:1054E000DDF84CB001CC414688474BF8040B7F1ED9
:1054F000F8D10020F100139ACDE90210CDE9042083
:1055000001200090294602E01AE026E037E0034639
:1055100001906D1C52461898FCF7FEF9A9F10100A4
:105520005FEA0009BED10FA8FBF79AF913A8FBF7B1
:1055300097F91498FBF7F8F839E700200A90F2E79A
:1055400013980190DBF814C00223524620460A99B2
:10555000E0470123D7F810C00BE013980190DBF867
:1055600014C00223524620460A99E047D7F810C0DB
:105570000223524601990A98E04704EB4A04139A21
:105580000021CDE90312059101200090CDE9010829
:10559000294603466D1C52461898FCF7BDF9A9F13F
:1055A00001005FEA00097FF42FAF0AA8FBF758F962
:1055B0000C98FBF7B9F8B6E713980990DBF814C01C
:1055C0000223524620460A99E047DDE909100423E8
:1055D0005246D7F810C0CFE75746012E04D0022E0E
:1055E0000FD0042E28D11AE0DDF84CB0119934F810
:1055F000020B8847414688470BF8010B7F1EF5D107
:105600001AE0DDF84CB000BF119934F8020B88475E
:10561000414688472BF8020B7F1EF5D10CE0DDF8E0
:105620004CB000BF119934F8020B884741468847B7
:105630004BF8040B7F1EF5D10020F100139ACDE941
:105640000210CDE904200120009029460346019074
:105650006D1C52461898FCF75FF9A9F101005FEA4A
:105660000009B9D15FE700004C0000206400002071
:105670000A0A00F8712F4170D0F8A72002211047C4
:1056800038B505460C480C460068006EFBF7CCF8B0
:105690000090B0F90620C36800F11801A21A02FBBD
:1056A0000311B0F9040001EB4501A1EB4004684689
:1056B000FBF7D6F8204638BD4C000020F8B515465B
:1056C0000E4604468768FEF7FFFE0090BB6A01B0F5
:1056D00043402A4631462046BDE8F040FFF740BB34
:1056E000FEB50746124815460E460068006EFBF7E9
:1056F0009BF8019029463046FFF7C2FF04463869FF
:10570000806880472188414021800198406950B1DC
:10571000FBF78AF8009081682A460B683146984763
:105720006846FBF79DF801A8FBF79AF8FEBD00005C
:105730004C00002002E008C8121F08C1002AFAD15C
:1057400070477047002001E001C1121F002AFBD101
:105750007047000010B5044600680E2802D00F28DC
:1057600017D108E0E0684168012917D10068BDE859
:105770001040FBF709BB6068FDF77EFC084951F853
:1057800020006FF07041884203D0FBF7D1FAFBF79D
:10579000A9F82046BDE81040FCF796BF10BD0000F8
:1057A000F400002008B500F027F8012000F01CF8F4
:1057B000012000F00BF8802000210090A0234FF67C
:1057C000E072084600F083F908BD0000054B4FF475
:1057D0008071012803D000221846FBF776BD012214
:1057E000FAE70000000C0140012803D05FF0280018
:1057F00000F014BA2920FBE710B5012000F0F6F9FB
:10580000012000F08DF9002000F0F0F90A2000F0EE
:1058100087F9012000F0EAF9642000F081F91120F5
:1058200000F0FCF9782000F07BF9B12000F0F6F9E7
:10583000052000F03BFA3C2000F038FA3C2000F054
:1058400035FAB42000F0EAF9002000F02FFAC02069
:1058500000F0E4F9282000F029FA082000F026FAE8
:10586000042000F023FAC12000F0D8F9C02000F095
:105870001DFAC22000F0D2F90D2000F017FA002026
:1058800000F014FAC32000F0C9F98D2000F00EFAE0
:105890002A2000F00BFAC42000F0C0F98D2000F09F
:1058A00005FAEE2000F002FAC52000F0B7F91A2040
:1058B00000F0FCF9C72000F0B1F9B62000F0F6F9CD
:1058C0003A2000F0ABF9052000F0F0F92A2000F0B2
:1058D000A5F9002000F0EAF9002000F0E7F9002027
:1058E00000F0E4F99F2000F0E1F92B2000F096F998
:1058F000002000F0DBF9002000F0D8F9002000F0D3
:10590000D5F97F2000F0D2F9362000F087F9602029
:1059100000F0CCF9E02000F081F9042000F0C6F995
:10592000222000F0C3F9072000F0C0F90A2000F09F
:10593000BDF92E2000F0BAF9302000F0B7F925208B
:1059400000F0B4F92A2000F0B1F9282000F0AEF9F7
:10595000262000F0ABF92E2000F0A8F93A2000F044
:10596000A5F9002000F0A2F9012000F09FF9032022
:1059700000F09CF9132000F099F9E12000F04EF9B5
:10598000042000F093F9162000F090F9062000F0B2
:105990008DF90D2000F08AF92D2000F087F92620DE
:1059A00000F084F9232000F081F9272000F07EF92F
:1059B000272000F07BF9252000F078F92D2000F059
:1059C00075F93B2000F072F9002000F06FF901201A
:1059D00000F06CF9042000F069F9132000F066F97A
:1059E000C82000F09DF8BDE81040292000F016B94D
:1059F0002DE9F04105461E4617460C462A2000F0C8
:105A00000DF9280A00F052F9E8B200F04FF93D44D0
:105A1000C5F3072000F04AF9E8B200F047F92B205F
:105A200000F0FCF8200A00F041F9E0B200F03EF985
:105A30003444C4F3072000F039F9E0B2BDE8F04186
:105A400000F034B9F8B5FCF725FAFCF781F9040049
:105A50003BD100252846FBF71DF8009048B1C068EF
:105A60000C21426A68469047010007D00098884799
:105A700004436D1C022DEDDB14B126E00120F8BDBE
:105A8000FCF780F9012543F6FF762846FBF702F87C
:105A90000090C0B12846FBF733F90420FCF720FA48
:105AA0000021324633460846FCF798F80020FCF700
:105AB00017FA00980E21C068426A684690470100B4
:105AC00001D0009888476D1EDFD52046F8BD2DE92E
:105AD000F0419046069F1E467A1E93B2721E92B205
